{
  "_format": "hh-sol-artifact-1",
  "contractName": "Router",
  "sourceName": "contracts/Router.sol",
  "abi": [
    {
      "inputs": [
        {
          "internalType": "address",
          "name": "_base",
          "type": "address"
        },
        {
          "internalType": "address",
          "name": "_wbnb",
          "type": "address"
        }
      ],
      "stateMutability": "nonpayable",
      "type": "constructor"
    },
    {
      "inputs": [],
      "name": "BASE",
      "outputs": [
        {
          "internalType": "address",
          "name": "",
          "type": "address"
        }
      ],
      "stateMutability": "view",
      "type": "function"
    },
    {
      "inputs": [],
      "name": "DEPLOYER",
      "outputs": [
        {
          "internalType": "address",
          "name": "",
          "type": "address"
        }
      ],
      "stateMutability": "view",
      "type": "function"
    },
    {
      "inputs": [],
      "name": "WBNB",
      "outputs": [
        {
          "internalType": "address",
          "name": "",
          "type": "address"
        }
      ],
      "stateMutability": "view",
      "type": "function"
    },
    {
      "inputs": [
        {
          "internalType": "uint256",
          "name": "inputBase",
          "type": "uint256"
        },
        {
          "internalType": "uint256",
          "name": "inputToken",
          "type": "uint256"
        },
        {
          "internalType": "address",
          "name": "token",
          "type": "address"
        }
      ],
      "name": "addLiquidity",
      "outputs": [
        {
          "internalType": "uint256",
          "name": "units",
          "type": "uint256"
        }
      ],
      "stateMutability": "payable",
      "type": "function"
    },
    {
      "inputs": [
        {
          "internalType": "uint256",
          "name": "inputBase",
          "type": "uint256"
        },
        {
          "internalType": "uint256",
          "name": "inputToken",
          "type": "uint256"
        },
        {
          "internalType": "address",
          "name": "token",
          "type": "address"
        },
        {
          "internalType": "address",
          "name": "member",
          "type": "address"
        }
      ],
      "name": "addLiquidityForMember",
      "outputs": [
        {
          "internalType": "uint256",
          "name": "units",
          "type": "uint256"
        }
      ],
      "stateMutability": "payable",
      "type": "function"
    },
    {
      "inputs": [
        {
          "internalType": "uint256",
          "name": "inputToken",
          "type": "uint256"
        },
        {
          "internalType": "bool",
          "name": "fromBase",
          "type": "bool"
        },
        {
          "internalType": "address",
          "name": "token",
          "type": "address"
        }
      ],
      "name": "addLiquiditySingle",
      "outputs": [
        {
          "internalType": "uint256",
          "name": "units",
          "type": "uint256"
        }
      ],
      "stateMutability": "payable",
      "type": "function"
    },
    {
      "inputs": [
        {
          "internalType": "uint256",
          "name": "inputToken",
          "type": "uint256"
        },
        {
          "internalType": "bool",
          "name": "fromBase",
          "type": "bool"
        },
        {
          "internalType": "address",
          "name": "token",
          "type": "address"
        },
        {
          "internalType": "address",
          "name": "member",
          "type": "address"
        }
      ],
      "name": "addLiquiditySingleForMember",
      "outputs": [
        {
          "internalType": "uint256",
          "name": "units",
          "type": "uint256"
        }
      ],
      "stateMutability": "payable",
      "type": "function"
    },
    {
      "inputs": [
        {
          "internalType": "uint256",
          "name": "amount",
          "type": "uint256"
        },
        {
          "internalType": "address",
          "name": "token",
          "type": "address"
        },
        {
          "internalType": "address",
          "name": "member",
          "type": "address"
        }
      ],
      "name": "buyTo",
      "outputs": [
        {
          "internalType": "uint256",
          "name": "",
          "type": "uint256"
        }
      ],
      "stateMutability": "nonpayable",
      "type": "function"
    },
    {
      "inputs": [
        {
          "internalType": "uint256",
          "name": "_size",
          "type": "uint256"
        }
      ],
      "name": "changeArrayFeeSize",
      "outputs": [],
      "stateMutability": "nonpayable",
      "type": "function"
    },
    {
      "inputs": [
        {
          "internalType": "uint256",
          "name": "_eraLength",
          "type": "uint256"
        }
      ],
      "name": "changeEraLength",
      "outputs": [],
      "stateMutability": "nonpayable",
      "type": "function"
    },
    {
      "inputs": [
        {
          "internalType": "uint256",
          "name": "_maxtrades",
          "type": "uint256"
        }
      ],
      "name": "changeMaxTrades",
      "outputs": [],
      "stateMutability": "nonpayable",
      "type": "function"
    },
    {
      "inputs": [
        {
          "internalType": "address",
          "name": "pool",
          "type": "address"
        }
      ],
      "name": "currentPoolRevenue",
      "outputs": [
        {
          "internalType": "uint256",
          "name": "",
          "type": "uint256"
        }
      ],
      "stateMutability": "view",
      "type": "function"
    },
    {
      "inputs": [
        {
          "internalType": "bytes",
          "name": "part1",
          "type": "bytes"
        },
        {
          "internalType": "bytes",
          "name": "part2",
          "type": "bytes"
        }
      ],
      "name": "isEqual",
      "outputs": [
        {
          "internalType": "bool",
          "name": "equal",
          "type": "bool"
        }
      ],
      "stateMutability": "pure",
      "type": "function"
    },
    {
      "inputs": [
        {
          "internalType": "address",
          "name": "",
          "type": "address"
        }
      ],
      "name": "mapAddress_30DayDividends",
      "outputs": [
        {
          "internalType": "uint256",
          "name": "",
          "type": "uint256"
        }
      ],
      "stateMutability": "view",
      "type": "function"
    },
    {
      "inputs": [
        {
          "internalType": "address",
          "name": "",
          "type": "address"
        }
      ],
      "name": "mapAddress_Past30DayPoolDividends",
      "outputs": [
        {
          "internalType": "uint256",
          "name": "",
          "type": "uint256"
        }
      ],
      "stateMutability": "view",
      "type": "function"
    },
    {
      "inputs": [],
      "name": "nextEraTime",
      "outputs": [
        {
          "internalType": "uint256",
          "name": "",
          "type": "uint256"
        }
      ],
      "stateMutability": "view",
      "type": "function"
    },
    {
      "inputs": [],
      "name": "normalAverageFee",
      "outputs": [
        {
          "internalType": "uint256",
          "name": "",
          "type": "uint256"
        }
      ],
      "stateMutability": "view",
      "type": "function"
    },
    {
      "inputs": [
        {
          "internalType": "address",
          "name": "pool",
          "type": "address"
        }
      ],
      "name": "pastPoolRevenue",
      "outputs": [
        {
          "internalType": "uint256",
          "name": "",
          "type": "uint256"
        }
      ],
      "stateMutability": "view",
      "type": "function"
    },
    {
      "inputs": [
        {
          "internalType": "uint256",
          "name": "basisPoints",
          "type": "uint256"
        },
        {
          "internalType": "address",
          "name": "token",
          "type": "address"
        }
      ],
      "name": "removeLiquidity",
      "outputs": [
        {
          "internalType": "uint256",
          "name": "outputBase",
          "type": "uint256"
        },
        {
          "internalType": "uint256",
          "name": "outputToken",
          "type": "uint256"
        }
      ],
      "stateMutability": "nonpayable",
      "type": "function"
    },
    {
      "inputs": [
        {
          "internalType": "uint256",
          "name": "units",
          "type": "uint256"
        },
        {
          "internalType": "address",
          "name": "token",
          "type": "address"
        }
      ],
      "name": "removeLiquidityExact",
      "outputs": [
        {
          "internalType": "uint256",
          "name": "outputBase",
          "type": "uint256"
        },
        {
          "internalType": "uint256",
          "name": "outputToken",
          "type": "uint256"
        }
      ],
      "stateMutability": "nonpayable",
      "type": "function"
    },
    {
      "inputs": [
        {
          "internalType": "uint256",
          "name": "units",
          "type": "uint256"
        },
        {
          "internalType": "bool",
          "name": "toBase",
          "type": "bool"
        },
        {
          "internalType": "address",
          "name": "token",
          "type": "address"
        }
      ],
      "name": "removeLiquiditySingle",
      "outputs": [
        {
          "internalType": "uint256",
          "name": "fee",
          "type": "uint256"
        }
      ],
      "stateMutability": "nonpayable",
      "type": "function"
    },
    {
      "inputs": [],
      "name": "secondsPerEra",
      "outputs": [
        {
          "internalType": "uint256",
          "name": "",
          "type": "uint256"
        }
      ],
      "stateMutability": "view",
      "type": "function"
    },
    {
      "inputs": [
        {
          "internalType": "uint256",
          "name": "amount",
          "type": "uint256"
        },
        {
          "internalType": "address",
          "name": "token",
          "type": "address"
        },
        {
          "internalType": "address",
          "name": "member",
          "type": "address"
        }
      ],
      "name": "sellTo",
      "outputs": [
        {
          "internalType": "uint256",
          "name": "",
          "type": "uint256"
        }
      ],
      "stateMutability": "payable",
      "type": "function"
    },
    {
      "inputs": [
        {
          "internalType": "string",
          "name": "s",
          "type": "string"
        }
      ],
      "name": "stringToBytes",
      "outputs": [
        {
          "internalType": "bytes",
          "name": "",
          "type": "bytes"
        }
      ],
      "stateMutability": "pure",
      "type": "function"
    },
    {
      "inputs": [
        {
          "internalType": "uint256",
          "name": "inputAmount",
          "type": "uint256"
        },
        {
          "internalType": "address",
          "name": "fromToken",
          "type": "address"
        },
        {
          "internalType": "address",
          "name": "toToken",
          "type": "address"
        }
      ],
      "name": "swap",
      "outputs": [],
      "stateMutability": "payable",
      "type": "function"
    },
    {
      "inputs": [
        {
          "internalType": "uint256",
          "name": "inputAmount",
          "type": "uint256"
        },
        {
          "internalType": "address",
          "name": "toToken",
          "type": "address"
        }
      ],
      "name": "swapBaseSynthToToken",
      "outputs": [
        {
          "internalType": "uint256",
          "name": "outputAmount",
          "type": "uint256"
        },
        {
          "internalType": "uint256",
          "name": "fee",
          "type": "uint256"
        }
      ],
      "stateMutability": "nonpayable",
      "type": "function"
    },
    {
      "inputs": [
        {
          "internalType": "uint256",
          "name": "inputAmount",
          "type": "uint256"
        }
      ],
      "name": "swapBaseToBaseSynth",
      "outputs": [
        {
          "internalType": "uint256",
          "name": "outputSynth",
          "type": "uint256"
        },
        {
          "internalType": "uint256",
          "name": "fee",
          "type": "uint256"
        }
      ],
      "stateMutability": "nonpayable",
      "type": "function"
    },
    {
      "inputs": [
        {
          "internalType": "uint256",
          "name": "inputAmount",
          "type": "uint256"
        },
        {
          "internalType": "address",
          "name": "toToken",
          "type": "address"
        }
      ],
      "name": "swapBaseToTokenSynth",
      "outputs": [
        {
          "internalType": "uint256",
          "name": "outputSynth",
          "type": "uint256"
        },
        {
          "internalType": "uint256",
          "name": "fee",
          "type": "uint256"
        }
      ],
      "stateMutability": "nonpayable",
      "type": "function"
    },
    {
      "inputs": [
        {
          "internalType": "uint256",
          "name": "inputAmount",
          "type": "uint256"
        },
        {
          "internalType": "address",
          "name": "fromToken",
          "type": "address"
        },
        {
          "internalType": "address",
          "name": "toToken",
          "type": "address"
        },
        {
          "internalType": "address",
          "name": "member",
          "type": "address"
        }
      ],
      "name": "swapTo",
      "outputs": [],
      "stateMutability": "payable",
      "type": "function"
    },
    {
      "inputs": [
        {
          "internalType": "uint256",
          "name": "inputAmount",
          "type": "uint256"
        },
        {
          "internalType": "address",
          "name": "toToken",
          "type": "address"
        }
      ],
      "name": "swapTokenSynthToToken",
      "outputs": [
        {
          "internalType": "uint256",
          "name": "outputAmount",
          "type": "uint256"
        },
        {
          "internalType": "uint256",
          "name": "fee",
          "type": "uint256"
        }
      ],
      "stateMutability": "nonpayable",
      "type": "function"
    },
    {
      "inputs": [
        {
          "internalType": "uint256",
          "name": "inputAmount",
          "type": "uint256"
        },
        {
          "internalType": "address",
          "name": "fromToken",
          "type": "address"
        }
      ],
      "name": "swapTokenToBaseSynth",
      "outputs": [
        {
          "internalType": "uint256",
          "name": "outputSynth",
          "type": "uint256"
        },
        {
          "internalType": "uint256",
          "name": "fee",
          "type": "uint256"
        }
      ],
      "stateMutability": "payable",
      "type": "function"
    },
    {
      "inputs": [
        {
          "internalType": "uint256",
          "name": "inputAmount",
          "type": "uint256"
        },
        {
          "internalType": "address",
          "name": "toToken",
          "type": "address"
        }
      ],
      "name": "swapTokenToTokenSynth",
      "outputs": [
        {
          "internalType": "uint256",
          "name": "outputSynth",
          "type": "uint256"
        },
        {
          "internalType": "uint256",
          "name": "fee",
          "type": "uint256"
        }
      ],
      "stateMutability": "payable",
      "type": "function"
    },
    {
      "inputs": [
        {
          "internalType": "uint256",
          "name": "unitsInput",
          "type": "uint256"
        },
        {
          "internalType": "address",
          "name": "fromPool",
          "type": "address"
        },
        {
          "internalType": "address",
          "name": "toPool",
          "type": "address"
        }
      ],
      "name": "zapLiquidity",
      "outputs": [
        {
          "internalType": "uint256",
          "name": "unitsOutput",
          "type": "uint256"
        }
      ],
      "stateMutability": "nonpayable",
      "type": "function"
    },
    {
      "stateMutability": "payable",
      "type": "receive"
    }
  ],
  "bytecode": "0x60806040523480156200001157600080fd5b5060405162005ea938038062005ea9833981810160405281019062000037919062000138565b816000806101000a81548173ffffffffffffffffffffffffffffffffffffffff021916908373ffffffffffffffffffffffffffffffffffffffff16021790555080600160006101000a81548173ffffffffffffffffffffffffffffffffffffffff021916908373ffffffffffffffffffffffffffffffffffffffff1602179055506014600881905550601e60068190555060646005819055506000600a8190555033600260006101000a81548173ffffffffffffffffffffffffffffffffffffffff021916908373ffffffffffffffffffffffffffffffffffffffff1602179055505050620001c7565b6000815190506200013281620001ad565b92915050565b600080604083850312156200014c57600080fd5b60006200015c8582860162000121565b92505060206200016f8582860162000121565b9150509250929050565b600062000186826200018d565b9050919050565b600073ffffffffffffffffffffffffffffffffffffffff82169050919050565b620001b88162000179565b8114620001c457600080fd5b50565b615cd280620001d76000396000f3fe6080604052600436106101f25760003560e01c80636d54435d1161010d578063b02d247a116100a0578063cbb3a14a1161006f578063cbb3a14a14610791578063e106fb4b146107ce578063eb1161111461080b578063ec342ad014610836578063ecf3ef9214610861576101f9565b8063b02d247a146106c2578063b45e1dbc146106eb578063c1b8411a14610728578063c8c1fb7514610753576101f9565b80639921c266116100dc5780639921c26614610602578063a0fa75001461063f578063ab1485ec1461067d578063ab87d7be14610699576101f9565b80636d54435d1461054757806387b21efc146105775780638dd95002146105a757806393cac685146105d2576101f9565b8063443465be116101855780635bdc5751116101545780635bdc57511461047d5780636063f306146104ae57806369ab0a8e146104ec5780636b92a3b61461051c576101f9565b8063443465be1461039c578063451918db146103da578063519fc9c91461041757806352e5c5c714610440576101f9565b8063331813ee116101c1578063331813ee146102c057806334359808146102f05780633bc0cf871461032d578063410a4efb1461036b576101f9565b806305fe138b146101fe578063090bbb011461023c5780632ac27482146102675780632b7f0923146102a4576101f9565b366101f957005b600080fd5b34801561020a57600080fd5b5061022560048036038101906102209190615390565b61089e565b604051610233929190615852565b60405180910390f35b34801561024857600080fd5b50610251610b79565b60405161025e919061580e565b60405180910390f35b34801561027357600080fd5b5061028e600480360381019061028991906151c4565b610b7f565b60405161029b919061580e565b60405180910390f35b6102be60048036038101906102b991906153cc565b610bc8565b005b6102da60048036038101906102d591906154cd565b610bd9565b6040516102e7919061580e565b60405180910390f35b3480156102fc57600080fd5b5061031760048036038101906103129190615268565b610ec0565b60405161032491906157a8565b60405180910390f35b34801561033957600080fd5b50610354600480360381019061034f9190615390565b610f78565b604051610362929190615852565b60405180910390f35b61038560048036038101906103809190615390565b6113ce565b604051610393929190615852565b60405180910390f35b3480156103a857600080fd5b506103c360048036038101906103be9190615390565b611595565b6040516103d1929190615852565b60405180910390f35b3480156103e657600080fd5b5061040160048036038101906103fc91906151c4565b611a0b565b60405161040e919061580e565b60405180910390f35b34801561042357600080fd5b5061043e6004803603810190610439919061533e565b611a23565b005b34801561044c57600080fd5b506104676004803603810190610462919061547e565b611b41565b604051610474919061580e565b60405180910390f35b61049760048036038101906104929190615390565b612318565b6040516104a5929190615852565b60405180910390f35b3480156104ba57600080fd5b506104d560048036038101906104d09190615390565b6124df565b6040516104e3929190615852565b60405180910390f35b610506600480360381019061050191906153cc565b61274a565b604051610513919061580e565b60405180910390f35b34801561052857600080fd5b5061053161292f565b60405161053e919061580e565b60405180910390f35b610561600480360381019061055c919061547e565b612935565b60405161056e919061580e565b60405180910390f35b610591600480360381019061058c919061556c565b61294c565b60405161059e919061580e565b60405180910390f35b3480156105b357600080fd5b506105bc612963565b6040516105c99190615704565b60405180910390f35b6105ec60048036038101906105e791906155bb565b612989565b6040516105f9919061580e565b60405180910390f35b34801561060e57600080fd5b50610629600480360381019061062491906151c4565b612b69565b604051610636919061580e565b60405180910390f35b34801561064b57600080fd5b506106666004803603810190610661919061533e565b612bb2565b604051610674929190615852565b60405180910390f35b6106976004803603810190610692919061541b565b612e10565b005b3480156106a557600080fd5b506106c060048036038101906106bb919061533e565b613157565b005b3480156106ce57600080fd5b506106e960048036038101906106e4919061533e565b613275565b005b3480156106f757600080fd5b50610712600480360381019061070d91906153cc565b613393565b60405161071f919061580e565b60405180910390f35b34801561073457600080fd5b5061073d613b21565b60405161074a9190615704565b60405180910390f35b34801561075f57600080fd5b5061077a60048036038101906107759190615390565b613b47565b604051610788929190615852565b60405180910390f35b34801561079d57600080fd5b506107b860048036038101906107b391906151c4565b613f25565b6040516107c5919061580e565b60405180910390f35b3480156107da57600080fd5b506107f560048036038101906107f091906152fd565b613f3d565b60405161080291906157ec565b60405180910390f35b34801561081757600080fd5b50610820613f47565b60405161082d919061580e565b60405180910390f35b34801561084257600080fd5b5061084b613f4d565b6040516108589190615704565b60405180910390f35b34801561086d57600080fd5b50610888600480360381019061088391906153cc565b613f71565b604051610895919061580e565b60405180910390f35b6000806000841180156108b357506127108411155b6108bc57600080fd5b60006108c66141c3565b73ffffffffffffffffffffffffffffffffffffffff16637b0e5c456040518163ffffffff1660e01b815260040160206040518083038186803b15801561090b57600080fd5b505afa15801561091f573d6000803e3d6000fd5b505050506040513d601f19601f8201168201806040525081019061094391906151ed565b73ffffffffffffffffffffffffffffffffffffffff1663714270ab866109676141c3565b73ffffffffffffffffffffffffffffffffffffffff1663b99b0a0c6040518163ffffffff1660e01b815260040160206040518083038186803b1580156109ac57600080fd5b505afa1580156109c0573d6000803e3d6000fd5b505050506040513d601f19601f820116820180604052508101906109e491906151ed565b73ffffffffffffffffffffffffffffffffffffffff1663bbe4f6db886040518263ffffffff1660e01b8152600401610a1c9190615704565b60206040518083038186803b158015610a3457600080fd5b505afa158015610a48573d6000803e3d6000fd5b505050506040513d601f19601f82011682018060405250810190610a6c91906151ed565b73ffffffffffffffffffffffffffffffffffffffff166370a08231336040518263ffffffff1660e01b8152600401610aa49190615704565b60206040518083038186803b158015610abc57600080fd5b505afa158015610ad0573d6000803e3d6000fd5b505050506040513d601f19601f82011682018060405250810190610af49190615367565b6040518363ffffffff1660e01b8152600401610b11929190615852565b60206040518083038186803b158015610b2957600080fd5b505afa158015610b3d573d6000803e3d6000fd5b505050506040513d601f19601f82011682018060405250810190610b619190615367565b9050610b6d8185613b47565b92509250509250929050565b60045481565b6000600b60008373ffffffffffffffffffffffffffffffffffffffff1673ffffffffffffffffffffffffffffffffffffffff168152602001908152602001600020549050919050565b610bd483838333612e10565b505050565b6000808511610be757600080fd5b6000610bf16141c3565b73ffffffffffffffffffffffffffffffffffffffff1663b99b0a0c6040518163ffffffff1660e01b815260040160206040518083038186803b158015610c3657600080fd5b505afa158015610c4a573d6000803e3d6000fd5b505050506040513d601f19601f82011682018060405250810190610c6e91906151ed565b73ffffffffffffffffffffffffffffffffffffffff1663bbe4f6db856040518263ffffffff1660e01b8152600401610ca69190615704565b60206040518083038186803b158015610cbe57600080fd5b505afa158015610cd2573d6000803e3d6000fd5b505050506040513d601f19601f82011682018060405250810190610cf691906151ed565b90506000849050600073ffffffffffffffffffffffffffffffffffffffff168573ffffffffffffffffffffffffffffffffffffffff161415610d5857600160009054906101000a900473ffffffffffffffffffffffffffffffffffffffff1690505b8515610e1c57610d8960008054906101000a900473ffffffffffffffffffffffffffffffffffffffff168884614269565b508173ffffffffffffffffffffffffffffffffffffffff166386d5f618856040518263ffffffff1660e01b8152600401610dc39190615704565b602060405180830381600087803b158015610ddd57600080fd5b505af1158015610df1573d6000803e3d6000fd5b505050506040513d601f19601f82011682018060405250810190610e159190615367565b9250610eb6565b610e27858884614269565b508173ffffffffffffffffffffffffffffffffffffffff166386d5f618856040518263ffffffff1660e01b8152600401610e619190615704565b602060405180830381600087803b158015610e7b57600080fd5b505af1158015610e8f573d6000803e3d6000fd5b505050506040513d601f19601f82011682018060405250810190610eb39190615367565b92505b5050949350505050565b6000600282604051610ed291906156d8565b602060405180830381855afa158015610eef573d6000803e3d6000fd5b5050506040513d601f19601f82011682018060405250810190610f12919061523f565b600284604051610f2291906156d8565b602060405180830381855afa158015610f3f573d6000803e3d6000fd5b5050506040513d601f19601f82011682018060405250810190610f62919061523f565b1415610f715760019050610f72565b5b92915050565b6000806000610f856141c3565b73ffffffffffffffffffffffffffffffffffffffff1663b99b0a0c6040518163ffffffff1660e01b815260040160206040518083038186803b158015610fca57600080fd5b505afa158015610fde573d6000803e3d6000fd5b505050506040513d601f19601f8201168201806040525081019061100291906151ed565b73ffffffffffffffffffffffffffffffffffffffff1663bbe4f6db856040518263ffffffff1660e01b815260040161103a9190615704565b60206040518083038186803b15801561105257600080fd5b505afa158015611066573d6000803e3d6000fd5b505050506040513d601f19601f8201168201806040525081019061108a91906151ed565b905060006110966141c3565b73ffffffffffffffffffffffffffffffffffffffff1663b93ec54b6040518163ffffffff1660e01b815260040160206040518083038186803b1580156110db57600080fd5b505afa1580156110ef573d6000803e3d6000fd5b505050506040513d601f19601f8201168201806040525081019061111391906151ed565b73ffffffffffffffffffffffffffffffffffffffff1663dcec8116866040518263ffffffff1660e01b815260040161114b9190615704565b60206040518083038186803b15801561116357600080fd5b505afa158015611177573d6000803e3d6000fd5b505050506040513d601f19601f8201168201806040525081019061119b91906151ed565b90508073ffffffffffffffffffffffffffffffffffffffff166323b872dd3384896040518463ffffffff1660e01b81526004016111da93929190615748565b602060405180830381600087803b1580156111f457600080fd5b505af1158015611208573d6000803e3d6000fd5b505050506040513d601f19601f8201168201806040525081019061122c9190615216565b5060008054906101000a900473ffffffffffffffffffffffffffffffffffffffff1673ffffffffffffffffffffffffffffffffffffffff168573ffffffffffffffffffffffffffffffffffffffff1614611325578173ffffffffffffffffffffffffffffffffffffffff16638ae8ab3a6000306040518363ffffffff1660e01b81526004016112bc9291906157c3565b6040805180830381600087803b1580156112d557600080fd5b505af11580156112e9573d6000803e3d6000fd5b505050506040513d601f19601f8201168201806040525081019061130d9190615530565b80945081955050506113208585336145b4565b6113bb565b8173ffffffffffffffffffffffffffffffffffffffff16638ae8ab3a6001336040518363ffffffff1660e01b81526004016113619291906157c3565b6040805180830381600087803b15801561137a57600080fd5b505af115801561138e573d6000803e3d6000fd5b505050506040513d601f19601f820116820180604052508101906113b29190615530565b80945081955050505b6113c58284614782565b50509250929050565b60008060006113db6141c3565b73ffffffffffffffffffffffffffffffffffffffff1663b99b0a0c6040518163ffffffff1660e01b815260040160206040518083038186803b15801561142057600080fd5b505afa158015611434573d6000803e3d6000fd5b505050506040513d601f19601f8201168201806040525081019061145891906151ed565b73ffffffffffffffffffffffffffffffffffffffff1663bbe4f6db856040518263ffffffff1660e01b81526004016114909190615704565b60206040518083038186803b1580156114a857600080fd5b505afa1580156114bc573d6000803e3d6000fd5b505050506040513d601f19601f820116820180604052508101906114e091906151ed565b90506114ed848683614269565b508073ffffffffffffffffffffffffffffffffffffffff1663055635026000336040518363ffffffff1660e01b815260040161152a9291906157c3565b6040805180830381600087803b15801561154357600080fd5b505af1158015611557573d6000803e3d6000fd5b505050506040513d601f19601f8201168201806040525081019061157b9190615530565b809350819450505061158d8183614782565b509250929050565b60008060006115a26141c3565b73ffffffffffffffffffffffffffffffffffffffff1663b99b0a0c6040518163ffffffff1660e01b815260040160206040518083038186803b1580156115e757600080fd5b505afa1580156115fb573d6000803e3d6000fd5b505050506040513d601f19601f8201168201806040525081019061161f91906151ed565b73ffffffffffffffffffffffffffffffffffffffff1663bbe4f6db856040518263ffffffff1660e01b81526004016116579190615704565b60206040518083038186803b15801561166f57600080fd5b505afa158015611683573d6000803e3d6000fd5b505050506040513d601f19601f820116820180604052508101906116a791906151ed565b905060006116b36141c3565b73ffffffffffffffffffffffffffffffffffffffff1663b93ec54b6040518163ffffffff1660e01b815260040160206040518083038186803b1580156116f857600080fd5b505afa15801561170c573d6000803e3d6000fd5b505050506040513d601f19601f8201168201806040525081019061173091906151ed565b73ffffffffffffffffffffffffffffffffffffffff1663dcec811660008054906101000a900473ffffffffffffffffffffffffffffffffffffffff166040518263ffffffff1660e01b81526004016117889190615704565b60206040518083038186803b1580156117a057600080fd5b505afa1580156117b4573d6000803e3d6000fd5b505050506040513d601f19601f820116820180604052508101906117d891906151ed565b90508073ffffffffffffffffffffffffffffffffffffffff166323b872dd3384896040518463ffffffff1660e01b815260040161181793929190615748565b602060405180830381600087803b15801561183157600080fd5b505af1158015611845573d6000803e3d6000fd5b505050506040513d601f19601f820116820180604052508101906118699190615216565b5060008054906101000a900473ffffffffffffffffffffffffffffffffffffffff1673ffffffffffffffffffffffffffffffffffffffff168573ffffffffffffffffffffffffffffffffffffffff1614611962578173ffffffffffffffffffffffffffffffffffffffff166390569e856000306040518363ffffffff1660e01b81526004016118f99291906157c3565b6040805180830381600087803b15801561191257600080fd5b505af1158015611926573d6000803e3d6000fd5b505050506040513d601f19601f8201168201806040525081019061194a9190615530565b809450819550505061195d8585336145b4565b6119f8565b8173ffffffffffffffffffffffffffffffffffffffff166390569e856001336040518363ffffffff1660e01b815260040161199e9291906157c3565b6040805180830381600087803b1580156119b757600080fd5b505af11580156119cb573d6000803e3d6000fd5b505050506040513d601f19601f820116820180604052508101906119ef9190615530565b80945081955050505b611a028284614782565b50509250929050565b600c6020528060005260406000206000915090505481565b611a2b6141c3565b73ffffffffffffffffffffffffffffffffffffffff166398fabd3a6040518163ffffffff1660e01b815260040160206040518083038186803b158015611a7057600080fd5b505afa158015611a84573d6000803e3d6000fd5b505050506040513d601f19601f82011682018060405250810190611aa891906151ed565b73ffffffffffffffffffffffffffffffffffffffff163373ffffffffffffffffffffffffffffffffffffffff161480611b2e5750600260009054906101000a900473ffffffffffffffffffffffffffffffffffffffff1673ffffffffffffffffffffffffffffffffffffffff163373ffffffffffffffffffffffffffffffffffffffff16145b611b3757600080fd5b8060058190555050565b600080611b4c6141c3565b73ffffffffffffffffffffffffffffffffffffffff1663b99b0a0c6040518163ffffffff1660e01b815260040160206040518083038186803b158015611b9157600080fd5b505afa158015611ba5573d6000803e3d6000fd5b505050506040513d601f19601f82011682018060405250810190611bc991906151ed565b73ffffffffffffffffffffffffffffffffffffffff1663bbe4f6db846040518263ffffffff1660e01b8152600401611c019190615704565b60206040518083038186803b158015611c1957600080fd5b505afa158015611c2d573d6000803e3d6000fd5b505050506040513d601f19601f82011682018060405250810190611c5191906151ed565b905060011515611c5f6141c3565b73ffffffffffffffffffffffffffffffffffffffff1663b99b0a0c6040518163ffffffff1660e01b815260040160206040518083038186803b158015611ca457600080fd5b505afa158015611cb8573d6000803e3d6000fd5b505050506040513d601f19601f82011682018060405250810190611cdc91906151ed565b73ffffffffffffffffffffffffffffffffffffffff16635b16ebb7836040518263ffffffff1660e01b8152600401611d149190615704565b602060405180830381600087803b158015611d2e57600080fd5b505af1158015611d42573d6000803e3d6000fd5b505050506040513d601f19601f82011682018060405250810190611d669190615216565b151514611d7257600080fd5b60003390508173ffffffffffffffffffffffffffffffffffffffff166323b872dd8284896040518463ffffffff1660e01b8152600401611db493929190615748565b602060405180830381600087803b158015611dce57600080fd5b505af1158015611de2573d6000803e3d6000fd5b505050506040513d601f19601f82011682018060405250810190611e069190615216565b5060008273ffffffffffffffffffffffffffffffffffffffff1663a7f437796040518163ffffffff1660e01b81526004016040805180830381600087803b158015611e5057600080fd5b505af1158015611e64573d6000803e3d6000fd5b505050506040513d601f19601f82011682018060405250810190611e889190615530565b9150506000859050600073ffffffffffffffffffffffffffffffffffffffff168673ffffffffffffffffffffffffffffffffffffffff161415611eeb57600160009054906101000a900473ffffffffffffffffffffffffffffffffffffffff1690505b861561210a578073ffffffffffffffffffffffffffffffffffffffff1663a9059cbb85846040518363ffffffff1660e01b8152600401611f2c92919061577f565b602060405180830381600087803b158015611f4657600080fd5b505af1158015611f5a573d6000803e3d6000fd5b505050506040513d601f19601f82011682018060405250810190611f7e9190615216565b5060008473ffffffffffffffffffffffffffffffffffffffff166303438dd060008054906101000a900473ffffffffffffffffffffffffffffffffffffffff166040518263ffffffff1660e01b8152600401611fda9190615704565b6040805180830381600087803b158015611ff357600080fd5b505af1158015612007573d6000803e3d6000fd5b505050506040513d601f19601f8201168201806040525081019061202b9190615530565b91505080955061210460008054906101000a900473ffffffffffffffffffffffffffffffffffffffff1660008054906101000a900473ffffffffffffffffffffffffffffffffffffffff1673ffffffffffffffffffffffffffffffffffffffff166370a08231306040518263ffffffff1660e01b81526004016120ae9190615704565b60206040518083038186803b1580156120c657600080fd5b505afa1580156120da573d6000803e3d6000fd5b505050506040513d601f19601f820116820180604052508101906120fe9190615367565b866145b4565b5061230d565b60008054906101000a900473ffffffffffffffffffffffffffffffffffffffff1673ffffffffffffffffffffffffffffffffffffffff1663a9059cbb8560008054906101000a900473ffffffffffffffffffffffffffffffffffffffff1673ffffffffffffffffffffffffffffffffffffffff166370a08231306040518263ffffffff1660e01b81526004016121a09190615704565b60206040518083038186803b1580156121b857600080fd5b505afa1580156121cc573d6000803e3d6000fd5b505050506040513d601f19601f820116820180604052508101906121f09190615367565b6040518363ffffffff1660e01b815260040161220d92919061577f565b602060405180830381600087803b15801561222757600080fd5b505af115801561223b573d6000803e3d6000fd5b505050506040513d601f19601f8201168201806040525081019061225f9190615216565b506000808573ffffffffffffffffffffffffffffffffffffffff166303438dd0846040518263ffffffff1660e01b815260040161229c9190615704565b6040805180830381600087803b1580156122b557600080fd5b505af11580156122c9573d6000803e3d6000fd5b505050506040513d601f19601f820116820180604052508101906122ed9190615530565b9150915080965061230a8885846123049190615929565b876145b4565b50505b505050509392505050565b60008060006123256141c3565b73ffffffffffffffffffffffffffffffffffffffff1663b99b0a0c6040518163ffffffff1660e01b815260040160206040518083038186803b15801561236a57600080fd5b505afa15801561237e573d6000803e3d6000fd5b505050506040513d601f19601f820116820180604052508101906123a291906151ed565b73ffffffffffffffffffffffffffffffffffffffff1663bbe4f6db856040518263ffffffff1660e01b81526004016123da9190615704565b60206040518083038186803b1580156123f257600080fd5b505afa158015612406573d6000803e3d6000fd5b505050506040513d601f19601f8201168201806040525081019061242a91906151ed565b9050612437848683614269565b508073ffffffffffffffffffffffffffffffffffffffff1663234fb75d6000336040518363ffffffff1660e01b81526004016124749291906157c3565b6040805180830381600087803b15801561248d57600080fd5b505af11580156124a1573d6000803e3d6000fd5b505050506040513d601f19601f820116820180604052508101906124c59190615530565b80935081945050506124d78183614782565b509250929050565b60008060006124ec6141c3565b73ffffffffffffffffffffffffffffffffffffffff1663b99b0a0c6040518163ffffffff1660e01b815260040160206040518083038186803b15801561253157600080fd5b505afa158015612545573d6000803e3d6000fd5b505050506040513d601f19601f8201168201806040525081019061256991906151ed565b73ffffffffffffffffffffffffffffffffffffffff1663bbe4f6db856040518263ffffffff1660e01b81526004016125a19190615704565b60206040518083038186803b1580156125b957600080fd5b505afa1580156125cd573d6000803e3d6000fd5b505050506040513d601f19601f820116820180604052508101906125f191906151ed565b905060008054906101000a900473ffffffffffffffffffffffffffffffffffffffff1673ffffffffffffffffffffffffffffffffffffffff166323b872dd3383886040518463ffffffff1660e01b815260040161265093929190615748565b602060405180830381600087803b15801561266a57600080fd5b505af115801561267e573d6000803e3d6000fd5b505050506040513d601f19601f820116820180604052508101906126a29190615216565b508073ffffffffffffffffffffffffffffffffffffffff1663234fb75d6001336040518363ffffffff1660e01b81526004016126df9291906157c3565b6040805180830381600087803b1580156126f857600080fd5b505af115801561270c573d6000803e3d6000fd5b505050506040513d601f19601f820116820180604052508101906127309190615530565b80935081945050506127428183614782565b509250929050565b6000806127556141c3565b73ffffffffffffffffffffffffffffffffffffffff1663b99b0a0c6040518163ffffffff1660e01b815260040160206040518083038186803b15801561279a57600080fd5b505afa1580156127ae573d6000803e3d6000fd5b505050506040513d601f19601f820116820180604052508101906127d291906151ed565b73ffffffffffffffffffffffffffffffffffffffff1663bbe4f6db856040518263ffffffff1660e01b815260040161280a9190615704565b60206040518083038186803b15801561282257600080fd5b505afa158015612836573d6000803e3d6000fd5b505050506040513d601f19601f8201168201806040525081019061285a91906151ed565b9050612867848683614269565b5060008173ffffffffffffffffffffffffffffffffffffffff16632783e4a960008054906101000a900473ffffffffffffffffffffffffffffffffffffffff16866040518363ffffffff1660e01b81526004016128c592919061571f565b6040805180830381600087803b1580156128de57600080fd5b505af11580156128f2573d6000803e3d6000fd5b505050506040513d601f19601f820116820180604052508101906129169190615530565b9150506129238282614782565b80925050509392505050565b60035481565b600061294384848433610bd9565b90509392505050565b600061295a84848433612989565b90509392505050565b600160009054906101000a900473ffffffffffffffffffffffffffffffffffffffff1681565b6000806129946141c3565b73ffffffffffffffffffffffffffffffffffffffff1663b99b0a0c6040518163ffffffff1660e01b815260040160206040518083038186803b1580156129d957600080fd5b505afa1580156129ed573d6000803e3d6000fd5b505050506040513d601f19601f82011682018060405250810190612a1191906151ed565b73ffffffffffffffffffffffffffffffffffffffff1663bbe4f6db856040518263ffffffff1660e01b8152600401612a499190615704565b60206040518083038186803b158015612a6157600080fd5b505afa158015612a75573d6000803e3d6000fd5b505050506040513d601f19601f82011682018060405250810190612a9991906151ed565b9050612ac660008054906101000a900473ffffffffffffffffffffffffffffffffffffffff168783614269565b50612ad2848683614269565b508073ffffffffffffffffffffffffffffffffffffffff166386d5f618846040518263ffffffff1660e01b8152600401612b0c9190615704565b602060405180830381600087803b158015612b2657600080fd5b505af1158015612b3a573d6000803e3d6000fd5b505050506040513d601f19601f82011682018060405250810190612b5e9190615367565b915050949350505050565b6000600c60008373ffffffffffffffffffffffffffffffffffffffff1673ffffffffffffffffffffffffffffffffffffffff168152602001908152602001600020549050919050565b6000806000612bbf6141c3565b73ffffffffffffffffffffffffffffffffffffffff16637b0e5c456040518163ffffffff1660e01b815260040160206040518083038186803b158015612c0457600080fd5b505afa158015612c18573d6000803e3d6000fd5b505050506040513d601f19601f82011682018060405250810190612c3c91906151ed565b73ffffffffffffffffffffffffffffffffffffffff1663a875e5f56040518163ffffffff1660e01b815260040160206040518083038186803b158015612c8157600080fd5b505afa158015612c95573d6000803e3d6000fd5b505050506040513d601f19601f82011682018060405250810190612cb991906151ed565b905060008054906101000a900473ffffffffffffffffffffffffffffffffffffffff1673ffffffffffffffffffffffffffffffffffffffff166323b872dd3383876040518463ffffffff1660e01b8152600401612d1893929190615748565b602060405180830381600087803b158015612d3257600080fd5b505af1158015612d46573d6000803e3d6000fd5b505050506040513d601f19601f82011682018060405250810190612d6a9190615216565b508073ffffffffffffffffffffffffffffffffffffffff1663055635026001336040518363ffffffff1660e01b8152600401612da79291906157c3565b6040805180830381600087803b158015612dc057600080fd5b505af1158015612dd4573d6000803e3d6000fd5b505050506040513d601f19601f82011682018060405250810190612df89190615530565b8093508194505050612e0a8183614782565b50915091565b8173ffffffffffffffffffffffffffffffffffffffff168373ffffffffffffffffffffffffffffffffffffffff161415612e4957600080fd5b60008054906101000a900473ffffffffffffffffffffffffffffffffffffffff1673ffffffffffffffffffffffffffffffffffffffff168373ffffffffffffffffffffffffffffffffffffffff161415612eae57612ea8848383613f71565b50613151565b60008054906101000a900473ffffffffffffffffffffffffffffffffffffffff1673ffffffffffffffffffffffffffffffffffffffff168273ffffffffffffffffffffffffffffffffffffffff161415612f1357612f0d84848361274a565b50613150565b6000612f1d6141c3565b73ffffffffffffffffffffffffffffffffffffffff1663b99b0a0c6040518163ffffffff1660e01b815260040160206040518083038186803b158015612f6257600080fd5b505afa158015612f76573d6000803e3d6000fd5b505050506040513d601f19601f82011682018060405250810190612f9a91906151ed565b73ffffffffffffffffffffffffffffffffffffffff1663bbe4f6db846040518263ffffffff1660e01b8152600401612fd29190615704565b60206040518083038186803b158015612fea57600080fd5b505afa158015612ffe573d6000803e3d6000fd5b505050506040513d601f19601f8201168201806040525081019061302291906151ed565b9050600061303186868461274a565b90506000849050600073ffffffffffffffffffffffffffffffffffffffff168573ffffffffffffffffffffffffffffffffffffffff16141561309357600160009054906101000a900473ffffffffffffffffffffffffffffffffffffffff1690505b6000808473ffffffffffffffffffffffffffffffffffffffff166303438dd0846040518263ffffffff1660e01b81526004016130cf9190615704565b6040805180830381600087803b1580156130e857600080fd5b505af11580156130fc573d6000803e3d6000fd5b505050506040513d601f19601f820116820180604052508101906131209190615530565b91509150600081856131329190615929565b905061313e8682614782565b6131498884896145b4565b5050505050505b5b50505050565b61315f6141c3565b73ffffffffffffffffffffffffffffffffffffffff166398fabd3a6040518163ffffffff1660e01b815260040160206040518083038186803b1580156131a457600080fd5b505afa1580156131b8573d6000803e3d6000fd5b505050506040513d601f19601f820116820180604052508101906131dc91906151ed565b73ffffffffffffffffffffffffffffffffffffffff163373ffffffffffffffffffffffffffffffffffffffff1614806132625750600260009054906101000a900473ffffffffffffffffffffffffffffffffffffffff1673ffffffffffffffffffffffffffffffffffffffff163373ffffffffffffffffffffffffffffffffffffffff16145b61326b57600080fd5b8060088190555050565b61327d6141c3565b73ffffffffffffffffffffffffffffffffffffffff166398fabd3a6040518163ffffffff1660e01b815260040160206040518083038186803b1580156132c257600080fd5b505afa1580156132d6573d6000803e3d6000fd5b505050506040513d601f19601f820116820180604052508101906132fa91906151ed565b73ffffffffffffffffffffffffffffffffffffffff163373ffffffffffffffffffffffffffffffffffffffff1614806133805750600260009054906101000a900473ffffffffffffffffffffffffffffffffffffffff1673ffffffffffffffffffffffffffffffffffffffff163373ffffffffffffffffffffffffffffffffffffffff16145b61338957600080fd5b8060068190555050565b6000600115156133a16141c3565b73ffffffffffffffffffffffffffffffffffffffff1663b99b0a0c6040518163ffffffff1660e01b815260040160206040518083038186803b1580156133e657600080fd5b505afa1580156133fa573d6000803e3d6000fd5b505050506040513d601f19601f8201168201806040525081019061341e91906151ed565b73ffffffffffffffffffffffffffffffffffffffff16635b16ebb7856040518263ffffffff1660e01b81526004016134569190615704565b602060405180830381600087803b15801561347057600080fd5b505af1158015613484573d6000803e3d6000fd5b505050506040513d601f19601f820116820180604052508101906134a89190615216565b1515146134b457600080fd5b600115156134c06141c3565b73ffffffffffffffffffffffffffffffffffffffff1663b99b0a0c6040518163ffffffff1660e01b815260040160206040518083038186803b15801561350557600080fd5b505afa158015613519573d6000803e3d6000fd5b505050506040513d601f19601f8201168201806040525081019061353d91906151ed565b73ffffffffffffffffffffffffffffffffffffffff16635b16ebb7846040518263ffffffff1660e01b81526004016135759190615704565b602060405180830381600087803b15801561358f57600080fd5b505af11580156135a3573d6000803e3d6000fd5b505050506040513d601f19601f820116820180604052508101906135c79190615216565b1515146135d357600080fd5b60008373ffffffffffffffffffffffffffffffffffffffff166382bfefc86040518163ffffffff1660e01b815260040160206040518083038186803b15801561361b57600080fd5b505afa15801561362f573d6000803e3d6000fd5b505050506040513d601f19601f8201168201806040525081019061365391906151ed565b905060003390508473ffffffffffffffffffffffffffffffffffffffff166318160ddd6040518163ffffffff1660e01b815260040160206040518083038186803b1580156136a057600080fd5b505afa1580156136b4573d6000803e3d6000fd5b505050506040513d601f19601f820116820180604052508101906136d89190615367565b8611156136e457600080fd5b8473ffffffffffffffffffffffffffffffffffffffff166323b872dd8287896040518463ffffffff1660e01b815260040161372193929190615748565b602060405180830381600087803b15801561373b57600080fd5b505af115801561374f573d6000803e3d6000fd5b505050506040513d601f19601f820116820180604052508101906137739190615216565b5060008573ffffffffffffffffffffffffffffffffffffffff1663a7f437796040518163ffffffff1660e01b81526004016040805180830381600087803b1580156137bd57600080fd5b505af11580156137d1573d6000803e3d6000fd5b505050506040513d601f19601f820116820180604052508101906137f59190615530565b9150508273ffffffffffffffffffffffffffffffffffffffff1663a9059cbb87836040518363ffffffff1660e01b815260040161383392919061577f565b602060405180830381600087803b15801561384d57600080fd5b505af1158015613861573d6000803e3d6000fd5b505050506040513d601f19601f820116820180604052508101906138859190615216565b508573ffffffffffffffffffffffffffffffffffffffff16632783e4a960008054906101000a900473ffffffffffffffffffffffffffffffffffffffff16876040518363ffffffff1660e01b81526004016138e192919061571f565b6040805180830381600087803b1580156138fa57600080fd5b505af115801561390e573d6000803e3d6000fd5b505050506040513d601f19601f820116820180604052508101906139329190615530565b505060008054906101000a900473ffffffffffffffffffffffffffffffffffffffff1673ffffffffffffffffffffffffffffffffffffffff1663a9059cbb8660008054906101000a900473ffffffffffffffffffffffffffffffffffffffff1673ffffffffffffffffffffffffffffffffffffffff166370a08231306040518263ffffffff1660e01b81526004016139ca9190615704565b60206040518083038186803b1580156139e257600080fd5b505afa1580156139f6573d6000803e3d6000fd5b505050506040513d601f19601f82011682018060405250810190613a1a9190615367565b6040518363ffffffff1660e01b8152600401613a3792919061577f565b602060405180830381600087803b158015613a5157600080fd5b505af1158015613a65573d6000803e3d6000fd5b505050506040513d601f19601f82011682018060405250810190613a899190615216565b508473ffffffffffffffffffffffffffffffffffffffff166386d5f618836040518263ffffffff1660e01b8152600401613ac39190615704565b602060405180830381600087803b158015613add57600080fd5b505af1158015613af1573d6000803e3d6000fd5b505050506040513d601f19601f82011682018060405250810190613b159190615367565b93505050509392505050565b600260009054906101000a900473ffffffffffffffffffffffffffffffffffffffff1681565b6000806000613b546141c3565b73ffffffffffffffffffffffffffffffffffffffff1663b99b0a0c6040518163ffffffff1660e01b815260040160206040518083038186803b158015613b9957600080fd5b505afa158015613bad573d6000803e3d6000fd5b505050506040513d601f19601f82011682018060405250810190613bd191906151ed565b73ffffffffffffffffffffffffffffffffffffffff1663bbe4f6db856040518263ffffffff1660e01b8152600401613c099190615704565b60206040518083038186803b158015613c2157600080fd5b505afa158015613c35573d6000803e3d6000fd5b505050506040513d601f19601f82011682018060405250810190613c5991906151ed565b905060003390508173ffffffffffffffffffffffffffffffffffffffff166323b872dd8284896040518463ffffffff1660e01b8152600401613c9d93929190615748565b602060405180830381600087803b158015613cb757600080fd5b505af1158015613ccb573d6000803e3d6000fd5b505050506040513d601f19601f82011682018060405250810190613cef9190615216565b50600073ffffffffffffffffffffffffffffffffffffffff168573ffffffffffffffffffffffffffffffffffffffff1614613db5578173ffffffffffffffffffffffffffffffffffffffff1663bc5dedc9826040518263ffffffff1660e01b8152600401613d5d9190615704565b6040805180830381600087803b158015613d7657600080fd5b505af1158015613d8a573d6000803e3d6000fd5b505050506040513d601f19601f82011682018060405250810190613dae9190615530565b5050613f1c565b8173ffffffffffffffffffffffffffffffffffffffff1663a7f437796040518163ffffffff1660e01b81526004016040805180830381600087803b158015613dfc57600080fd5b505af1158015613e10573d6000803e3d6000fd5b505050506040513d601f19601f82011682018060405250810190613e349190615530565b90508093505060008054906101000a900473ffffffffffffffffffffffffffffffffffffffff1673ffffffffffffffffffffffffffffffffffffffff166370a08231306040518263ffffffff1660e01b8152600401613e939190615704565b60206040518083038186803b158015613eab57600080fd5b505afa158015613ebf573d6000803e3d6000fd5b505050506040513d601f19601f82011682018060405250810190613ee39190615367565b9350613ef08584836145b4565b613f1b60008054906101000a900473ffffffffffffffffffffffffffffffffffffffff1685836145b4565b5b50509250929050565b600b6020528060005260406000206000915090505481565b6060819050919050565b60075481565b60008054906101000a900473ffffffffffffffffffffffffffffffffffffffff1681565b600080839050600073ffffffffffffffffffffffffffffffffffffffff168473ffffffffffffffffffffffffffffffffffffffff161415613fd257600160009054906101000a900473ffffffffffffffffffffffffffffffffffffffff1690505b6000613fdc6141c3565b73ffffffffffffffffffffffffffffffffffffffff1663b99b0a0c6040518163ffffffff1660e01b815260040160206040518083038186803b15801561402157600080fd5b505afa158015614035573d6000803e3d6000fd5b505050506040513d601f19601f8201168201806040525081019061405991906151ed565b73ffffffffffffffffffffffffffffffffffffffff1663bbe4f6db866040518263ffffffff1660e01b81526004016140919190615704565b60206040518083038186803b1580156140a957600080fd5b505afa1580156140bd573d6000803e3d6000fd5b505050506040513d601f19601f820116820180604052508101906140e191906151ed565b905061410e60008054906101000a900473ffffffffffffffffffffffffffffffffffffffff168783614269565b506000808273ffffffffffffffffffffffffffffffffffffffff166303438dd0856040518263ffffffff1660e01b815260040161414b9190615704565b6040805180830381600087803b15801561416457600080fd5b505af1158015614178573d6000803e3d6000fd5b505050506040513d601f19601f8201168201806040525081019061419c9190615530565b915091506141ab8783886145b4565b6141b58382614782565b809450505050509392505050565b60008060009054906101000a900473ffffffffffffffffffffffffffffffffffffffff1673ffffffffffffffffffffffffffffffffffffffff166398fabd3a6040518163ffffffff1660e01b815260040160206040518083038186803b15801561422c57600080fd5b505afa158015614240573d6000803e3d6000fd5b505050506040513d601f19601f8201168201806040525081019061426491906152d4565b905090565b6000808311156145ad57600073ffffffffffffffffffffffffffffffffffffffff168473ffffffffffffffffffffffffffffffffffffffff1614156143f7573483146142b457600080fd5b600160009054906101000a900473ffffffffffffffffffffffffffffffffffffffff1673ffffffffffffffffffffffffffffffffffffffff16836040516142fa906156ef565b60006040518083038185875af1925050503d8060008114614337576040519150601f19603f3d011682016040523d82523d6000602084013e61433c565b606091505b505050600160009054906101000a900473ffffffffffffffffffffffffffffffffffffffff1673ffffffffffffffffffffffffffffffffffffffff1663a9059cbb83856040518363ffffffff1660e01b815260040161439c92919061577f565b602060405180830381600087803b1580156143b657600080fd5b505af11580156143ca573d6000803e3d6000fd5b505050506040513d601f19601f820116820180604052508101906143ee9190615216565b508290506145ac565b60008473ffffffffffffffffffffffffffffffffffffffff166370a08231846040518263ffffffff1660e01b81526004016144329190615704565b60206040518083038186803b15801561444a57600080fd5b505afa15801561445e573d6000803e3d6000fd5b505050506040513d601f19601f820116820180604052508101906144829190615367565b90508473ffffffffffffffffffffffffffffffffffffffff166323b872dd3385876040518463ffffffff1660e01b81526004016144c193929190615748565b602060405180830381600087803b1580156144db57600080fd5b505af11580156144ef573d6000803e3d6000fd5b505050506040513d601f19601f820116820180604052508101906145139190615216565b50808573ffffffffffffffffffffffffffffffffffffffff166370a08231856040518263ffffffff1660e01b815260040161454e9190615704565b60206040518083038186803b15801561456657600080fd5b505afa15801561457a573d6000803e3d6000fd5b505050506040513d601f19601f8201168201806040525081019061459e9190615367565b6145a89190615a0a565b9150505b5b9392505050565b600082111561477d57600073ffffffffffffffffffffffffffffffffffffffff168373ffffffffffffffffffffffffffffffffffffffff1614156146ed57600160009054906101000a900473ffffffffffffffffffffffffffffffffffffffff1673ffffffffffffffffffffffffffffffffffffffff16632e1a7d4d836040518263ffffffff1660e01b815260040161464d919061580e565b600060405180830381600087803b15801561466757600080fd5b505af115801561467b573d6000803e3d6000fd5b505050508073ffffffffffffffffffffffffffffffffffffffff16826040516146a3906156ef565b60006040518083038185875af1925050503d80600081146146e0576040519150601f19603f3d011682016040523d82523d6000602084013e6146e5565b606091505b50505061477c565b8273ffffffffffffffffffffffffffffffffffffffff1663a9059cbb82846040518363ffffffff1660e01b815260040161472892919061577f565b602060405180830381600087803b15801561474257600080fd5b505af1158015614756573d6000803e3d6000fd5b505050506040513d601f19601f8201168201806040525081019061477a9190615216565b505b5b505050565b6001151561478e6141c3565b73ffffffffffffffffffffffffffffffffffffffff1663b99b0a0c6040518163ffffffff1660e01b815260040160206040518083038186803b1580156147d357600080fd5b505afa1580156147e7573d6000803e3d6000fd5b505050506040513d601f19601f8201168201806040525081019061480b91906151ed565b73ffffffffffffffffffffffffffffffffffffffff16638dcb4c93846040518263ffffffff1660e01b81526004016148439190615704565b60206040518083038186803b15801561485b57600080fd5b505afa15801561486f573d6000803e3d6000fd5b505050506040513d601f19601f820116820180604052508101906148939190615216565b151514156148af576148a4816148b3565b6148ae828261498b565b5b5050565b600080600980549050905060085481146148f5576009839080600181540180825580915050600190039060005260206000200160009091909190915055614972565b6148fe83614c80565b60005b6008548110156149705760098181548110614945577f4e487b7100000000000000000000000000000000000000000000000000000000600052603260045260246000fd5b90600052602060002001548361495b9190615929565b9250808061496890615b3f565b915050614901565b505b60085482614980919061597f565b600781905550505050565b600060075414614c7c5760008060009054906101000a900473ffffffffffffffffffffffffffffffffffffffff1673ffffffffffffffffffffffffffffffffffffffff166370a082316149dc6141c3565b73ffffffffffffffffffffffffffffffffffffffff16639d2cc4366040518163ffffffff1660e01b815260040160206040518083038186803b158015614a2157600080fd5b505afa158015614a35573d6000803e3d6000fd5b505050506040513d601f19601f82011682018060405250810190614a5991906151ed565b6040518263ffffffff1660e01b8152600401614a759190615704565b60206040518083038186803b158015614a8d57600080fd5b505afa158015614aa1573d6000803e3d6000fd5b505050506040513d601f19601f82011682018060405250810190614ac59190615367565b905060008114614c7a57600060055460065483614ae2919061597f565b614aec919061597f565b905060008184614afc91906159b0565b9050600060075485614b0e9190615929565b82614b19919061597f565b9050614b258187614da0565b614b2d6141c3565b73ffffffffffffffffffffffffffffffffffffffff16639d2cc4366040518163ffffffff1660e01b815260040160206040518083038186803b158015614b7257600080fd5b505afa158015614b86573d6000803e3d6000fd5b505050506040513d601f19601f82011682018060405250810190614baa91906151ed565b73ffffffffffffffffffffffffffffffffffffffff16637d458baa82886040518363ffffffff1660e01b8152600401614be4929190615829565b600060405180830381600087803b158015614bfe57600080fd5b505af1158015614c12573d6000803e3d6000fd5b505050508573ffffffffffffffffffffffffffffffffffffffff1663fff6cae96040518163ffffffff1660e01b8152600401600060405180830381600087803b158015614c5e57600080fd5b505af1158015614c72573d6000803e3d6000fd5b505050505050505b505b5050565b600060098054905090506000600182614c999190615a0a565b90505b6000811115614d51576009600182614cb49190615a0a565b81548110614ceb577f4e487b7100000000000000000000000000000000000000000000000000000000600052603260045260246000fd5b906000526020600020015460098281548110614d30577f4e487b7100000000000000000000000000000000000000000000000000000000600052603260045260246000fd5b90600052602060002001819055508080614d4990615ae4565b915050614c9c565b50816009600081548110614d8e577f4e487b7100000000000000000000000000000000000000000000000000000000600052603260045260246000fd5b90600052602060002001819055505050565b6000600a541415614e30578073ffffffffffffffffffffffffffffffffffffffff1663a7f0b3de6040518163ffffffff1660e01b815260040160206040518083038186803b158015614df157600080fd5b505afa158015614e05573d6000803e3d6000fd5b505050506040513d601f19601f82011682018060405250810190614e299190615367565b600a819055505b62278d00600a54614e419190615929565b4211614eda5781600b60008373ffffffffffffffffffffffffffffffffffffffff1673ffffffffffffffffffffffffffffffffffffffff16815260200190815260200160002054614e929190615929565b600b60008373ffffffffffffffffffffffffffffffffffffffff1673ffffffffffffffffffffffffffffffffffffffff16815260200190815260200160002081905550615048565b62278d00600a54614eeb9190615929565b600a81905550600b60008273ffffffffffffffffffffffffffffffffffffffff1673ffffffffffffffffffffffffffffffffffffffff16815260200190815260200160002054600c60008373ffffffffffffffffffffffffffffffffffffffff1673ffffffffffffffffffffffffffffffffffffffff168152602001908152602001600020819055506000600b60008373ffffffffffffffffffffffffffffffffffffffff1673ffffffffffffffffffffffffffffffffffffffff1681526020019081526020016000208190555081600b60008373ffffffffffffffffffffffffffffffffffffffff1673ffffffffffffffffffffffffffffffffffffffff168152602001908152602001600020546150049190615929565b600b60008373ffffffffffffffffffffffffffffffffffffffff1673ffffffffffffffffffffffffffffffffffffffff168152602001908152602001600020819055505b5050565b600061505f61505a846158a0565b61587b565b90508281526020810184848401111561507757600080fd5b615082848285615aa2565b509392505050565b600061509d615098846158d1565b61587b565b9050828152602081018484840111156150b557600080fd5b6150c0848285615aa2565b509392505050565b6000813590506150d781615c29565b92915050565b6000815190506150ec81615c29565b92915050565b60008135905061510181615c40565b92915050565b60008151905061511681615c40565b92915050565b60008151905061512b81615c57565b92915050565b600082601f83011261514257600080fd5b813561515284826020860161504c565b91505092915050565b60008151905061516a81615c6e565b92915050565b600082601f83011261518157600080fd5b813561519184826020860161508a565b91505092915050565b6000813590506151a981615c85565b92915050565b6000815190506151be81615c85565b92915050565b6000602082840312156151d657600080fd5b60006151e4848285016150c8565b91505092915050565b6000602082840312156151ff57600080fd5b600061520d848285016150dd565b91505092915050565b60006020828403121561522857600080fd5b600061523684828501615107565b91505092915050565b60006020828403121561525157600080fd5b600061525f8482850161511c565b91505092915050565b6000806040838503121561527b57600080fd5b600083013567ffffffffffffffff81111561529557600080fd5b6152a185828601615131565b925050602083013567ffffffffffffffff8111156152be57600080fd5b6152ca85828601615131565b9150509250929050565b6000602082840312156152e657600080fd5b60006152f48482850161515b565b91505092915050565b60006020828403121561530f57600080fd5b600082013567ffffffffffffffff81111561532957600080fd5b61533584828501615170565b91505092915050565b60006020828403121561535057600080fd5b600061535e8482850161519a565b91505092915050565b60006020828403121561537957600080fd5b6000615387848285016151af565b91505092915050565b600080604083850312156153a357600080fd5b60006153b18582860161519a565b92505060206153c2858286016150c8565b9150509250929050565b6000806000606084860312156153e157600080fd5b60006153ef8682870161519a565b9350506020615400868287016150c8565b9250506040615411868287016150c8565b9150509250925092565b6000806000806080858703121561543157600080fd5b600061543f8782880161519a565b9450506020615450878288016150c8565b9350506040615461878288016150c8565b9250506060615472878288016150c8565b91505092959194509250565b60008060006060848603121561549357600080fd5b60006154a18682870161519a565b93505060206154b2868287016150f2565b92505060406154c3868287016150c8565b9150509250925092565b600080600080608085870312156154e357600080fd5b60006154f18782880161519a565b9450506020615502878288016150f2565b9350506040615513878288016150c8565b9250506060615524878288016150c8565b91505092959194509250565b6000806040838503121561554357600080fd5b6000615551858286016151af565b9250506020615562858286016151af565b9150509250929050565b60008060006060848603121561558157600080fd5b600061558f8682870161519a565b93505060206155a08682870161519a565b92505060406155b1868287016150c8565b9150509250925092565b600080600080608085870312156155d157600080fd5b60006155df8782880161519a565b94505060206155f08782880161519a565b9350506040615601878288016150c8565b9250506060615612878288016150c8565b91505092959194509250565b61562781615a3e565b82525050565b61563681615a50565b82525050565b600061564782615902565b615651818561590d565b9350615661818560208601615ab1565b61566a81615c15565b840191505092915050565b600061568082615902565b61568a818561591e565b935061569a818560208601615ab1565b80840191505092915050565b60006156b360008361591e565b91506156be82615c26565b600082019050919050565b6156d281615a98565b82525050565b60006156e48284615675565b915081905092915050565b60006156fa826156a6565b9150819050919050565b6000602082019050615719600083018461561e565b92915050565b6000604082019050615734600083018561561e565b615741602083018461561e565b9392505050565b600060608201905061575d600083018661561e565b61576a602083018561561e565b61577760408301846156c9565b949350505050565b6000604082019050615794600083018561561e565b6157a160208301846156c9565b9392505050565b60006020820190506157bd600083018461562d565b92915050565b60006040820190506157d8600083018561562d565b6157e5602083018461561e565b9392505050565b60006020820190508181036000830152615806818461563c565b905092915050565b600060208201905061582360008301846156c9565b92915050565b600060408201905061583e60008301856156c9565b61584b602083018461561e565b9392505050565b600060408201905061586760008301856156c9565b61587460208301846156c9565b9392505050565b6000615885615896565b90506158918282615b0e565b919050565b6000604051905090565b600067ffffffffffffffff8211156158bb576158ba615be6565b5b6158c482615c15565b9050602081019050919050565b600067ffffffffffffffff8211156158ec576158eb615be6565b5b6158f582615c15565b9050602081019050919050565b600081519050919050565b600082825260208201905092915050565b600081905092915050565b600061593482615a98565b915061593f83615a98565b9250827fffffffffffffffffffffffffffffffffffffffffffffffffffffffffffffffff0382111561597457615973615b88565b5b828201905092915050565b600061598a82615a98565b915061599583615a98565b9250826159a5576159a4615bb7565b5b828204905092915050565b60006159bb82615a98565b91506159c683615a98565b9250817fffffffffffffffffffffffffffffffffffffffffffffffffffffffffffffffff04831182151516156159ff576159fe615b88565b5b828202905092915050565b6000615a1582615a98565b9150615a2083615a98565b925082821015615a3357615a32615b88565b5b828203905092915050565b6000615a4982615a78565b9050919050565b60008115159050919050565b6000819050919050565b6000615a7182615a3e565b9050919050565b600073ffffffffffffffffffffffffffffffffffffffff82169050919050565b6000819050919050565b82818337600083830152505050565b60005b83811015615acf578082015181840152602081019050615ab4565b83811115615ade576000848401525b50505050565b6000615aef82615a98565b91506000821415615b0357615b02615b88565b5b600182039050919050565b615b1782615c15565b810181811067ffffffffffffffff82111715615b3657615b35615be6565b5b80604052505050565b6000615b4a82615a98565b91507fffffffffffffffffffffffffffffffffffffffffffffffffffffffffffffffff821415615b7d57615b7c615b88565b5b600182019050919050565b7f4e487b7100000000000000000000000000000000000000000000000000000000600052601160045260246000fd5b7f4e487b7100000000000000000000000000000000000000000000000000000000600052601260045260246000fd5b7f4e487b7100000000000000000000000000000000000000000000000000000000600052604160045260246000fd5b6000601f19601f8301169050919050565b50565b615c3281615a3e565b8114615c3d57600080fd5b50565b615c4981615a50565b8114615c5457600080fd5b50565b615c6081615a5c565b8114615c6b57600080fd5b50565b615c7781615a66565b8114615c8257600080fd5b50565b615c8e81615a98565b8114615c9957600080fd5b5056fea26469706673582212208d1c84cac2b55f4876af25b1dd4f6f46c369f5b87f51ec97bcdfc92a1ede1fe064736f6c63430008030033",
  "linkReferences": {},
  "deployedLinkReferences": {}
}