{
  "_format": "hh-sol-artifact-1",
  "contractName": "PoolFactory",
  "sourceName": "contracts/poolFactory.sol",
  "abi": [
    {
      "inputs": [
        {
          "internalType": "address",
          "name": "_base",
          "type": "address"
        },
        {
          "internalType": "address",
          "name": "_wbnb",
          "type": "address"
        }
      ],
      "stateMutability": "nonpayable",
      "type": "constructor"
    },
    {
      "anonymous": false,
      "inputs": [
        {
          "indexed": true,
          "internalType": "address",
          "name": "pool",
          "type": "address"
        },
        {
          "indexed": false,
          "internalType": "bool",
          "name": "Curated",
          "type": "bool"
        }
      ],
      "name": "AddCuratePool",
      "type": "event"
    },
    {
      "anonymous": false,
      "inputs": [
        {
          "indexed": true,
          "internalType": "address",
          "name": "token",
          "type": "address"
        },
        {
          "indexed": true,
          "internalType": "address",
          "name": "pool",
          "type": "address"
        }
      ],
      "name": "CreatePool",
      "type": "event"
    },
    {
      "anonymous": false,
      "inputs": [
        {
          "indexed": true,
          "internalType": "address",
          "name": "pool",
          "type": "address"
        },
        {
          "indexed": false,
          "internalType": "bool",
          "name": "Curated",
          "type": "bool"
        }
      ],
      "name": "RemoveCuratePool",
      "type": "event"
    },
    {
      "inputs": [],
      "name": "BASE",
      "outputs": [
        {
          "internalType": "address",
          "name": "",
          "type": "address"
        }
      ],
      "stateMutability": "view",
      "type": "function"
    },
    {
      "inputs": [],
      "name": "DEPLOYER",
      "outputs": [
        {
          "internalType": "address",
          "name": "",
          "type": "address"
        }
      ],
      "stateMutability": "view",
      "type": "function"
    },
    {
      "inputs": [],
      "name": "WBNB",
      "outputs": [
        {
          "internalType": "address",
          "name": "",
          "type": "address"
        }
      ],
      "stateMutability": "view",
      "type": "function"
    },
    {
      "inputs": [
        {
          "internalType": "address",
          "name": "token",
          "type": "address"
        }
      ],
      "name": "addCuratedPool",
      "outputs": [],
      "stateMutability": "nonpayable",
      "type": "function"
    },
    {
      "inputs": [
        {
          "internalType": "uint256",
          "name": "",
          "type": "uint256"
        }
      ],
      "name": "arrayPools",
      "outputs": [
        {
          "internalType": "address",
          "name": "",
          "type": "address"
        }
      ],
      "stateMutability": "view",
      "type": "function"
    },
    {
      "inputs": [
        {
          "internalType": "uint256",
          "name": "",
          "type": "uint256"
        }
      ],
      "name": "arrayTokens",
      "outputs": [
        {
          "internalType": "address",
          "name": "",
          "type": "address"
        }
      ],
      "stateMutability": "view",
      "type": "function"
    },
    {
      "inputs": [
        {
          "internalType": "address",
          "name": "token",
          "type": "address"
        }
      ],
      "name": "createPool",
      "outputs": [
        {
          "internalType": "address",
          "name": "pool",
          "type": "address"
        }
      ],
      "stateMutability": "nonpayable",
      "type": "function"
    },
    {
      "inputs": [
        {
          "internalType": "uint256",
          "name": "inputBase",
          "type": "uint256"
        },
        {
          "internalType": "uint256",
          "name": "inputToken",
          "type": "uint256"
        },
        {
          "internalType": "address",
          "name": "token",
          "type": "address"
        }
      ],
      "name": "createPoolADD",
      "outputs": [
        {
          "internalType": "address",
          "name": "pool",
          "type": "address"
        }
      ],
      "stateMutability": "payable",
      "type": "function"
    },
    {
      "inputs": [],
      "name": "curatedPoolSize",
      "outputs": [
        {
          "internalType": "uint256",
          "name": "",
          "type": "uint256"
        }
      ],
      "stateMutability": "view",
      "type": "function"
    },
    {
      "inputs": [
        {
          "internalType": "address",
          "name": "token",
          "type": "address"
        }
      ],
      "name": "getPool",
      "outputs": [
        {
          "internalType": "address",
          "name": "pool",
          "type": "address"
        }
      ],
      "stateMutability": "view",
      "type": "function"
    },
    {
      "inputs": [
        {
          "internalType": "uint256",
          "name": "i",
          "type": "uint256"
        }
      ],
      "name": "getPoolArray",
      "outputs": [
        {
          "internalType": "address",
          "name": "",
          "type": "address"
        }
      ],
      "stateMutability": "view",
      "type": "function"
    },
    {
      "inputs": [
        {
          "internalType": "uint256",
          "name": "i",
          "type": "uint256"
        }
      ],
      "name": "getToken",
      "outputs": [
        {
          "internalType": "address",
          "name": "",
          "type": "address"
        }
      ],
      "stateMutability": "view",
      "type": "function"
    },
    {
      "inputs": [
        {
          "internalType": "address",
          "name": "",
          "type": "address"
        }
      ],
      "name": "isCuratedPool",
      "outputs": [
        {
          "internalType": "bool",
          "name": "",
          "type": "bool"
        }
      ],
      "stateMutability": "view",
      "type": "function"
    },
    {
      "inputs": [
        {
          "internalType": "address",
          "name": "",
          "type": "address"
        }
      ],
      "name": "isListedPool",
      "outputs": [
        {
          "internalType": "bool",
          "name": "",
          "type": "bool"
        }
      ],
      "stateMutability": "view",
      "type": "function"
    },
    {
      "inputs": [
        {
          "internalType": "address",
          "name": "pool",
          "type": "address"
        }
      ],
      "name": "isPool",
      "outputs": [
        {
          "internalType": "bool",
          "name": "",
          "type": "bool"
        }
      ],
      "stateMutability": "view",
      "type": "function"
    },
    {
      "inputs": [],
      "name": "poolCount",
      "outputs": [
        {
          "internalType": "uint256",
          "name": "",
          "type": "uint256"
        }
      ],
      "stateMutability": "view",
      "type": "function"
    },
    {
      "inputs": [],
      "name": "purgeDeployer",
      "outputs": [],
      "stateMutability": "nonpayable",
      "type": "function"
    },
    {
      "inputs": [
        {
          "internalType": "address",
          "name": "token",
          "type": "address"
        }
      ],
      "name": "removeCuratedPool",
      "outputs": [],
      "stateMutability": "nonpayable",
      "type": "function"
    },
    {
      "inputs": [],
      "name": "tokenCount",
      "outputs": [
        {
          "internalType": "uint256",
          "name": "",
          "type": "uint256"
        }
      ],
      "stateMutability": "view",
      "type": "function"
    }
  ],
  "bytecode": "0x60806040523480156200001157600080fd5b50604051620094c0380380620094c0833981810160405281019062000037919062000120565b816000806101000a81548173ffffffffffffffffffffffffffffffffffffffff021916908373ffffffffffffffffffffffffffffffffffffffff16021790555080600160006101000a81548173ffffffffffffffffffffffffffffffffffffffff021916908373ffffffffffffffffffffffffffffffffffffffff160217905550600a60038190555033600260006101000a81548173ffffffffffffffffffffffffffffffffffffffff021916908373ffffffffffffffffffffffffffffffffffffffff1602179055505050620001af565b6000815190506200011a8162000195565b92915050565b600080604083850312156200013457600080fd5b6000620001448582860162000109565b9250506020620001578582860162000109565b9150509250929050565b60006200016e8262000175565b9050919050565b600073ffffffffffffffffffffffffffffffffffffffff82169050919050565b620001a08162000161565b8114620001ac57600080fd5b50565b61930180620001bf6000396000f3fe6080604052600436106200012e5760003560e01c80639049f9d211620000af578063c1b8411a116200006d578063c1b8411a1462000459578063cb6695541462000489578063e4b50cb814620004bf578063ec342ad01462000503578063f525cb681462000533576200012e565b80639049f9d214620003195780639d840482146200035d5780639f181b5e14620003a1578063a432fd2a14620003d1578063bbe4f6db1462000415576200012e565b80635b16ebb711620000fd5780635b16ebb714620001ef5780637ca51fbf14620002335780638dcb4c9314620002615780638dd9500214620002a55780638e8093d614620002d5576200012e565b806303a82138146200013357806317985461146200014d5780632b2260a814620001915780634a0ff5d714620001bf575b600080fd5b3480156200014057600080fd5b506200014b62000563565b005b3480156200015a57600080fd5b5062000179600480360381019062000173919062001eb4565b620006c3565b6040516200018891906200200f565b60405180910390f35b3480156200019e57600080fd5b50620001bd6004803603810190620001b7919062001e04565b62000703565b005b348015620001cc57600080fd5b50620001d762000a2e565b604051620001e69190620020f7565b60405180910390f35b348015620001fc57600080fd5b506200021b600480360381019062000215919062001e04565b62000a34565b6040516200022a919062002096565b60405180910390f35b3480156200024057600080fd5b506200025f600480360381019062000259919062001e04565b62000aa4565b005b3480156200026e57600080fd5b506200028d600480360381019062000287919062001e04565b62000d7f565b6040516200029c919062002096565b60405180910390f35b348015620002b257600080fd5b50620002bd62000d9f565b604051620002cc91906200200f565b60405180910390f35b348015620002e257600080fd5b50620003016004803603810190620002fb919062001eb4565b62000dc5565b6040516200031091906200200f565b60405180910390f35b3480156200032657600080fd5b506200034560048036038101906200033f919062001e04565b62000e34565b6040516200035491906200200f565b60405180910390f35b3480156200036a57600080fd5b5062000389600480360381019062000383919062001eb4565b62001255565b6040516200039891906200200f565b60405180910390f35b348015620003ae57600080fd5b50620003b962001295565b604051620003c89190620020f7565b60405180910390f35b348015620003de57600080fd5b50620003fd6004803603810190620003f7919062001e04565b620012a2565b6040516200040c919062002096565b60405180910390f35b3480156200042257600080fd5b506200044160048036038101906200043b919062001e04565b620012c2565b6040516200045091906200200f565b60405180910390f35b3480156200046657600080fd5b5062000471620013eb565b6040516200048091906200200f565b60405180910390f35b620004a76004803603810190620004a1919062001f0c565b62001411565b604051620004b691906200200f565b60405180910390f35b348015620004cc57600080fd5b50620004eb6004803603810190620004e5919062001eb4565b6200192d565b604051620004fa91906200200f565b60405180910390f35b3480156200051057600080fd5b506200051b6200199c565b6040516200052a91906200200f565b60405180910390f35b3480156200054057600080fd5b506200054b620019c0565b6040516200055a9190620020f7565b60405180910390f35b600260009054906101000a900473ffffffffffffffffffffffffffffffffffffffff1673ffffffffffffffffffffffffffffffffffffffff163373ffffffffffffffffffffffffffffffffffffffff161480620006755750620005c5620019cd565b73ffffffffffffffffffffffffffffffffffffffff166398fabd3a6040518163ffffffff1660e01b815260040160206040518083038186803b1580156200060b57600080fd5b505afa15801562000620573d6000803e3d6000fd5b505050506040513d601f19601f8201168201806040525081019062000646919062001e30565b73ffffffffffffffffffffffffffffffffffffffff163373ffffffffffffffffffffffffffffffffffffffff16145b6200067f57600080fd5b6000600260006101000a81548173ffffffffffffffffffffffffffffffffffffffff021916908373ffffffffffffffffffffffffffffffffffffffff160217905550565b60058181548110620006d457600080fd5b906000526020600020016000915054906101000a900473ffffffffffffffffffffffffffffffffffffffff1681565b600260009054906101000a900473ffffffffffffffffffffffffffffffffffffffff1673ffffffffffffffffffffffffffffffffffffffff163373ffffffffffffffffffffffffffffffffffffffff16148062000815575062000765620019cd565b73ffffffffffffffffffffffffffffffffffffffff166398fabd3a6040518163ffffffff1660e01b815260040160206040518083038186803b158015620007ab57600080fd5b505afa158015620007c0573d6000803e3d6000fd5b505050506040513d601f19601f82011682018060405250810190620007e6919062001e30565b73ffffffffffffffffffffffffffffffffffffffff163373ffffffffffffffffffffffffffffffffffffffff16145b6200081f57600080fd5b60008054906101000a900473ffffffffffffffffffffffffffffffffffffffff1673ffffffffffffffffffffffffffffffffffffffff168173ffffffffffffffffffffffffffffffffffffffff1614156200087957600080fd5b60006200088682620012c2565b905060011515600760008373ffffffffffffffffffffffffffffffffffffffff1673ffffffffffffffffffffffffffffffffffffffff16815260200190815260200160002060009054906101000a900460ff16151514620008e657600080fd5b600354620008f362001a77565b1062000936576040517f08c379a00000000000000000000000000000000000000000000000000000000081526004016200092d90620020d5565b60405180910390fd5b6001600860008373ffffffffffffffffffffffffffffffffffffffff1673ffffffffffffffffffffffffffffffffffffffff16815260200190815260200160002060006101000a81548160ff0219169083151502179055508073ffffffffffffffffffffffffffffffffffffffff167ff2ce7d51fff9004a3fee031d20aad278751f0e646a99c3154ba1b345d34c7d94600860008473ffffffffffffffffffffffffffffffffffffffff1673ffffffffffffffffffffffffffffffffffffffff16815260200190815260200160002060009054906101000a900460ff1660405162000a22919062002096565b60405180910390a25050565b60035481565b600060011515600760008473ffffffffffffffffffffffffffffffffffffffff1673ffffffffffffffffffffffffffffffffffffffff16815260200190815260200160002060009054906101000a900460ff161515141562000a9a576001905062000a9f565b600090505b919050565b600260009054906101000a900473ffffffffffffffffffffffffffffffffffffffff1673ffffffffffffffffffffffffffffffffffffffff163373ffffffffffffffffffffffffffffffffffffffff16148062000bb6575062000b06620019cd565b73ffffffffffffffffffffffffffffffffffffffff166398fabd3a6040518163ffffffff1660e01b815260040160206040518083038186803b15801562000b4c57600080fd5b505afa15801562000b61573d6000803e3d6000fd5b505050506040513d601f19601f8201168201806040525081019062000b87919062001e30565b73ffffffffffffffffffffffffffffffffffffffff163373ffffffffffffffffffffffffffffffffffffffff16145b62000bc057600080fd5b60008054906101000a900473ffffffffffffffffffffffffffffffffffffffff1673ffffffffffffffffffffffffffffffffffffffff168173ffffffffffffffffffffffffffffffffffffffff16141562000c1a57600080fd5b600062000c2782620012c2565b905060011515600860008373ffffffffffffffffffffffffffffffffffffffff1673ffffffffffffffffffffffffffffffffffffffff16815260200190815260200160002060009054906101000a900460ff1615151462000c8757600080fd5b6000600860008373ffffffffffffffffffffffffffffffffffffffff1673ffffffffffffffffffffffffffffffffffffffff16815260200190815260200160002060006101000a81548160ff0219169083151502179055508073ffffffffffffffffffffffffffffffffffffffff167f66b36fd537e52b8efcf051f0c4247b20ec1d8af2915081de3b8869512606f081600860008473ffffffffffffffffffffffffffffffffffffffff1673ffffffffffffffffffffffffffffffffffffffff16815260200190815260200160002060009054906101000a900460ff1660405162000d73919062002096565b60405180910390a25050565b60086020528060005260406000206000915054906101000a900460ff1681565b600160009054906101000a900473ffffffffffffffffffffffffffffffffffffffff1681565b60006004828154811062000e02577f4e487b7100000000000000000000000000000000000000000000000000000000600052603260045260246000fd5b9060005260206000200160009054906101000a900473ffffffffffffffffffffffffffffffffffffffff169050919050565b6000600260009054906101000a900473ffffffffffffffffffffffffffffffffffffffff1673ffffffffffffffffffffffffffffffffffffffff163373ffffffffffffffffffffffffffffffffffffffff16148062000f48575062000e98620019cd565b73ffffffffffffffffffffffffffffffffffffffff166398fabd3a6040518163ffffffff1660e01b815260040160206040518083038186803b15801562000ede57600080fd5b505afa15801562000ef3573d6000803e3d6000fd5b505050506040513d601f19601f8201168201806040525081019062000f19919062001e30565b73ffffffffffffffffffffffffffffffffffffffff163373ffffffffffffffffffffffffffffffffffffffff16145b62000f5257600080fd5b600073ffffffffffffffffffffffffffffffffffffffff1662000f7583620012c2565b73ffffffffffffffffffffffffffffffffffffffff161462000f9657600080fd5b600080839050600073ffffffffffffffffffffffffffffffffffffffff168473ffffffffffffffffffffffffffffffffffffffff16141562000ff857600160009054906101000a900473ffffffffffffffffffffffffffffffffffffffff1690505b60008054906101000a900473ffffffffffffffffffffffffffffffffffffffff1681604051620010289062001d55565b620010359291906200202c565b604051809103906000f08015801562001052573d6000803e3d6000fd5b50915081925082600660008373ffffffffffffffffffffffffffffffffffffffff1673ffffffffffffffffffffffffffffffffffffffff16815260200190815260200160002060006101000a81548173ffffffffffffffffffffffffffffffffffffffff021916908373ffffffffffffffffffffffffffffffffffffffff1602179055506004839080600181540180825580915050600190039060005260206000200160009091909190916101000a81548173ffffffffffffffffffffffffffffffffffffffff021916908373ffffffffffffffffffffffffffffffffffffffff1602179055506005819080600181540180825580915050600190039060005260206000200160009091909190916101000a81548173ffffffffffffffffffffffffffffffffffffffff021916908373ffffffffffffffffffffffffffffffffffffffff1602179055506001600760008573ffffffffffffffffffffffffffffffffffffffff1673ffffffffffffffffffffffffffffffffffffffff16815260200190815260200160002060006101000a81548160ff0219169083151502179055508273ffffffffffffffffffffffffffffffffffffffff168473ffffffffffffffffffffffffffffffffffffffff167fdbd2a1ea6808362e6adbec4db4969cbc11e3b0b28fb6c74cb342defaaf1daada60405160405180910390a35050919050565b600481815481106200126657600080fd5b906000526020600020016000915054906101000a900473ffffffffffffffffffffffffffffffffffffffff1681565b6000600580549050905090565b60076020528060005260406000206000915054906101000a900460ff1681565b60008073ffffffffffffffffffffffffffffffffffffffff168273ffffffffffffffffffffffffffffffffffffffff161415620013835760066000600160009054906101000a900473ffffffffffffffffffffffffffffffffffffffff1673ffffffffffffffffffffffffffffffffffffffff1673ffffffffffffffffffffffffffffffffffffffff16815260200190815260200160002060009054906101000a900473ffffffffffffffffffffffffffffffffffffffff169050620013e6565b600660008373ffffffffffffffffffffffffffffffffffffffff1673ffffffffffffffffffffffffffffffffffffffff16815260200190815260200160002060009054906101000a900473ffffffffffffffffffffffffffffffffffffffff1690505b919050565b600260009054906101000a900473ffffffffffffffffffffffffffffffffffffffff1681565b60008073ffffffffffffffffffffffffffffffffffffffff166200143583620012c2565b73ffffffffffffffffffffffffffffffffffffffff16146200145657600080fd5b60008311801562001471575069021e19e0c9bab24000008410155b620014b3576040517f08c379a0000000000000000000000000000000000000000000000000000000008152600401620014aa90620020b3565b60405180910390fd5b600080839050600073ffffffffffffffffffffffffffffffffffffffff168473ffffffffffffffffffffffffffffffffffffffff1614156200151557600160009054906101000a900473ffffffffffffffffffffffffffffffffffffffff1690505b60008054906101000a900473ffffffffffffffffffffffffffffffffffffffff1673ffffffffffffffffffffffffffffffffffffffff168173ffffffffffffffffffffffffffffffffffffffff1614158015620015f6575060128173ffffffffffffffffffffffffffffffffffffffff1663313ce5676040518163ffffffff1660e01b815260040160206040518083038186803b158015620015b657600080fd5b505afa158015620015cb573d6000803e3d6000fd5b505050506040513d601f19601f82011682018060405250810190620015f1919062001f62565b60ff16145b6200160057600080fd5b60008054906101000a900473ffffffffffffffffffffffffffffffffffffffff1681604051620016309062001d55565b6200163d9291906200202c565b604051809103906000f0801580156200165a573d6000803e3d6000fd5b50915081925082600660008373ffffffffffffffffffffffffffffffffffffffff1673ffffffffffffffffffffffffffffffffffffffff16815260200190815260200160002060006101000a81548173ffffffffffffffffffffffffffffffffffffffff021916908373ffffffffffffffffffffffffffffffffffffffff1602179055506200170b60008054906101000a900473ffffffffffffffffffffffffffffffffffffffff16878562001b7a565b506200171984868562001b7a565b506004839080600181540180825580915050600190039060005260206000200160009091909190916101000a81548173ffffffffffffffffffffffffffffffffffffffff021916908373ffffffffffffffffffffffffffffffffffffffff1602179055506005819080600181540180825580915050600190039060005260206000200160009091909190916101000a81548173ffffffffffffffffffffffffffffffffffffffff021916908373ffffffffffffffffffffffffffffffffffffffff1602179055506001600760008573ffffffffffffffffffffffffffffffffffffffff1673ffffffffffffffffffffffffffffffffffffffff16815260200190815260200160002060006101000a81548160ff0219169083151502179055508273ffffffffffffffffffffffffffffffffffffffff166386d5f618336040518263ffffffff1660e01b81526004016200187391906200200f565b602060405180830381600087803b1580156200188e57600080fd5b505af1158015620018a3573d6000803e3d6000fd5b505050506040513d601f19601f82011682018060405250810190620018c9919062001ee0565b508273ffffffffffffffffffffffffffffffffffffffff168473ffffffffffffffffffffffffffffffffffffffff167fdbd2a1ea6808362e6adbec4db4969cbc11e3b0b28fb6c74cb342defaaf1daada60405160405180910390a350509392505050565b6000600582815481106200196a577f4e487b7100000000000000000000000000000000000000000000000000000000600052603260045260246000fd5b9060005260206000200160009054906101000a900473ffffffffffffffffffffffffffffffffffffffff169050919050565b60008054906101000a900473ffffffffffffffffffffffffffffffffffffffff1681565b6000600480549050905090565b60008060009054906101000a900473ffffffffffffffffffffffffffffffffffffffff1673ffffffffffffffffffffffffffffffffffffffff166398fabd3a6040518163ffffffff1660e01b815260040160206040518083038186803b15801562001a3757600080fd5b505afa15801562001a4c573d6000803e3d6000fd5b505050506040513d601f19601f8201168201806040525081019062001a72919062001e88565b905090565b60008060005b60048054905081101562001b725760011515600860006004848154811062001ace577f4e487b7100000000000000000000000000000000000000000000000000000000600052603260045260246000fd5b9060005260206000200160009054906101000a900473ffffffffffffffffffffffffffffffffffffffff1673ffffffffffffffffffffffffffffffffffffffff1673ffffffffffffffffffffffffffffffffffffffff16815260200190815260200160002060009054906101000a900460ff161515141562001b5c5760018262001b59919062002125565b91505b808062001b699062002228565b91505062001a7d565b508091505090565b60008083111562001d4e5760008473ffffffffffffffffffffffffffffffffffffffff166370a08231846040518263ffffffff1660e01b815260040162001bc291906200200f565b60206040518083038186803b15801562001bdb57600080fd5b505afa15801562001bf0573d6000803e3d6000fd5b505050506040513d601f19601f8201168201806040525081019062001c16919062001ee0565b90508473ffffffffffffffffffffffffffffffffffffffff166323b872dd3385876040518463ffffffff1660e01b815260040162001c579392919062002059565b602060405180830381600087803b15801562001c7257600080fd5b505af115801562001c87573d6000803e3d6000fd5b505050506040513d601f19601f8201168201806040525081019062001cad919062001e5c565b50808573ffffffffffffffffffffffffffffffffffffffff166370a08231856040518263ffffffff1660e01b815260040162001cea91906200200f565b60206040518083038186803b15801562001d0357600080fd5b505afa15801562001d18573d6000803e3d6000fd5b505050506040513d601f19601f8201168201806040525081019062001d3e919062001ee0565b62001d4a919062002182565b9150505b9392505050565b616f52806200237a83390190565b60008135905062001d7481620022f7565b92915050565b60008151905062001d8b81620022f7565b92915050565b60008151905062001da28162002311565b92915050565b60008151905062001db9816200232b565b92915050565b60008135905062001dd08162002345565b92915050565b60008151905062001de78162002345565b92915050565b60008151905062001dfe816200235f565b92915050565b60006020828403121562001e1757600080fd5b600062001e278482850162001d63565b91505092915050565b60006020828403121562001e4357600080fd5b600062001e538482850162001d7a565b91505092915050565b60006020828403121562001e6f57600080fd5b600062001e7f8482850162001d91565b91505092915050565b60006020828403121562001e9b57600080fd5b600062001eab8482850162001da8565b91505092915050565b60006020828403121562001ec757600080fd5b600062001ed78482850162001dbf565b91505092915050565b60006020828403121562001ef357600080fd5b600062001f038482850162001dd6565b91505092915050565b60008060006060848603121562001f2257600080fd5b600062001f328682870162001dbf565b935050602062001f458682870162001dbf565b925050604062001f588682870162001d63565b9150509250925092565b60006020828403121562001f7557600080fd5b600062001f858482850162001ded565b91505092915050565b62001f9981620021bd565b82525050565b62001faa81620021d1565b82525050565b600062001fbf60088362002114565b915062001fcc82620022a5565b602082019050919050565b600062001fe6600a8362002114565b915062001ff382620022ce565b602082019050919050565b620020098162002211565b82525050565b600060208201905062002026600083018462001f8e565b92915050565b600060408201905062002043600083018562001f8e565b62002052602083018462001f8e565b9392505050565b600060608201905062002070600083018662001f8e565b6200207f602083018562001f8e565b6200208e604083018462001ffe565b949350505050565b6000602082019050620020ad600083018462001f9f565b92915050565b60006020820190508181036000830152620020ce8162001fb0565b9050919050565b60006020820190508181036000830152620020f08162001fd7565b9050919050565b60006020820190506200210e600083018462001ffe565b92915050565b600082825260208201905092915050565b6000620021328262002211565b91506200213f8362002211565b9250827fffffffffffffffffffffffffffffffffffffffffffffffffffffffffffffffff0382111562002177576200217662002276565b5b828201905092915050565b60006200218f8262002211565b91506200219c8362002211565b925082821015620021b257620021b162002276565b5b828203905092915050565b6000620021ca82620021f1565b9050919050565b60008115159050919050565b6000620021ea82620021bd565b9050919050565b600073ffffffffffffffffffffffffffffffffffffffff82169050919050565b6000819050919050565b600060ff82169050919050565b6000620022358262002211565b91507fffffffffffffffffffffffffffffffffffffffffffffffffffffffffffffffff8214156200226b576200226a62002276565b5b600182019050919050565b7f4e487b7100000000000000000000000000000000000000000000000000000000600052601160045260246000fd5b7f214d696e696d756d000000000000000000000000000000000000000000000000600082015250565b7f21417661696c61626c6500000000000000000000000000000000000000000000600082015250565b6200230281620021bd565b81146200230e57600080fd5b50565b6200231c81620021d1565b81146200232857600080fd5b50565b6200233681620021dd565b81146200234257600080fd5b50565b620023508162002211565b81146200235c57600080fd5b50565b6200236a816200221b565b81146200237657600080fd5b5056fe60806040523480156200001157600080fd5b5060405162006f5238038062006f52833981810160405281019062000037919062000457565b816000806101000a81548173ffffffffffffffffffffffffffffffffffffffff021916908373ffffffffffffffffffffffffffffffffffffffff16021790555080600160006101000a81548173ffffffffffffffffffffffffffffffffffffffff021916908373ffffffffffffffffffffffffffffffffffffffff16021790555060006040518060400160405280601481526020017f2d5370617274616e50726f746f636f6c506f6f6c000000000000000000000000815250905060006040518060400160405280600481526020017f2d5350500000000000000000000000000000000000000000000000000000000081525090508273ffffffffffffffffffffffffffffffffffffffff166306fdde036040518163ffffffff1660e01b815260040160006040518083038186803b1580156200017357600080fd5b505afa15801562000188573d6000803e3d6000fd5b505050506040513d6000823e3d601f19601f82011682018060405250810190620001b3919062000498565b82604051602001620001c792919062000514565b60405160208183030381529060405260039080519060200190620001ed9291906200031e565b508273ffffffffffffffffffffffffffffffffffffffff166395d89b416040518163ffffffff1660e01b815260040160006040518083038186803b1580156200023557600080fd5b505afa1580156200024a573d6000803e3d6000fd5b505050506040513d6000823e3d601f19601f8201168201806040525081019062000275919062000498565b816040516020016200028992919062000514565b60405160208183030381529060405260049080519060200190620002af9291906200031e565b506012600560006101000a81548160ff021916908360ff16021790555042600c8190555033600260006101000a81548173ffffffffffffffffffffffffffffffffffffffff021916908373ffffffffffffffffffffffffffffffffffffffff1602179055505050505062000710565b8280546200032c906200061b565b90600052602060002090601f0160209004810192826200035057600085556200039c565b82601f106200036b57805160ff19168380011785556200039c565b828001600101855582156200039c579182015b828111156200039b5782518255916020019190600101906200037e565b5b509050620003ab9190620003af565b5090565b5b80821115620003ca576000816000905550600101620003b0565b5090565b6000620003e5620003df8462000565565b6200053c565b905082815260208101848484011115620003fe57600080fd5b6200040b848285620005e5565b509392505050565b6000815190506200042481620006f6565b92915050565b600082601f8301126200043c57600080fd5b81516200044e848260208601620003ce565b91505092915050565b600080604083850312156200046b57600080fd5b60006200047b8582860162000413565b92505060206200048e8582860162000413565b9150509250929050565b600060208284031215620004ab57600080fd5b600082015167ffffffffffffffff811115620004c657600080fd5b620004d4848285016200042a565b91505092915050565b6000620004ea826200059b565b620004f68185620005a6565b935062000508818560208601620005e5565b80840191505092915050565b6000620005228285620004dd565b9150620005308284620004dd565b91508190509392505050565b6000620005486200055b565b905062000556828262000651565b919050565b6000604051905090565b600067ffffffffffffffff821115620005835762000582620006b6565b5b6200058e82620006e5565b9050602081019050919050565b600081519050919050565b600081905092915050565b6000620005be82620005c5565b9050919050565b600073ffffffffffffffffffffffffffffffffffffffff82169050919050565b60005b8381101562000605578082015181840152602081019050620005e8565b8381111562000615576000848401525b50505050565b600060028204905060018216806200063457607f821691505b602082108114156200064b576200064a62000687565b5b50919050565b6200065c82620006e5565b810181811067ffffffffffffffff821117156200067e576200067d620006b6565b5b80604052505050565b7f4e487b7100000000000000000000000000000000000000000000000000000000600052602260045260246000fd5b7f4e487b7100000000000000000000000000000000000000000000000000000000600052604160045260246000fd5b6000601f19601f8301169050919050565b6200070181620005b1565b81146200070d57600080fd5b50565b61683280620007206000396000f3fe6080604052600436106102045760003560e01c806379cc679011610118578063a9059cbb116100a0578063dd62ed3e1161006f578063dd62ed3e1461082a578063ec342ad014610867578063eec7faa114610892578063f0337cdc146108bd578063fff6cae9146108fa57610204565b8063a9059cbb14610747578063bc5dedc914610784578063c1b8411a146107c2578063cae9ca51146107ed57610204565b806390569e85116100e757806390569e851461064a57806395d89b4114610688578063a457c2d7146106b3578063a7f0b3de146106f0578063a7f437791461071b57610204565b806379cc67901461057b57806382bfefc8146105a457806386d5f618146105cf5780638ae8ab3a1461060c57610204565b8063313ce5671161019b5780634864d1401161016a5780634864d140146104925780634f2be91f146104bd5780635f83e5d5146104e857806370a0823114610513578063752d77931461055057610204565b8063313ce567146103c457806339509351146103ef5780634000aea01461042c57806342966c681461046957610204565b806318160ddd116101d757806318160ddd146102ed578063234fb75d1461031857806323b872dd146103565780632783e4a91461039357610204565b806303438dd014610209578063055635021461024757806306fdde0314610285578063095ea7b3146102b0575b600080fd5b34801561021557600080fd5b50610230600480360381019061022b9190615d1f565b610911565b60405161023e92919061635f565b60405180910390f35b34801561025357600080fd5b5061026e60048036038101906102699190615ecd565b61092b565b60405161027c92919061635f565b60405180910390f35b34801561029157600080fd5b5061029a6113bf565b6040516102a791906161eb565b60405180910390f35b3480156102bc57600080fd5b506102d760048036038101906102d29190615dfc565b611451565b6040516102e491906161d0565b60405180910390f35b3480156102f957600080fd5b50610302611468565b60405161030f919061630d565b60405180910390f35b34801561032457600080fd5b5061033f600480360381019061033a9190615ecd565b61146e565b60405161034d92919061635f565b60405180910390f35b34801561036257600080fd5b5061037d60048036038101906103789190615dad565b612170565b60405161038a91906161d0565b60405180910390f35b6103ad60048036038101906103a89190615d71565b612308565b6040516103bb92919061635f565b60405180910390f35b3480156103d057600080fd5b506103d96125e3565b6040516103e69190616412565b60405180910390f35b3480156103fb57600080fd5b5061041660048036038101906104119190615dfc565b6125f6565b60405161042391906161d0565b60405180910390f35b34801561043857600080fd5b50610453600480360381019061044e9190615e38565b612694565b60405161046091906161d0565b60405180910390f35b34801561047557600080fd5b50610490600480360381019061048b9190615f32565b612720565b005b34801561049e57600080fd5b506104a761272d565b6040516104b4919061630d565b60405180910390f35b3480156104c957600080fd5b506104d2612733565b6040516104df919061630d565b60405180910390f35b3480156104f457600080fd5b506104fd612743565b60405161050a919061630d565b60405180910390f35b34801561051f57600080fd5b5061053a60048036038101906105359190615d1f565b612749565b604051610547919061630d565b60405180910390f35b34801561055c57600080fd5b50610565612792565b604051610572919061630d565b60405180910390f35b34801561058757600080fd5b506105a2600480360381019061059d9190615dfc565b612798565b005b3480156105b057600080fd5b506105b96127cb565b6040516105c6919061613e565b60405180910390f35b3480156105db57600080fd5b506105f660048036038101906105f19190615d1f565b6127f1565b604051610603919061630d565b60405180910390f35b34801561061857600080fd5b50610633600480360381019061062e9190615ecd565b612994565b60405161064192919061635f565b60405180910390f35b34801561065657600080fd5b50610671600480360381019061066c9190615ecd565b613542565b60405161067f92919061635f565b60405180910390f35b34801561069457600080fd5b5061069d6140ee565b6040516106aa91906161eb565b60405180910390f35b3480156106bf57600080fd5b506106da60048036038101906106d59190615dfc565b614180565b6040516106e791906161d0565b60405180910390f35b3480156106fc57600080fd5b50610705614266565b604051610712919061630d565b60405180910390f35b34801561072757600080fd5b5061073061426c565b60405161073e92919061635f565b60405180910390f35b34801561075357600080fd5b5061076e60048036038101906107699190615dfc565b614280565b60405161077b91906161d0565b60405180910390f35b34801561079057600080fd5b506107ab60048036038101906107a69190615d1f565b614297565b6040516107b992919061635f565b60405180910390f35b3480156107ce57600080fd5b506107d76146d9565b6040516107e4919061613e565b60405180910390f35b3480156107f957600080fd5b50610814600480360381019061080f9190615e38565b6146ff565b60405161082191906161d0565b60405180910390f35b34801561083657600080fd5b50610851600480360381019061084c9190615d71565b6147ab565b60405161085e919061630d565b60405180910390f35b34801561087357600080fd5b5061087c614832565b604051610889919061613e565b60405180910390f35b34801561089e57600080fd5b506108a7614856565b6040516108b4919061630d565b60405180910390f35b3480156108c957600080fd5b506108e460048036038101906108df9190615f32565b61485c565b6040516108f1919061630d565b60405180910390f35b34801561090657600080fd5b5061090f614880565b005b60008061091e8333612308565b8092508193505050915091565b60008060006109386149e2565b73ffffffffffffffffffffffffffffffffffffffff1663b93ec54b6040518163ffffffff1660e01b815260040160206040518083038186803b15801561097d57600080fd5b505afa158015610991573d6000803e3d6000fd5b505050506040513d601f19601f820116820180604052508101906109b59190615d48565b73ffffffffffffffffffffffffffffffffffffffff1663dcec811660008054906101000a900473ffffffffffffffffffffffffffffffffffffffff166040518263ffffffff1660e01b8152600401610a0d919061613e565b60206040518083038186803b158015610a2557600080fd5b505afa158015610a39573d6000803e3d6000fd5b505050506040513d601f19601f82011682018060405250810190610a5d9190615d48565b905060008060011515610a6e6149e2565b73ffffffffffffffffffffffffffffffffffffffff1663b93ec54b6040518163ffffffff1660e01b815260040160206040518083038186803b158015610ab357600080fd5b505afa158015610ac7573d6000803e3d6000fd5b505050506040513d601f19601f82011682018060405250810190610aeb9190615d48565b73ffffffffffffffffffffffffffffffffffffffff16635e0237ea856040518263ffffffff1660e01b8152600401610b23919061613e565b60206040518083038186803b158015610b3b57600080fd5b505afa158015610b4f573d6000803e3d6000fd5b505050506040513d601f19601f82011682018060405250810190610b739190615ea4565b151514610bb5576040517f08c379a0000000000000000000000000000000000000000000000000000000008152600401610bac906162ad565b60405180910390fd5b8615610f3657610bc3614a88565b9050610bcd6149e2565b73ffffffffffffffffffffffffffffffffffffffff16637b0e5c456040518163ffffffff1660e01b815260040160206040518083038186803b158015610c1257600080fd5b505afa158015610c26573d6000803e3d6000fd5b505050506040513d601f19601f82011682018060405250810190610c4a9190615d48565b73ffffffffffffffffffffffffffffffffffffffff1663701baaf3826009546009546040518463ffffffff1660e01b8152600401610c8a93929190616388565b60206040518083038186803b158015610ca257600080fd5b505afa158015610cb6573d6000803e3d6000fd5b505050506040513d601f19601f82011682018060405250810190610cda9190615f5b565b9450610ce46149e2565b73ffffffffffffffffffffffffffffffffffffffff16637b0e5c456040518163ffffffff1660e01b815260040160206040518083038186803b158015610d2957600080fd5b505afa158015610d3d573d6000803e3d6000fd5b505050506040513d601f19601f82011682018060405250810190610d619190615d48565b73ffffffffffffffffffffffffffffffffffffffff16639355ea4d8260008054906101000a900473ffffffffffffffffffffffffffffffffffffffff16306040518463ffffffff1660e01b8152600401610dbd93929190616328565b60206040518083038186803b158015610dd557600080fd5b505afa158015610de9573d6000803e3d6000fd5b505050506040513d601f19601f82011682018060405250810190610e0d9190615f5b565b9150610e1a816000614b5e565b610e226149e2565b73ffffffffffffffffffffffffffffffffffffffff16637b0e5c456040518163ffffffff1660e01b815260040160206040518083038186803b158015610e6757600080fd5b505afa158015610e7b573d6000803e3d6000fd5b505050506040513d601f19601f82011682018060405250810190610e9f9190615d48565b73ffffffffffffffffffffffffffffffffffffffff1663896a708c826009546009546040518463ffffffff1660e01b8152600401610edf93929190616388565b60206040518083038186803b158015610ef757600080fd5b505afa158015610f0b573d6000803e3d6000fd5b505050506040513d601f19601f82011682018060405250810190610f2f9190615f5b565b93506112af565b610f3e614b94565b9050610f486149e2565b73ffffffffffffffffffffffffffffffffffffffff16637b0e5c456040518163ffffffff1660e01b815260040160206040518083038186803b158015610f8d57600080fd5b505afa158015610fa1573d6000803e3d6000fd5b505050506040513d601f19601f82011682018060405250810190610fc59190615d48565b73ffffffffffffffffffffffffffffffffffffffff1663701baaf382600a546009546040518463ffffffff1660e01b815260040161100593929190616388565b60206040518083038186803b15801561101d57600080fd5b505afa158015611031573d6000803e3d6000fd5b505050506040513d601f19601f820116820180604052508101906110559190615f5b565b945061105f6149e2565b73ffffffffffffffffffffffffffffffffffffffff16637b0e5c456040518163ffffffff1660e01b815260040160206040518083038186803b1580156110a457600080fd5b505afa1580156110b8573d6000803e3d6000fd5b505050506040513d601f19601f820116820180604052508101906110dc9190615d48565b73ffffffffffffffffffffffffffffffffffffffff16639355ea4d82600160009054906101000a900473ffffffffffffffffffffffffffffffffffffffff16306040518463ffffffff1660e01b815260040161113a93929190616328565b60206040518083038186803b15801561115257600080fd5b505afa158015611166573d6000803e3d6000fd5b505050506040513d601f19601f8201168201806040525081019061118a9190615f5b565b9150611197600082614b5e565b61119f6149e2565b73ffffffffffffffffffffffffffffffffffffffff16637b0e5c456040518163ffffffff1660e01b815260040160206040518083038186803b1580156111e457600080fd5b505afa1580156111f8573d6000803e3d6000fd5b505050506040513d601f19601f8201168201806040525081019061121c9190615d48565b73ffffffffffffffffffffffffffffffffffffffff1663896a708c82600a546009546040518463ffffffff1660e01b815260040161125c93929190616388565b60206040518083038186803b15801561127457600080fd5b505afa158015611288573d6000803e3d6000fd5b505050506040513d601f19601f820116820180604052508101906112ac9190615f5b565b93505b6112b98383614c6c565b8273ffffffffffffffffffffffffffffffffffffffff166332f302e387876040518363ffffffff1660e01b81526004016112f4929190616159565b602060405180830381600087803b15801561130e57600080fd5b505af1158015611322573d6000803e3d6000fd5b505050506040513d601f19601f820116820180604052508101906113469190615f5b565b5061135084614db5565b8273ffffffffffffffffffffffffffffffffffffffff168673ffffffffffffffffffffffffffffffffffffffff167f1b2c9a630ce8fefb20a1c90ae6958ba59ea71088689d1a9029064223231d46dd876040516113ad919061630d565b60405180910390a35050509250929050565b6060600380546113ce906165b7565b80601f01602080910402602001604051908101604052809291908181526020018280546113fa906165b7565b80156114475780601f1061141c57610100808354040283529160200191611447565b820191906000526020600020905b81548152906001019060200180831161142a57829003601f168201915b5050505050905090565b600061145e338484614e45565b6001905092915050565b60065481565b600080600061147b6149e2565b73ffffffffffffffffffffffffffffffffffffffff1663b93ec54b6040518163ffffffff1660e01b815260040160206040518083038186803b1580156114c057600080fd5b505afa1580156114d4573d6000803e3d6000fd5b505050506040513d601f19601f820116820180604052508101906114f89190615d48565b73ffffffffffffffffffffffffffffffffffffffff1663dcec8116600160009054906101000a900473ffffffffffffffffffffffffffffffffffffffff166040518263ffffffff1660e01b8152600401611552919061613e565b60206040518083038186803b15801561156a57600080fd5b505afa15801561157e573d6000803e3d6000fd5b505050506040513d601f19601f820116820180604052508101906115a29190615d48565b9050600080600115156115b36149e2565b73ffffffffffffffffffffffffffffffffffffffff1663b93ec54b6040518163ffffffff1660e01b815260040160206040518083038186803b1580156115f857600080fd5b505afa15801561160c573d6000803e3d6000fd5b505050506040513d601f19601f820116820180604052508101906116309190615d48565b73ffffffffffffffffffffffffffffffffffffffff16635e0237ea856040518263ffffffff1660e01b8152600401611668919061613e565b60206040518083038186803b15801561168057600080fd5b505afa158015611694573d6000803e3d6000fd5b505050506040513d601f19601f820116820180604052508101906116b89190615ea4565b1515146116fa576040517f08c379a00000000000000000000000000000000000000000000000000000000081526004016116f1906162ad565b60405180910390fd5b8615611bb157611708614a88565b90506117126149e2565b73ffffffffffffffffffffffffffffffffffffffff16637b0e5c456040518163ffffffff1660e01b815260040160206040518083038186803b15801561175757600080fd5b505afa15801561176b573d6000803e3d6000fd5b505050506040513d601f19601f8201168201806040525081019061178f9190615d48565b73ffffffffffffffffffffffffffffffffffffffff1663701baaf382600954600a546040518463ffffffff1660e01b81526004016117cf93929190616388565b60206040518083038186803b1580156117e757600080fd5b505afa1580156117fb573d6000803e3d6000fd5b505050506040513d601f19601f8201168201806040525081019061181f9190615f5b565b94506118296149e2565b73ffffffffffffffffffffffffffffffffffffffff16637b0e5c456040518163ffffffff1660e01b815260040160206040518083038186803b15801561186e57600080fd5b505afa158015611882573d6000803e3d6000fd5b505050506040513d601f19601f820116820180604052508101906118a69190615d48565b73ffffffffffffffffffffffffffffffffffffffff16639355ea4d8260008054906101000a900473ffffffffffffffffffffffffffffffffffffffff16306040518463ffffffff1660e01b815260040161190293929190616328565b60206040518083038186803b15801561191a57600080fd5b505afa15801561192e573d6000803e3d6000fd5b505050506040513d601f19601f820116820180604052508101906119529190615f5b565b915061195f816000614b5e565b60006119696149e2565b73ffffffffffffffffffffffffffffffffffffffff16637b0e5c456040518163ffffffff1660e01b815260040160206040518083038186803b1580156119ae57600080fd5b505afa1580156119c2573d6000803e3d6000fd5b505050506040513d601f19601f820116820180604052508101906119e69190615d48565b73ffffffffffffffffffffffffffffffffffffffff1663896a708c83600954600a546040518463ffffffff1660e01b8152600401611a2693929190616388565b60206040518083038186803b158015611a3e57600080fd5b505afa158015611a52573d6000803e3d6000fd5b505050506040513d601f19601f82011682018060405250810190611a769190615f5b565b9050611a806149e2565b73ffffffffffffffffffffffffffffffffffffffff16637b0e5c456040518163ffffffff1660e01b815260040160206040518083038186803b158015611ac557600080fd5b505afa158015611ad9573d6000803e3d6000fd5b505050506040513d601f19601f82011682018060405250810190611afd9190615d48565b73ffffffffffffffffffffffffffffffffffffffff1663c19387df600160009054906101000a900473ffffffffffffffffffffffffffffffffffffffff16836040518363ffffffff1660e01b8152600401611b59929190616159565b60206040518083038186803b158015611b7157600080fd5b505afa158015611b85573d6000803e3d6000fd5b505050506040513d601f19601f82011682018060405250810190611ba99190615f5b565b945050612060565b611bb9614b94565b9050611bc36149e2565b73ffffffffffffffffffffffffffffffffffffffff16637b0e5c456040518163ffffffff1660e01b815260040160206040518083038186803b158015611c0857600080fd5b505afa158015611c1c573d6000803e3d6000fd5b505050506040513d601f19601f82011682018060405250810190611c409190615d48565b73ffffffffffffffffffffffffffffffffffffffff1663701baaf382600a54600a546040518463ffffffff1660e01b8152600401611c8093929190616388565b60206040518083038186803b158015611c9857600080fd5b505afa158015611cac573d6000803e3d6000fd5b505050506040513d601f19601f82011682018060405250810190611cd09190615f5b565b9450611cda6149e2565b73ffffffffffffffffffffffffffffffffffffffff16637b0e5c456040518163ffffffff1660e01b815260040160206040518083038186803b158015611d1f57600080fd5b505afa158015611d33573d6000803e3d6000fd5b505050506040513d601f19601f82011682018060405250810190611d579190615d48565b73ffffffffffffffffffffffffffffffffffffffff16639355ea4d82600160009054906101000a900473ffffffffffffffffffffffffffffffffffffffff16306040518463ffffffff1660e01b8152600401611db593929190616328565b60206040518083038186803b158015611dcd57600080fd5b505afa158015611de1573d6000803e3d6000fd5b505050506040513d601f19601f82011682018060405250810190611e059190615f5b565b9150611e12600082614b5e565b6000611e1c6149e2565b73ffffffffffffffffffffffffffffffffffffffff16637b0e5c456040518163ffffffff1660e01b815260040160206040518083038186803b158015611e6157600080fd5b505afa158015611e75573d6000803e3d6000fd5b505050506040513d601f19601f82011682018060405250810190611e999190615d48565b73ffffffffffffffffffffffffffffffffffffffff1663896a708c83600a54600a546040518463ffffffff1660e01b8152600401611ed993929190616388565b60206040518083038186803b158015611ef157600080fd5b505afa158015611f05573d6000803e3d6000fd5b505050506040513d601f19601f82011682018060405250810190611f299190615f5b565b9050611f336149e2565b73ffffffffffffffffffffffffffffffffffffffff16637b0e5c456040518163ffffffff1660e01b815260040160206040518083038186803b158015611f7857600080fd5b505afa158015611f8c573d6000803e3d6000fd5b505050506040513d601f19601f82011682018060405250810190611fb09190615d48565b73ffffffffffffffffffffffffffffffffffffffff1663c19387df600160009054906101000a900473ffffffffffffffffffffffffffffffffffffffff16836040518363ffffffff1660e01b815260040161200c929190616159565b60206040518083038186803b15801561202457600080fd5b505afa158015612038573d6000803e3d6000fd5b505050506040513d601f19601f8201168201806040525081019061205c9190615f5b565b9450505b61206a8383614c6c565b8273ffffffffffffffffffffffffffffffffffffffff166332f302e387876040518363ffffffff1660e01b81526004016120a5929190616159565b602060405180830381600087803b1580156120bf57600080fd5b505af11580156120d3573d6000803e3d6000fd5b505050506040513d601f19601f820116820180604052508101906120f79190615f5b565b5061210184614db5565b8273ffffffffffffffffffffffffffffffffffffffff168673ffffffffffffffffffffffffffffffffffffffff167f1b2c9a630ce8fefb20a1c90ae6958ba59ea71088689d1a9029064223231d46dd8760405161215e919061630d565b60405180910390a35050509250929050565b600061217d8484846150b5565b7fffffffffffffffffffffffffffffffffffffffffffffffffffffffffffffffff600860008673ffffffffffffffffffffffffffffffffffffffff1673ffffffffffffffffffffffffffffffffffffffff16815260200190815260200160002060003373ffffffffffffffffffffffffffffffffffffffff1673ffffffffffffffffffffffffffffffffffffffff1681526020019081526020016000205410156122fd576000600860008673ffffffffffffffffffffffffffffffffffffffff1673ffffffffffffffffffffffffffffffffffffffff16815260200190815260200160002060003373ffffffffffffffffffffffffffffffffffffffff1673ffffffffffffffffffffffffffffffffffffffff168152602001908152602001600020549050828110156122e5576040517f08c379a00000000000000000000000000000000000000000000000000000000081526004016122dc9061624d565b60405180910390fd5b6122fb853385846122f691906164b0565b614e45565b505b600190509392505050565b60008060008054906101000a900473ffffffffffffffffffffffffffffffffffffffff1673ffffffffffffffffffffffffffffffffffffffff168473ffffffffffffffffffffffffffffffffffffffff1614806123b25750600160009054906101000a900473ffffffffffffffffffffffffffffffffffffffff1673ffffffffffffffffffffffffffffffffffffffff168473ffffffffffffffffffffffffffffffffffffffff16145b6123f1576040517f08c379a00000000000000000000000000000000000000000000000000000000081526004016123e8906162ed565b60405180910390fd5b60008060008054906101000a900473ffffffffffffffffffffffffffffffffffffffff1673ffffffffffffffffffffffffffffffffffffffff168673ffffffffffffffffffffffffffffffffffffffff16141561248d57600160009054906101000a900473ffffffffffffffffffffffffffffffffffffffff169150612475614b94565b9050612480816152c3565b80945081955050506124cc565b60008054906101000a900473ffffffffffffffffffffffffffffffffffffffff1691506124b8614a88565b90506124c38161552a565b80945081955050505b8473ffffffffffffffffffffffffffffffffffffffff168673ffffffffffffffffffffffffffffffffffffffff168373ffffffffffffffffffffffffffffffffffffffff167fc9163c3bdf7263acf1bb3d24072cc7da025f7181c31e2edc7e1673edf5e0ca3284888860405161254493929190616388565b60405180910390a48573ffffffffffffffffffffffffffffffffffffffff1663a9059cbb86866040518363ffffffff1660e01b8152600401612587929190616159565b602060405180830381600087803b1580156125a157600080fd5b505af11580156125b5573d6000803e3d6000fd5b505050506040513d601f19601f820116820180604052508101906125d99190615ea4565b5050509250929050565b600560009054906101000a900460ff1681565b600061268a338484600860003373ffffffffffffffffffffffffffffffffffffffff1673ffffffffffffffffffffffffffffffffffffffff16815260200190815260200160002060008873ffffffffffffffffffffffffffffffffffffffff1673ffffffffffffffffffffffffffffffffffffffff16815260200190815260200160002054612685919061645a565b614e45565b6001905092915050565b60006126a13386866150b5565b8473ffffffffffffffffffffffffffffffffffffffff1663cf4d253530863387876040518663ffffffff1660e01b81526004016126e2959493929190616182565b600060405180830381600087803b1580156126fc57600080fd5b505af1158015612710573d6000803e3d6000fd5b5050505060019050949350505050565b61272a33826158c7565b50565b60095481565b600061273e336127f1565b905090565b600d5481565b6000600760008373ffffffffffffffffffffffffffffffffffffffff1673ffffffffffffffffffffffffffffffffffffffff168152602001908152602001600020549050919050565b600e5481565b6000816127a584336147ab565b6127af91906164b0565b90506127bc833383614e45565b6127c683836158c7565b505050565b600160009054906101000a900473ffffffffffffffffffffffffffffffffffffffff1681565b6000806127fc614a88565b90506000612808614b94565b90506128126149e2565b73ffffffffffffffffffffffffffffffffffffffff16637b0e5c456040518163ffffffff1660e01b815260040160206040518083038186803b15801561285757600080fd5b505afa15801561286b573d6000803e3d6000fd5b505050506040513d601f19601f8201168201806040525081019061288f9190615d48565b73ffffffffffffffffffffffffffffffffffffffff1663c5c11ee98360095484600a546006546040518663ffffffff1660e01b81526004016128d59594939291906163bf565b60206040518083038186803b1580156128ed57600080fd5b505afa158015612901573d6000803e3d6000fd5b505050506040513d601f19601f820116820180604052508101906129259190615f5b565b92506129318282614b5e565b61293b8484614c6c565b8373ffffffffffffffffffffffffffffffffffffffff167fbeb3885786d637a474cbc287c0a44587231633a077f0bd30354d5a4b18996fce83838660405161298593929190616388565b60405180910390a25050919050565b60008060006129a16149e2565b73ffffffffffffffffffffffffffffffffffffffff1663b93ec54b6040518163ffffffff1660e01b815260040160206040518083038186803b1580156129e657600080fd5b505afa1580156129fa573d6000803e3d6000fd5b505050506040513d601f19601f82011682018060405250810190612a1e9190615d48565b73ffffffffffffffffffffffffffffffffffffffff1663dcec8116600160009054906101000a900473ffffffffffffffffffffffffffffffffffffffff166040518263ffffffff1660e01b8152600401612a78919061613e565b60206040518083038186803b158015612a9057600080fd5b505afa158015612aa4573d6000803e3d6000fd5b505050506040513d601f19601f82011682018060405250810190612ac89190615d48565b905060011515612ad66149e2565b73ffffffffffffffffffffffffffffffffffffffff1663b93ec54b6040518163ffffffff1660e01b815260040160206040518083038186803b158015612b1b57600080fd5b505afa158015612b2f573d6000803e3d6000fd5b505050506040513d601f19601f82011682018060405250810190612b539190615d48565b73ffffffffffffffffffffffffffffffffffffffff16635e0237ea836040518263ffffffff1660e01b8152600401612b8b919061613e565b60206040518083038186803b158015612ba357600080fd5b505afa158015612bb7573d6000803e3d6000fd5b505050506040513d601f19601f82011682018060405250810190612bdb9190615ea4565b151514612c1d576040517f08c379a0000000000000000000000000000000000000000000000000000000008152600401612c14906162ad565b60405180910390fd5b60008173ffffffffffffffffffffffffffffffffffffffff166370a08231306040518263ffffffff1660e01b8152600401612c58919061613e565b60206040518083038186803b158015612c7057600080fd5b505afa158015612c84573d6000803e3d6000fd5b505050506040513d601f19601f82011682018060405250810190612ca89190615f5b565b90508173ffffffffffffffffffffffffffffffffffffffff1663a9059cbb83836040518363ffffffff1660e01b8152600401612ce5929190616159565b602060405180830381600087803b158015612cff57600080fd5b505af1158015612d13573d6000803e3d6000fd5b505050506040513d601f19601f82011682018060405250810190612d379190615ea4565b508173ffffffffffffffffffffffffffffffffffffffff1663d950b6f36040518163ffffffff1660e01b8152600401602060405180830381600087803b158015612d8057600080fd5b505af1158015612d94573d6000803e3d6000fd5b505050506040513d601f19601f82011682018060405250810190612db89190615f5b565b5085156130ab57612dc76149e2565b73ffffffffffffffffffffffffffffffffffffffff16637b0e5c456040518163ffffffff1660e01b815260040160206040518083038186803b158015612e0c57600080fd5b505afa158015612e20573d6000803e3d6000fd5b505050506040513d601f19601f82011682018060405250810190612e449190615d48565b73ffffffffffffffffffffffffffffffffffffffff1663701baaf382600a546009546040518463ffffffff1660e01b8152600401612e8493929190616388565b60206040518083038186803b158015612e9c57600080fd5b505afa158015612eb0573d6000803e3d6000fd5b505050506040513d601f19601f82011682018060405250810190612ed49190615f5b565b9350612ede6149e2565b73ffffffffffffffffffffffffffffffffffffffff16637b0e5c456040518163ffffffff1660e01b815260040160206040518083038186803b158015612f2357600080fd5b505afa158015612f37573d6000803e3d6000fd5b505050506040513d601f19601f82011682018060405250810190612f5b9190615d48565b73ffffffffffffffffffffffffffffffffffffffff1663896a708c82600a546009546040518463ffffffff1660e01b8152600401612f9b93929190616388565b60206040518083038186803b158015612fb357600080fd5b505afa158015612fc7573d6000803e3d6000fd5b505050506040513d601f19601f82011682018060405250810190612feb9190615f5b565b9250612ff8846000615a92565b60008054906101000a900473ffffffffffffffffffffffffffffffffffffffff1673ffffffffffffffffffffffffffffffffffffffff1663a9059cbb86866040518363ffffffff1660e01b8152600401613053929190616159565b602060405180830381600087803b15801561306d57600080fd5b505af1158015613081573d6000803e3d6000fd5b505050506040513d601f19601f820116820180604052508101906130a59190615ea4565b506134cb565b6130b36149e2565b73ffffffffffffffffffffffffffffffffffffffff16637b0e5c456040518163ffffffff1660e01b815260040160206040518083038186803b1580156130f857600080fd5b505afa15801561310c573d6000803e3d6000fd5b505050506040513d601f19601f820116820180604052508101906131309190615d48565b73ffffffffffffffffffffffffffffffffffffffff1663701baaf382600a54600a546040518463ffffffff1660e01b815260040161317093929190616388565b60206040518083038186803b15801561318857600080fd5b505afa15801561319c573d6000803e3d6000fd5b505050506040513d601f19601f820116820180604052508101906131c09190615f5b565b935060006131cc6149e2565b73ffffffffffffffffffffffffffffffffffffffff16637b0e5c456040518163ffffffff1660e01b815260040160206040518083038186803b15801561321157600080fd5b505afa158015613225573d6000803e3d6000fd5b505050506040513d601f19601f820116820180604052508101906132499190615d48565b73ffffffffffffffffffffffffffffffffffffffff1663896a708c83600a54600a546040518463ffffffff1660e01b815260040161328993929190616388565b60206040518083038186803b1580156132a157600080fd5b505afa1580156132b5573d6000803e3d6000fd5b505050506040513d601f19601f820116820180604052508101906132d99190615f5b565b90506132e36149e2565b73ffffffffffffffffffffffffffffffffffffffff16637b0e5c456040518163ffffffff1660e01b815260040160206040518083038186803b15801561332857600080fd5b505afa15801561333c573d6000803e3d6000fd5b505050506040513d601f19601f820116820180604052508101906133609190615d48565b73ffffffffffffffffffffffffffffffffffffffff1663c19387df600160009054906101000a900473ffffffffffffffffffffffffffffffffffffffff16836040518363ffffffff1660e01b81526004016133bc929190616159565b60206040518083038186803b1580156133d457600080fd5b505afa1580156133e8573d6000803e3d6000fd5b505050506040513d601f19601f8201168201806040525081019061340c9190615f5b565b9350613419600086615a92565b600160009054906101000a900473ffffffffffffffffffffffffffffffffffffffff1673ffffffffffffffffffffffffffffffffffffffff1663a9059cbb87876040518363ffffffff1660e01b8152600401613476929190616159565b602060405180830381600087803b15801561349057600080fd5b505af11580156134a4573d6000803e3d6000fd5b505050506040513d601f19601f820116820180604052508101906134c89190615ea4565b50505b6134d483614db5565b8173ffffffffffffffffffffffffffffffffffffffff168573ffffffffffffffffffffffffffffffffffffffff167f6695e5227b6ff060f71a5d29a9c2ce19610666be6c8a5944a516e8d0f31b646783604051613531919061630d565b60405180910390a350509250929050565b600080600061354f6149e2565b73ffffffffffffffffffffffffffffffffffffffff1663b93ec54b6040518163ffffffff1660e01b815260040160206040518083038186803b15801561359457600080fd5b505afa1580156135a8573d6000803e3d6000fd5b505050506040513d601f19601f820116820180604052508101906135cc9190615d48565b73ffffffffffffffffffffffffffffffffffffffff1663dcec811660008054906101000a900473ffffffffffffffffffffffffffffffffffffffff166040518263ffffffff1660e01b8152600401613624919061613e565b60206040518083038186803b15801561363c57600080fd5b505afa158015613650573d6000803e3d6000fd5b505050506040513d601f19601f820116820180604052508101906136749190615d48565b9050600115156136826149e2565b73ffffffffffffffffffffffffffffffffffffffff1663b93ec54b6040518163ffffffff1660e01b815260040160206040518083038186803b1580156136c757600080fd5b505afa1580156136db573d6000803e3d6000fd5b505050506040513d601f19601f820116820180604052508101906136ff9190615d48565b73ffffffffffffffffffffffffffffffffffffffff16635e0237ea836040518263ffffffff1660e01b8152600401613737919061613e565b60206040518083038186803b15801561374f57600080fd5b505afa158015613763573d6000803e3d6000fd5b505050506040513d601f19601f820116820180604052508101906137879190615ea4565b1515146137c9576040517f08c379a00000000000000000000000000000000000000000000000000000000081526004016137c0906162ad565b60405180910390fd5b60008173ffffffffffffffffffffffffffffffffffffffff166370a08231306040518263ffffffff1660e01b8152600401613804919061613e565b60206040518083038186803b15801561381c57600080fd5b505afa158015613830573d6000803e3d6000fd5b505050506040513d601f19601f820116820180604052508101906138549190615f5b565b90508173ffffffffffffffffffffffffffffffffffffffff1663a9059cbb83836040518363ffffffff1660e01b8152600401613891929190616159565b602060405180830381600087803b1580156138ab57600080fd5b505af11580156138bf573d6000803e3d6000fd5b505050506040513d601f19601f820116820180604052508101906138e39190615ea4565b508173ffffffffffffffffffffffffffffffffffffffff1663d950b6f36040518163ffffffff1660e01b8152600401602060405180830381600087803b15801561392c57600080fd5b505af1158015613940573d6000803e3d6000fd5b505050506040513d601f19601f820116820180604052508101906139649190615f5b565b508515613c57576139736149e2565b73ffffffffffffffffffffffffffffffffffffffff16637b0e5c456040518163ffffffff1660e01b815260040160206040518083038186803b1580156139b857600080fd5b505afa1580156139cc573d6000803e3d6000fd5b505050506040513d601f19601f820116820180604052508101906139f09190615d48565b73ffffffffffffffffffffffffffffffffffffffff1663701baaf3826009546009546040518463ffffffff1660e01b8152600401613a3093929190616388565b60206040518083038186803b158015613a4857600080fd5b505afa158015613a5c573d6000803e3d6000fd5b505050506040513d601f19601f82011682018060405250810190613a809190615f5b565b9350613a8a6149e2565b73ffffffffffffffffffffffffffffffffffffffff16637b0e5c456040518163ffffffff1660e01b815260040160206040518083038186803b158015613acf57600080fd5b505afa158015613ae3573d6000803e3d6000fd5b505050506040513d601f19601f82011682018060405250810190613b079190615d48565b73ffffffffffffffffffffffffffffffffffffffff1663896a708c826009546009546040518463ffffffff1660e01b8152600401613b4793929190616388565b60206040518083038186803b158015613b5f57600080fd5b505afa158015613b73573d6000803e3d6000fd5b505050506040513d601f19601f82011682018060405250810190613b979190615f5b565b9250613ba4846000615a92565b60008054906101000a900473ffffffffffffffffffffffffffffffffffffffff1673ffffffffffffffffffffffffffffffffffffffff1663a9059cbb86866040518363ffffffff1660e01b8152600401613bff929190616159565b602060405180830381600087803b158015613c1957600080fd5b505af1158015613c2d573d6000803e3d6000fd5b505050506040513d601f19601f82011682018060405250810190613c519190615ea4565b50614077565b613c5f6149e2565b73ffffffffffffffffffffffffffffffffffffffff16637b0e5c456040518163ffffffff1660e01b815260040160206040518083038186803b158015613ca457600080fd5b505afa158015613cb8573d6000803e3d6000fd5b505050506040513d601f19601f82011682018060405250810190613cdc9190615d48565b73ffffffffffffffffffffffffffffffffffffffff1663701baaf382600954600a546040518463ffffffff1660e01b8152600401613d1c93929190616388565b60206040518083038186803b158015613d3457600080fd5b505afa158015613d48573d6000803e3d6000fd5b505050506040513d601f19601f82011682018060405250810190613d6c9190615f5b565b93506000613d786149e2565b73ffffffffffffffffffffffffffffffffffffffff16637b0e5c456040518163ffffffff1660e01b815260040160206040518083038186803b158015613dbd57600080fd5b505afa158015613dd1573d6000803e3d6000fd5b505050506040513d601f19601f82011682018060405250810190613df59190615d48565b73ffffffffffffffffffffffffffffffffffffffff1663896a708c83600954600a546040518463ffffffff1660e01b8152600401613e3593929190616388565b60206040518083038186803b158015613e4d57600080fd5b505afa158015613e61573d6000803e3d6000fd5b505050506040513d601f19601f82011682018060405250810190613e859190615f5b565b9050613e8f6149e2565b73ffffffffffffffffffffffffffffffffffffffff16637b0e5c456040518163ffffffff1660e01b815260040160206040518083038186803b158015613ed457600080fd5b505afa158015613ee8573d6000803e3d6000fd5b505050506040513d601f19601f82011682018060405250810190613f0c9190615d48565b73ffffffffffffffffffffffffffffffffffffffff1663c19387df600160009054906101000a900473ffffffffffffffffffffffffffffffffffffffff16836040518363ffffffff1660e01b8152600401613f68929190616159565b60206040518083038186803b158015613f8057600080fd5b505afa158015613f94573d6000803e3d6000fd5b505050506040513d601f19601f82011682018060405250810190613fb89190615f5b565b9350613fc5600086615a92565b600160009054906101000a900473ffffffffffffffffffffffffffffffffffffffff1673ffffffffffffffffffffffffffffffffffffffff1663a9059cbb87876040518363ffffffff1660e01b8152600401614022929190616159565b602060405180830381600087803b15801561403c57600080fd5b505af1158015614050573d6000803e3d6000fd5b505050506040513d601f19601f820116820180604052508101906140749190615ea4565b50505b61408083614db5565b8173ffffffffffffffffffffffffffffffffffffffff168573ffffffffffffffffffffffffffffffffffffffff167f6695e5227b6ff060f71a5d29a9c2ce19610666be6c8a5944a516e8d0f31b6467836040516140dd919061630d565b60405180910390a350509250929050565b6060600480546140fd906165b7565b80601f0160208091040260200160405190810160405280929190818152602001828054614129906165b7565b80156141765780601f1061414b57610100808354040283529160200191614176565b820191906000526020600020905b81548152906001019060200180831161415957829003601f168201915b5050505050905090565b600080600860003373ffffffffffffffffffffffffffffffffffffffff1673ffffffffffffffffffffffffffffffffffffffff16815260200190815260200160002060008573ffffffffffffffffffffffffffffffffffffffff1673ffffffffffffffffffffffffffffffffffffffff16815260200190815260200160002054905082811015614245576040517f08c379a000000000000000000000000000000000000000000000000000000000815260040161423c9061624d565b60405180910390fd5b61425b3385858461425691906164b0565b614e45565b600191505092915050565b600c5481565b60008061427833614297565b915091509091565b600061428d3384846150b5565b6001905092915050565b60008060006142a530612749565b90506142af6149e2565b73ffffffffffffffffffffffffffffffffffffffff16637b0e5c456040518163ffffffff1660e01b815260040160206040518083038186803b1580156142f457600080fd5b505afa158015614308573d6000803e3d6000fd5b505050506040513d601f19601f8201168201806040525081019061432c9190615d48565b73ffffffffffffffffffffffffffffffffffffffff16635a7b2ed38260008054906101000a900473ffffffffffffffffffffffffffffffffffffffff16306040518463ffffffff1660e01b815260040161438893929190616328565b60206040518083038186803b1580156143a057600080fd5b505afa1580156143b4573d6000803e3d6000fd5b505050506040513d601f19601f820116820180604052508101906143d89190615f5b565b92506143e26149e2565b73ffffffffffffffffffffffffffffffffffffffff16637b0e5c456040518163ffffffff1660e01b815260040160206040518083038186803b15801561442757600080fd5b505afa15801561443b573d6000803e3d6000fd5b505050506040513d601f19601f8201168201806040525081019061445f9190615d48565b73ffffffffffffffffffffffffffffffffffffffff16635a7b2ed382600160009054906101000a900473ffffffffffffffffffffffffffffffffffffffff16306040518463ffffffff1660e01b81526004016144bd93929190616328565b60206040518083038186803b1580156144d557600080fd5b505afa1580156144e9573d6000803e3d6000fd5b505050506040513d601f19601f8201168201806040525081019061450d9190615f5b565b91506145198383615a92565b61452330826158c7565b60008054906101000a900473ffffffffffffffffffffffffffffffffffffffff1673ffffffffffffffffffffffffffffffffffffffff1663a9059cbb85856040518363ffffffff1660e01b815260040161457e929190616159565b602060405180830381600087803b15801561459857600080fd5b505af11580156145ac573d6000803e3d6000fd5b505050506040513d601f19601f820116820180604052508101906145d09190615ea4565b50600160009054906101000a900473ffffffffffffffffffffffffffffffffffffffff1673ffffffffffffffffffffffffffffffffffffffff1663a9059cbb85846040518363ffffffff1660e01b815260040161462e929190616159565b602060405180830381600087803b15801561464857600080fd5b505af115801561465c573d6000803e3d6000fd5b505050506040513d601f19601f820116820180604052508101906146809190615ea4565b508373ffffffffffffffffffffffffffffffffffffffff167f59c3a0b60c6ab7deb62e1440c9e72441db6db7dfe514dba8cb18e60c0d896efa8484846040516146cb93929190616388565b60405180910390a250915091565b600260009054906101000a900473ffffffffffffffffffffffffffffffffffffffff1681565b600061472c33867fffffffffffffffffffffffffffffffffffffffffffffffffffffffffffffffff614e45565b8473ffffffffffffffffffffffffffffffffffffffff16631ac562a730863387876040518663ffffffff1660e01b815260040161476d959493929190616182565b600060405180830381600087803b15801561478757600080fd5b505af115801561479b573d6000803e3d6000fd5b5050505060019050949350505050565b6000600860008473ffffffffffffffffffffffffffffffffffffffff1673ffffffffffffffffffffffffffffffffffffffff16815260200190815260200160002060008373ffffffffffffffffffffffffffffffffffffffff1673ffffffffffffffffffffffffffffffffffffffff16815260200190815260200160002054905092915050565b60008054906101000a900473ffffffffffffffffffffffffffffffffffffffff1681565b600a5481565b600f818154811061486c57600080fd5b906000526020600020016000915090505481565b60008054906101000a900473ffffffffffffffffffffffffffffffffffffffff1673ffffffffffffffffffffffffffffffffffffffff166370a08231306040518263ffffffff1660e01b81526004016148d9919061613e565b60206040518083038186803b1580156148f157600080fd5b505afa158015614905573d6000803e3d6000fd5b505050506040513d601f19601f820116820180604052508101906149299190615f5b565b600981905550600160009054906101000a900473ffffffffffffffffffffffffffffffffffffffff1673ffffffffffffffffffffffffffffffffffffffff166370a08231306040518263ffffffff1660e01b815260040161498a919061613e565b60206040518083038186803b1580156149a257600080fd5b505afa1580156149b6573d6000803e3d6000fd5b505050506040513d601f19601f820116820180604052508101906149da9190615f5b565b600a81905550565b60008060009054906101000a900473ffffffffffffffffffffffffffffffffffffffff1673ffffffffffffffffffffffffffffffffffffffff166398fabd3a6040518163ffffffff1660e01b815260040160206040518083038186803b158015614a4b57600080fd5b505afa158015614a5f573d6000803e3d6000fd5b505050506040513d601f19601f82011682018060405250810190614a839190615f09565b905090565b60008060008054906101000a900473ffffffffffffffffffffffffffffffffffffffff1673ffffffffffffffffffffffffffffffffffffffff166370a08231306040518263ffffffff1660e01b8152600401614ae4919061613e565b60206040518083038186803b158015614afc57600080fd5b505afa158015614b10573d6000803e3d6000fd5b505050506040513d601f19601f82011682018060405250810190614b349190615f5b565b9050600954811115614b555760095481614b4e91906164b0565b9150614b5a565b600091505b5090565b8160096000828254614b70919061645a565b9250508190555080600a6000828254614b89919061645a565b925050819055505050565b600080600160009054906101000a900473ffffffffffffffffffffffffffffffffffffffff1673ffffffffffffffffffffffffffffffffffffffff166370a08231306040518263ffffffff1660e01b8152600401614bf2919061613e565b60206040518083038186803b158015614c0a57600080fd5b505afa158015614c1e573d6000803e3d6000fd5b505050506040513d601f19601f82011682018060405250810190614c429190615f5b565b9050600a54811115614c6357600a5481614c5c91906164b0565b9150614c68565b600091505b5090565b600073ffffffffffffffffffffffffffffffffffffffff168273ffffffffffffffffffffffffffffffffffffffff161415614cdc576040517f08c379a0000000000000000000000000000000000000000000000000000000008152600401614cd3906162cd565b60405180910390fd5b8060066000828254614cee919061645a565b9250508190555080600760008473ffffffffffffffffffffffffffffffffffffffff1673ffffffffffffffffffffffffffffffffffffffff1681526020019081526020016000206000828254614d44919061645a565b925050819055508173ffffffffffffffffffffffffffffffffffffffff16600073ffffffffffffffffffffffffffffffffffffffff167fddf252ad1be2c89b69c2b068fc378daa952ba7f163c4a11628f55a4df523b3ef83604051614da9919061630d565b60405180910390a35050565b6000600b541415614dca57600c54600b819055505b62278d00600b54614ddb919061645a565b4211614dfa5780600d54614def919061645a565b600d81905550614e42565b62278d00600b54614e0b919061645a565b600b81905550600d54600e81905550614e25600e54615ac8565b6000600d8190555080600d54614e3b919061645a565b600d819055505b50565b600073ffffffffffffffffffffffffffffffffffffffff168373ffffffffffffffffffffffffffffffffffffffff161415614eb5576040517f08c379a0000000000000000000000000000000000000000000000000000000008152600401614eac9061622d565b60405180910390fd5b600073ffffffffffffffffffffffffffffffffffffffff168273ffffffffffffffffffffffffffffffffffffffff161415614f25576040517f08c379a0000000000000000000000000000000000000000000000000000000008152600401614f1c9061628d565b60405180910390fd5b7fffffffffffffffffffffffffffffffffffffffffffffffffffffffffffffffff600860008573ffffffffffffffffffffffffffffffffffffffff1673ffffffffffffffffffffffffffffffffffffffff16815260200190815260200160002060008473ffffffffffffffffffffffffffffffffffffffff1673ffffffffffffffffffffffffffffffffffffffff1681526020019081526020016000205410156150b05780600860008573ffffffffffffffffffffffffffffffffffffffff1673ffffffffffffffffffffffffffffffffffffffff16815260200190815260200160002060008473ffffffffffffffffffffffffffffffffffffffff1673ffffffffffffffffffffffffffffffffffffffff168152602001908152602001600020819055508173ffffffffffffffffffffffffffffffffffffffff168373ffffffffffffffffffffffffffffffffffffffff167f8c5be1e5ebec7d5bd14f71427d1e84f3dd0314c0f7b2291e5b200ac8c7c3b925836040516150a7919061630d565b60405180910390a35b505050565b600073ffffffffffffffffffffffffffffffffffffffff168373ffffffffffffffffffffffffffffffffffffffff161415615125576040517f08c379a000000000000000000000000000000000000000000000000000000000815260040161511c9061620d565b60405180910390fd5b6000600760008573ffffffffffffffffffffffffffffffffffffffff1673ffffffffffffffffffffffffffffffffffffffff168152602001908152602001600020549050818110156151ac576040517f08c379a00000000000000000000000000000000000000000000000000000000081526004016151a39061626d565b60405180910390fd5b81600760008673ffffffffffffffffffffffffffffffffffffffff1673ffffffffffffffffffffffffffffffffffffffff16815260200190815260200160002060008282546151fb91906164b0565b9250508190555081600760008573ffffffffffffffffffffffffffffffffffffffff1673ffffffffffffffffffffffffffffffffffffffff1681526020019081526020016000206000828254615251919061645a565b925050819055508273ffffffffffffffffffffffffffffffffffffffff168473ffffffffffffffffffffffffffffffffffffffff167fddf252ad1be2c89b69c2b068fc378daa952ba7f163c4a11628f55a4df523b3ef846040516152b5919061630d565b60405180910390a350505050565b6000806000600a549050600060095490506152dc6149e2565b73ffffffffffffffffffffffffffffffffffffffff16637b0e5c456040518163ffffffff1660e01b815260040160206040518083038186803b15801561532157600080fd5b505afa158015615335573d6000803e3d6000fd5b505050506040513d601f19601f820116820180604052508101906153599190615d48565b73ffffffffffffffffffffffffffffffffffffffff1663701baaf38684846040518463ffffffff1660e01b815260040161539593929190616388565b60206040518083038186803b1580156153ad57600080fd5b505afa1580156153c1573d6000803e3d6000fd5b505050506040513d601f19601f820116820180604052508101906153e59190615f5b565b93506153ef6149e2565b73ffffffffffffffffffffffffffffffffffffffff16637b0e5c456040518163ffffffff1660e01b815260040160206040518083038186803b15801561543457600080fd5b505afa158015615448573d6000803e3d6000fd5b505050506040513d601f19601f8201168201806040525081019061546c9190615d48565b73ffffffffffffffffffffffffffffffffffffffff1663896a708c8684846040518463ffffffff1660e01b81526004016154a893929190616388565b60206040518083038186803b1580156154c057600080fd5b505afa1580156154d4573d6000803e3d6000fd5b505050506040513d601f19601f820116820180604052508101906154f89190615f5b565b925061551a848261550991906164b0565b8684615515919061645a565b615b10565b61552383614db5565b5050915091565b600080600060095490506000600a5490506155436149e2565b73ffffffffffffffffffffffffffffffffffffffff16637b0e5c456040518163ffffffff1660e01b815260040160206040518083038186803b15801561558857600080fd5b505afa15801561559c573d6000803e3d6000fd5b505050506040513d601f19601f820116820180604052508101906155c09190615d48565b73ffffffffffffffffffffffffffffffffffffffff1663701baaf38684846040518463ffffffff1660e01b81526004016155fc93929190616388565b60206040518083038186803b15801561561457600080fd5b505afa158015615628573d6000803e3d6000fd5b505050506040513d601f19601f8201168201806040525081019061564c9190615f5b565b935060006156586149e2565b73ffffffffffffffffffffffffffffffffffffffff16637b0e5c456040518163ffffffff1660e01b815260040160206040518083038186803b15801561569d57600080fd5b505afa1580156156b1573d6000803e3d6000fd5b505050506040513d601f19601f820116820180604052508101906156d59190615d48565b73ffffffffffffffffffffffffffffffffffffffff1663896a708c8785856040518463ffffffff1660e01b815260040161571193929190616388565b60206040518083038186803b15801561572957600080fd5b505afa15801561573d573d6000803e3d6000fd5b505050506040513d601f19601f820116820180604052508101906157619190615f5b565b905061576b6149e2565b73ffffffffffffffffffffffffffffffffffffffff16637b0e5c456040518163ffffffff1660e01b815260040160206040518083038186803b1580156157b057600080fd5b505afa1580156157c4573d6000803e3d6000fd5b505050506040513d601f19601f820116820180604052508101906157e89190615d48565b73ffffffffffffffffffffffffffffffffffffffff1663c19387df600160009054906101000a900473ffffffffffffffffffffffffffffffffffffffff16836040518363ffffffff1660e01b8152600401615844929190616159565b60206040518083038186803b15801561585c57600080fd5b505afa158015615870573d6000803e3d6000fd5b505050506040513d601f19601f820116820180604052508101906158949190615f5b565b93506158b686846158a5919061645a565b86846158b191906164b0565b615b10565b6158bf84614db5565b505050915091565b600073ffffffffffffffffffffffffffffffffffffffff168273ffffffffffffffffffffffffffffffffffffffff161415615937576040517f08c379a000000000000000000000000000000000000000000000000000000000815260040161592e906162cd565b60405180910390fd5b80600760008473ffffffffffffffffffffffffffffffffffffffff1673ffffffffffffffffffffffffffffffffffffffff1681526020019081526020016000205410156159b9576040517f08c379a00000000000000000000000000000000000000000000000000000000081526004016159b09061626d565b60405180910390fd5b80600760008473ffffffffffffffffffffffffffffffffffffffff1673ffffffffffffffffffffffffffffffffffffffff1681526020019081526020016000206000828254615a0891906164b0565b925050819055508060066000828254615a2191906164b0565b92505081905550600073ffffffffffffffffffffffffffffffffffffffff168273ffffffffffffffffffffffffffffffffffffffff167fddf252ad1be2c89b69c2b068fc378daa952ba7f163c4a11628f55a4df523b3ef83604051615a86919061630d565b60405180910390a35050565b8160096000828254615aa491906164b0565b9250508190555080600a6000828254615abd91906164b0565b925050819055505050565b6002600f8054905014615b0357600f819080600181540180825580915050600190039060005260206000200160009091909190915055615b0d565b615b0c81615b22565b5b50565b8160098190555080600a819055505050565b6000600f8054905090506000600182615b3b91906164b0565b90505b6000811115615bf357600f600182615b5691906164b0565b81548110615b8d577f4e487b7100000000000000000000000000000000000000000000000000000000600052603260045260246000fd5b9060005260206000200154600f8281548110615bd2577f4e487b7100000000000000000000000000000000000000000000000000000000600052603260045260246000fd5b90600052602060002001819055508080615beb9061658d565b915050615b3e565b5081600f600081548110615c30577f4e487b7100000000000000000000000000000000000000000000000000000000600052603260045260246000fd5b90600052602060002001819055505050565b600081359050615c51816167a0565b92915050565b600081519050615c66816167a0565b92915050565b600081359050615c7b816167b7565b92915050565b600081519050615c90816167b7565b92915050565b60008083601f840112615ca857600080fd5b8235905067ffffffffffffffff811115615cc157600080fd5b602083019150836001820283011115615cd957600080fd5b9250929050565b600081519050615cef816167ce565b92915050565b600081359050615d04816167e5565b92915050565b600081519050615d19816167e5565b92915050565b600060208284031215615d3157600080fd5b6000615d3f84828501615c42565b91505092915050565b600060208284031215615d5a57600080fd5b6000615d6884828501615c57565b91505092915050565b60008060408385031215615d8457600080fd5b6000615d9285828601615c42565b9250506020615da385828601615c42565b9150509250929050565b600080600060608486031215615dc257600080fd5b6000615dd086828701615c42565b9350506020615de186828701615c42565b9250506040615df286828701615cf5565b9150509250925092565b60008060408385031215615e0f57600080fd5b6000615e1d85828601615c42565b9250506020615e2e85828601615cf5565b9150509250929050565b60008060008060608587031215615e4e57600080fd5b6000615e5c87828801615c42565b9450506020615e6d87828801615cf5565b935050604085013567ffffffffffffffff811115615e8a57600080fd5b615e9687828801615c96565b925092505092959194509250565b600060208284031215615eb657600080fd5b6000615ec484828501615c81565b91505092915050565b60008060408385031215615ee057600080fd5b6000615eee85828601615c6c565b9250506020615eff85828601615c42565b9150509250929050565b600060208284031215615f1b57600080fd5b6000615f2984828501615ce0565b91505092915050565b600060208284031215615f4457600080fd5b6000615f5284828501615cf5565b91505092915050565b600060208284031215615f6d57600080fd5b6000615f7b84828501615d0a565b91505092915050565b615f8d816164e4565b82525050565b615f9c816164f6565b82525050565b6000615fae8385616438565b9350615fbb83858461654b565b615fc483616647565b840190509392505050565b6000615fda8261642d565b615fe48185616449565b9350615ff481856020860161655a565b615ffd81616647565b840191505092915050565b6000616015600c83616449565b915061602082616658565b602082019050919050565b6000616038600683616449565b915061604382616681565b602082019050919050565b600061605b600d83616449565b9150616066826166aa565b602082019050919050565b600061607e600b83616449565b9150616089826166d3565b602082019050919050565b60006160a1600783616449565b91506160ac826166fc565b602082019050919050565b60006160c4600683616449565b91506160cf82616725565b602082019050919050565b60006160e7600b83616449565b91506160f28261674e565b602082019050919050565b600061610a601583616449565b915061611582616777565b602082019050919050565b61612981616534565b82525050565b6161388161653e565b82525050565b60006020820190506161536000830184615f84565b92915050565b600060408201905061616e6000830185615f84565b61617b6020830184616120565b9392505050565b60006080820190506161976000830188615f84565b6161a46020830187616120565b6161b16040830186615f84565b81810360608301526161c4818486615fa2565b90509695505050505050565b60006020820190506161e56000830184615f93565b92915050565b600060208201905081810360008301526162058184615fcf565b905092915050565b6000602082019050818103600083015261622681616008565b9050919050565b600060208201905081810360008301526162468161602b565b9050919050565b600060208201905081810360008301526162668161604e565b9050919050565b6000602082019050818103600083015261628681616071565b9050919050565b600060208201905081810360008301526162a681616094565b9050919050565b600060208201905081810360008301526162c6816160b7565b9050919050565b600060208201905081810360008301526162e6816160da565b9050919050565b60006020820190508181036000830152616306816160fd565b9050919050565b60006020820190506163226000830184616120565b92915050565b600060608201905061633d6000830186616120565b61634a6020830185615f84565b6163576040830184615f84565b949350505050565b60006040820190506163746000830185616120565b6163816020830184616120565b9392505050565b600060608201905061639d6000830186616120565b6163aa6020830185616120565b6163b76040830184616120565b949350505050565b600060a0820190506163d46000830188616120565b6163e16020830187616120565b6163ee6040830186616120565b6163fb6060830185616120565b6164086080830184616120565b9695505050505050565b6000602082019050616427600083018461612f565b92915050565b600081519050919050565b600082825260208201905092915050565b600082825260208201905092915050565b600061646582616534565b915061647083616534565b9250827fffffffffffffffffffffffffffffffffffffffffffffffffffffffffffffffff038211156164a5576164a46165e9565b5b828201905092915050565b60006164bb82616534565b91506164c683616534565b9250828210156164d9576164d86165e9565b5b828203905092915050565b60006164ef82616514565b9050919050565b60008115159050919050565b600061650d826164e4565b9050919050565b600073ffffffffffffffffffffffffffffffffffffffff82169050919050565b6000819050919050565b600060ff82169050919050565b82818337600083830152505050565b60005b8381101561657857808201518184015260208101905061655d565b83811115616587576000848401525b50505050565b600061659882616534565b915060008214156165ac576165ab6165e9565b5b600182039050919050565b600060028204905060018216806165cf57607f821691505b602082108114156165e3576165e2616618565b5b50919050565b7f4e487b7100000000000000000000000000000000000000000000000000000000600052601160045260246000fd5b7f4e487b7100000000000000000000000000000000000000000000000000000000600052602260045260246000fd5b6000601f19601f8301169050919050565b7f7472616e73666572206572720000000000000000000000000000000000000000600082015250565b7f73656e6465720000000000000000000000000000000000000000000000000000600082015250565b7f616c6c6f77616e63652065727200000000000000000000000000000000000000600082015250565b7f62616c616e636520657272000000000000000000000000000000000000000000600082015250565b7f7370656e64657200000000000000000000000000000000000000000000000000600082015250565b7f2173796e74680000000000000000000000000000000000000000000000000000600082015250565b7f6164647265737320657272000000000000000000000000000000000000000000600082015250565b7f4d7573742062652042415345206f7220544f4b454e0000000000000000000000600082015250565b6167a9816164e4565b81146167b457600080fd5b50565b6167c0816164f6565b81146167cb57600080fd5b50565b6167d781616502565b81146167e257600080fd5b50565b6167ee81616534565b81146167f957600080fd5b5056fea2646970667358221220d20acf44b25b20027acf5c8fa697d1633867cd4d99b031933f474293b27e30f264736f6c63430008030033a2646970667358221220675f5ebc380bd10b71147505b2d6ceafbafe8dba0f4f8a607a3a35a88e68953b64736f6c63430008030033",
  "linkReferences": {},
  "deployedLinkReferences": {}
}