{
  "_format": "hh-sol-artifact-1",
  "contractName": "Utils",
  "sourceName": "contracts/Utils.sol",
  "abi": [
    {
      "inputs": [
        {
          "internalType": "address",
          "name": "_base",
          "type": "address"
        }
      ],
      "stateMutability": "nonpayable",
      "type": "constructor"
    },
    {
      "inputs": [],
      "name": "BASE",
      "outputs": [
        {
          "internalType": "address",
          "name": "",
          "type": "address"
        }
      ],
      "stateMutability": "view",
      "type": "function"
    },
    {
      "inputs": [
        {
          "internalType": "uint256",
          "name": "amount",
          "type": "uint256"
        },
        {
          "internalType": "address",
          "name": "synth",
          "type": "address"
        }
      ],
      "name": "calcActualSynthUnits",
      "outputs": [
        {
          "internalType": "uint256",
          "name": "_output",
          "type": "uint256"
        }
      ],
      "stateMutability": "view",
      "type": "function"
    },
    {
      "inputs": [
        {
          "internalType": "address",
          "name": "pool",
          "type": "address"
        },
        {
          "internalType": "uint256",
          "name": "amount",
          "type": "uint256"
        }
      ],
      "name": "calcAsymmetricValueToken",
      "outputs": [
        {
          "internalType": "uint256",
          "name": "tokenValue",
          "type": "uint256"
        }
      ],
      "stateMutability": "view",
      "type": "function"
    },
    {
      "inputs": [
        {
          "internalType": "uint256",
          "name": "units",
          "type": "uint256"
        },
        {
          "internalType": "address",
          "name": "token",
          "type": "address"
        },
        {
          "internalType": "address",
          "name": "pool",
          "type": "address"
        }
      ],
      "name": "calcLiquidityHoldings",
      "outputs": [
        {
          "internalType": "uint256",
          "name": "share",
          "type": "uint256"
        }
      ],
      "stateMutability": "view",
      "type": "function"
    },
    {
      "inputs": [
        {
          "internalType": "uint256",
          "name": "b",
          "type": "uint256"
        },
        {
          "internalType": "uint256",
          "name": "B",
          "type": "uint256"
        },
        {
          "internalType": "uint256",
          "name": "t",
          "type": "uint256"
        },
        {
          "internalType": "uint256",
          "name": "T",
          "type": "uint256"
        },
        {
          "internalType": "uint256",
          "name": "P",
          "type": "uint256"
        }
      ],
      "name": "calcLiquidityUnits",
      "outputs": [
        {
          "internalType": "uint256",
          "name": "units",
          "type": "uint256"
        }
      ],
      "stateMutability": "view",
      "type": "function"
    },
    {
      "inputs": [
        {
          "internalType": "uint256",
          "name": "amount",
          "type": "uint256"
        },
        {
          "internalType": "address",
          "name": "token",
          "type": "address"
        },
        {
          "internalType": "address",
          "name": "pool",
          "type": "address"
        }
      ],
      "name": "calcLiquidityUnitsAsym",
      "outputs": [
        {
          "internalType": "uint256",
          "name": "units",
          "type": "uint256"
        }
      ],
      "stateMutability": "view",
      "type": "function"
    },
    {
      "inputs": [
        {
          "internalType": "uint256",
          "name": "bp",
          "type": "uint256"
        },
        {
          "internalType": "uint256",
          "name": "total",
          "type": "uint256"
        }
      ],
      "name": "calcPart",
      "outputs": [
        {
          "internalType": "uint256",
          "name": "",
          "type": "uint256"
        }
      ],
      "stateMutability": "pure",
      "type": "function"
    },
    {
      "inputs": [
        {
          "internalType": "uint256",
          "name": "part",
          "type": "uint256"
        },
        {
          "internalType": "uint256",
          "name": "total",
          "type": "uint256"
        },
        {
          "internalType": "uint256",
          "name": "amount",
          "type": "uint256"
        }
      ],
      "name": "calcShare",
      "outputs": [
        {
          "internalType": "uint256",
          "name": "share",
          "type": "uint256"
        }
      ],
      "stateMutability": "pure",
      "type": "function"
    },
    {
      "inputs": [
        {
          "internalType": "address",
          "name": "token",
          "type": "address"
        },
        {
          "internalType": "uint256",
          "name": "amount",
          "type": "uint256"
        }
      ],
      "name": "calcSpotValueInBase",
      "outputs": [
        {
          "internalType": "uint256",
          "name": "value",
          "type": "uint256"
        }
      ],
      "stateMutability": "view",
      "type": "function"
    },
    {
      "inputs": [
        {
          "internalType": "address",
          "name": "pool",
          "type": "address"
        },
        {
          "internalType": "uint256",
          "name": "amount",
          "type": "uint256"
        }
      ],
      "name": "calcSpotValueInBaseWithPool",
      "outputs": [
        {
          "internalType": "uint256",
          "name": "value",
          "type": "uint256"
        }
      ],
      "stateMutability": "view",
      "type": "function"
    },
    {
      "inputs": [
        {
          "internalType": "address",
          "name": "token",
          "type": "address"
        },
        {
          "internalType": "uint256",
          "name": "amount",
          "type": "uint256"
        }
      ],
      "name": "calcSpotValueInToken",
      "outputs": [
        {
          "internalType": "uint256",
          "name": "value",
          "type": "uint256"
        }
      ],
      "stateMutability": "view",
      "type": "function"
    },
    {
      "inputs": [
        {
          "internalType": "address",
          "name": "pool",
          "type": "address"
        },
        {
          "internalType": "uint256",
          "name": "amount",
          "type": "uint256"
        }
      ],
      "name": "calcSpotValueInTokenWithPool",
      "outputs": [
        {
          "internalType": "uint256",
          "name": "value",
          "type": "uint256"
        }
      ],
      "stateMutability": "view",
      "type": "function"
    },
    {
      "inputs": [
        {
          "internalType": "uint256",
          "name": "x",
          "type": "uint256"
        },
        {
          "internalType": "uint256",
          "name": "X",
          "type": "uint256"
        },
        {
          "internalType": "uint256",
          "name": "Y",
          "type": "uint256"
        }
      ],
      "name": "calcSwapFee",
      "outputs": [
        {
          "internalType": "uint256",
          "name": "output",
          "type": "uint256"
        }
      ],
      "stateMutability": "pure",
      "type": "function"
    },
    {
      "inputs": [
        {
          "internalType": "uint256",
          "name": "x",
          "type": "uint256"
        },
        {
          "internalType": "uint256",
          "name": "X",
          "type": "uint256"
        },
        {
          "internalType": "uint256",
          "name": "Y",
          "type": "uint256"
        }
      ],
      "name": "calcSwapOutput",
      "outputs": [
        {
          "internalType": "uint256",
          "name": "output",
          "type": "uint256"
        }
      ],
      "stateMutability": "pure",
      "type": "function"
    },
    {
      "inputs": [
        {
          "internalType": "address",
          "name": "token",
          "type": "address"
        },
        {
          "internalType": "uint256",
          "name": "amount",
          "type": "uint256"
        }
      ],
      "name": "calcSwapValueInBase",
      "outputs": [
        {
          "internalType": "uint256",
          "name": "_output",
          "type": "uint256"
        }
      ],
      "stateMutability": "view",
      "type": "function"
    },
    {
      "inputs": [
        {
          "internalType": "address",
          "name": "pool",
          "type": "address"
        },
        {
          "internalType": "uint256",
          "name": "amount",
          "type": "uint256"
        }
      ],
      "name": "calcSwapValueInBaseWithPool",
      "outputs": [
        {
          "internalType": "uint256",
          "name": "_output",
          "type": "uint256"
        }
      ],
      "stateMutability": "view",
      "type": "function"
    },
    {
      "inputs": [
        {
          "internalType": "address",
          "name": "synth",
          "type": "address"
        },
        {
          "internalType": "uint256",
          "name": "amount",
          "type": "uint256"
        }
      ],
      "name": "calcSwapValueInBaseWithSYNTH",
      "outputs": [
        {
          "internalType": "uint256",
          "name": "_output",
          "type": "uint256"
        }
      ],
      "stateMutability": "view",
      "type": "function"
    },
    {
      "inputs": [
        {
          "internalType": "address",
          "name": "token",
          "type": "address"
        },
        {
          "internalType": "uint256",
          "name": "amount",
          "type": "uint256"
        }
      ],
      "name": "calcSwapValueInToken",
      "outputs": [
        {
          "internalType": "uint256",
          "name": "_output",
          "type": "uint256"
        }
      ],
      "stateMutability": "view",
      "type": "function"
    },
    {
      "inputs": [
        {
          "internalType": "address",
          "name": "pool",
          "type": "address"
        },
        {
          "internalType": "uint256",
          "name": "amount",
          "type": "uint256"
        }
      ],
      "name": "calcSwapValueInTokenWithPool",
      "outputs": [
        {
          "internalType": "uint256",
          "name": "_output",
          "type": "uint256"
        }
      ],
      "stateMutability": "view",
      "type": "function"
    },
    {
      "inputs": [],
      "name": "getDeepestPool",
      "outputs": [
        {
          "internalType": "address",
          "name": "pool",
          "type": "address"
        }
      ],
      "stateMutability": "view",
      "type": "function"
    },
    {
      "inputs": [
        {
          "internalType": "uint256",
          "name": "totalSupply",
          "type": "uint256"
        },
        {
          "internalType": "uint256",
          "name": "maxSupply",
          "type": "uint256"
        }
      ],
      "name": "getFeeOnTransfer",
      "outputs": [
        {
          "internalType": "uint256",
          "name": "",
          "type": "uint256"
        }
      ],
      "stateMutability": "pure",
      "type": "function"
    },
    {
      "inputs": [
        {
          "internalType": "address",
          "name": "token",
          "type": "address"
        }
      ],
      "name": "getPool",
      "outputs": [
        {
          "internalType": "address",
          "name": "pool",
          "type": "address"
        }
      ],
      "stateMutability": "view",
      "type": "function"
    },
    {
      "inputs": [
        {
          "internalType": "address",
          "name": "token",
          "type": "address"
        }
      ],
      "name": "getPoolData",
      "outputs": [
        {
          "components": [
            {
              "internalType": "address",
              "name": "tokenAddress",
              "type": "address"
            },
            {
              "internalType": "address",
              "name": "poolAddress",
              "type": "address"
            },
            {
              "internalType": "uint256",
              "name": "genesis",
              "type": "uint256"
            },
            {
              "internalType": "uint256",
              "name": "baseAmount",
              "type": "uint256"
            },
            {
              "internalType": "uint256",
              "name": "tokenAmount",
              "type": "uint256"
            },
            {
              "internalType": "uint256",
              "name": "fees",
              "type": "uint256"
            },
            {
              "internalType": "uint256",
              "name": "volume",
              "type": "uint256"
            },
            {
              "internalType": "uint256",
              "name": "txCount",
              "type": "uint256"
            },
            {
              "internalType": "uint256",
              "name": "poolUnits",
              "type": "uint256"
            }
          ],
          "internalType": "struct Utils.PoolDataStruct",
          "name": "poolData",
          "type": "tuple"
        }
      ],
      "stateMutability": "view",
      "type": "function"
    },
    {
      "inputs": [
        {
          "internalType": "address",
          "name": "token",
          "type": "address"
        },
        {
          "internalType": "uint256",
          "name": "units",
          "type": "uint256"
        }
      ],
      "name": "getPoolShareWeight",
      "outputs": [
        {
          "internalType": "uint256",
          "name": "weight",
          "type": "uint256"
        }
      ],
      "stateMutability": "view",
      "type": "function"
    },
    {
      "inputs": [
        {
          "internalType": "uint256",
          "name": "b",
          "type": "uint256"
        },
        {
          "internalType": "uint256",
          "name": "B",
          "type": "uint256"
        },
        {
          "internalType": "uint256",
          "name": "t",
          "type": "uint256"
        },
        {
          "internalType": "uint256",
          "name": "T",
          "type": "uint256"
        }
      ],
      "name": "getSlipAdustment",
      "outputs": [
        {
          "internalType": "uint256",
          "name": "slipAdjustment",
          "type": "uint256"
        }
      ],
      "stateMutability": "view",
      "type": "function"
    },
    {
      "inputs": [],
      "name": "one",
      "outputs": [
        {
          "internalType": "uint256",
          "name": "",
          "type": "uint256"
        }
      ],
      "stateMutability": "view",
      "type": "function"
    }
  ],
  "bytecode": "0x6080604052670de0b6b3a76400006001553480156200001d57600080fd5b5060405162002f8138038062002f818339818101604052810190620000439190620000a1565b806000806101000a81548173ffffffffffffffffffffffffffffffffffffffff021916908373ffffffffffffffffffffffffffffffffffffffff160217905550506200011b565b6000815190506200009b8162000101565b92915050565b600060208284031215620000b457600080fd5b6000620000c4848285016200008a565b91505092915050565b6000620000da82620000e1565b9050919050565b600073ffffffffffffffffffffffffffffffffffffffff82169050919050565b6200010c81620000cd565b81146200011857600080fd5b50565b612e56806200012b6000396000f3fe608060405234801561001057600080fd5b506004361061018e5760003560e01c8063714270ab116100de578063b80e44b811610097578063c5c11ee911610071578063c5c11ee91461058f578063c889a4df146105bf578063ca2e5b65146105ef578063ec342ad01461061f5761018e565b8063b80e44b8146104ff578063bbe4f6db1461052f578063c19387df1461055f5761018e565b8063714270ab14610403578063896a708c146104335780638b18b11514610463578063901717d1146104935780639355ea4d146104b1578063a875e5f5146104e15761018e565b8063564982021161014b5780635f2c12e8116101255780635f2c12e814610343578063698f44a3146103735780636da0f1fc146103a3578063701baaf3146103d35761018e565b806356498202146102b35780635a7b2ed3146102e35780635ad5a963146103135761018e565b806313d21cdf146101935780631ba326c4146101c35780631c7fbff6146101f357806320ec04ca146102235780633659919f14610253578063563d5e0514610283575b600080fd5b6101ad60048036038101906101a8919061273f565b61063d565b6040516101ba9190612b60565b60405180910390f35b6101dd60048036038101906101d891906128e6565b6109e9565b6040516101ea9190612b7c565b60405180910390f35b61020d60048036038101906102089190612791565b610a21565b60405161021a9190612b7c565b60405180910390f35b61023d60048036038101906102389190612791565b610bc9565b60405161024a9190612b7c565b60405180910390f35b61026d60048036038101906102689190612791565b610cef565b60405161027a9190612b7c565b60405180910390f35b61029d60048036038101906102989190612791565b610e09565b6040516102aa9190612b7c565b60405180910390f35b6102cd60048036038101906102c89190612791565b610f2e565b6040516102da9190612b7c565b60405180910390f35b6102fd60048036038101906102f8919061285b565b611166565b60405161030a9190612b7c565b60405180910390f35b61032d60048036038101906103289190612791565b611367565b60405161033a9190612b7c565b60405180910390f35b61035d60048036038101906103589190612791565b61148d565b60405161036a9190612b7c565b60405180910390f35b61038d60048036038101906103889190612791565b6115b2565b60405161039a9190612b7c565b60405180910390f35b6103bd60048036038101906103b89190612935565b6116cc565b6040516103ca9190612b7c565b60405180910390f35b6103ed60048036038101906103e891906128e6565b61178b565b6040516103fa9190612b7c565b60405180910390f35b61041d600480360381019061041891906128aa565b6117e4565b60405161042a9190612b7c565b60405180910390f35b61044d600480360381019061044891906128e6565b611840565b60405161045a9190612b7c565b60405180910390f35b61047d600480360381019061047891906128aa565b611899565b60405161048a9190612b7c565b60405180910390f35b61049b6118af565b6040516104a89190612b7c565b60405180910390f35b6104cb60048036038101906104c6919061285b565b6118b5565b6040516104d89190612b7c565b60405180910390f35b6104e9611ad3565b6040516104f69190612b25565b60405180910390f35b61051960048036038101906105149190612791565b611da3565b6040516105269190612b7c565b60405180910390f35b6105496004803603810190610544919061273f565b611ec8565b6040516105569190612b25565b60405180910390f35b61057960048036038101906105749190612791565b611fde565b6040516105869190612b7c565b60405180910390f35b6105a960048036038101906105a49190612998565b612103565b6040516105b69190612b7c565b60405180910390f35b6105d960048036038101906105d4919061281f565b6121b1565b6040516105e69190612b7c565b60405180910390f35b61060960048036038101906106049190612791565b612478565b6040516106169190612b7c565b60405180910390f35b610627612594565b6040516106349190612b25565b60405180910390f35b61064561265e565b600061064f6125b8565b73ffffffffffffffffffffffffffffffffffffffff1663b99b0a0c6040518163ffffffff1660e01b815260040160206040518083038186803b15801561069457600080fd5b505afa1580156106a8573d6000803e3d6000fd5b505050506040513d601f19601f820116820180604052508101906106cc9190612768565b73ffffffffffffffffffffffffffffffffffffffff1663bbe4f6db846040518263ffffffff1660e01b81526004016107049190612b25565b60206040518083038186803b15801561071c57600080fd5b505afa158015610730573d6000803e3d6000fd5b505050506040513d601f19601f820116820180604052508101906107549190612768565b905080826020019073ffffffffffffffffffffffffffffffffffffffff16908173ffffffffffffffffffffffffffffffffffffffff168152505082826000019073ffffffffffffffffffffffffffffffffffffffff16908173ffffffffffffffffffffffffffffffffffffffff16815250508073ffffffffffffffffffffffffffffffffffffffff1663a7f0b3de6040518163ffffffff1660e01b815260040160206040518083038186803b15801561080c57600080fd5b505afa158015610820573d6000803e3d6000fd5b505050506040513d601f19601f8201168201806040525081019061084491906127f6565b8260400181815250508073ffffffffffffffffffffffffffffffffffffffff16634864d1406040518163ffffffff1660e01b815260040160206040518083038186803b15801561089357600080fd5b505afa1580156108a7573d6000803e3d6000fd5b505050506040513d601f19601f820116820180604052508101906108cb91906127f6565b8260600181815250508073ffffffffffffffffffffffffffffffffffffffff1663eec7faa16040518163ffffffff1660e01b815260040160206040518083038186803b15801561091a57600080fd5b505afa15801561092e573d6000803e3d6000fd5b505050506040513d601f19601f8201168201806040525081019061095291906127f6565b8260800181815250508073ffffffffffffffffffffffffffffffffffffffff166318160ddd6040518163ffffffff1660e01b815260040160206040518083038186803b1580156109a157600080fd5b505afa1580156109b5573d6000803e3d6000fd5b505050506040513d601f19601f820116820180604052508101906109d991906127f6565b8261010001818152505050919050565b6000828411156109f7578293505b6000831115610a1a57828483610a0d9190612c2f565b610a179190612bfe565b90505b9392505050565b6000808373ffffffffffffffffffffffffffffffffffffffff1663484920316040518163ffffffff1660e01b815260040160206040518083038186803b158015610a6a57600080fd5b505afa158015610a7e573d6000803e3d6000fd5b505050506040513d601f19601f82011682018060405250810190610aa29190612768565b90506000610aae6125b8565b73ffffffffffffffffffffffffffffffffffffffff1663b99b0a0c6040518163ffffffff1660e01b815260040160206040518083038186803b158015610af357600080fd5b505afa158015610b07573d6000803e3d6000fd5b505050506040513d601f19601f82011682018060405250810190610b2b9190612768565b73ffffffffffffffffffffffffffffffffffffffff1663bbe4f6db836040518263ffffffff1660e01b8152600401610b639190612b25565b60206040518083038186803b158015610b7b57600080fd5b505afa158015610b8f573d6000803e3d6000fd5b505050506040513d601f19601f82011682018060405250810190610bb39190612768565b9050610bbf8185610cef565b9250505092915050565b6000808373ffffffffffffffffffffffffffffffffffffffff16634864d1406040518163ffffffff1660e01b815260040160206040518083038186803b158015610c1257600080fd5b505afa158015610c26573d6000803e3d6000fd5b505050506040513d601f19601f82011682018060405250810190610c4a91906127f6565b905060008473ffffffffffffffffffffffffffffffffffffffff1663eec7faa16040518163ffffffff1660e01b815260040160206040518083038186803b158015610c9457600080fd5b505afa158015610ca8573d6000803e3d6000fd5b505050506040513d601f19601f82011682018060405250810190610ccc91906127f6565b9050808285610cdb9190612c2f565b610ce59190612bfe565b9250505092915050565b6000808373ffffffffffffffffffffffffffffffffffffffff16634864d1406040518163ffffffff1660e01b815260040160206040518083038186803b158015610d3857600080fd5b505afa158015610d4c573d6000803e3d6000fd5b505050506040513d601f19601f82011682018060405250810190610d7091906127f6565b905060008473ffffffffffffffffffffffffffffffffffffffff1663eec7faa16040518163ffffffff1660e01b815260040160206040518083038186803b158015610dba57600080fd5b505afa158015610dce573d6000803e3d6000fd5b505050506040513d601f19601f82011682018060405250810190610df291906127f6565b9050610dff84828461178b565b9250505092915050565b600080610e146125b8565b73ffffffffffffffffffffffffffffffffffffffff1663b99b0a0c6040518163ffffffff1660e01b815260040160206040518083038186803b158015610e5957600080fd5b505afa158015610e6d573d6000803e3d6000fd5b505050506040513d601f19601f82011682018060405250810190610e919190612768565b73ffffffffffffffffffffffffffffffffffffffff1663bbe4f6db856040518263ffffffff1660e01b8152600401610ec99190612b25565b60206040518083038186803b158015610ee157600080fd5b505afa158015610ef5573d6000803e3d6000fd5b505050506040513d601f19601f82011682018060405250810190610f199190612768565b9050610f258184611367565b91505092915050565b600080611036838573ffffffffffffffffffffffffffffffffffffffff166318160ddd6040518163ffffffff1660e01b815260040160206040518083038186803b158015610f7b57600080fd5b505afa158015610f8f573d6000803e3d6000fd5b505050506040513d601f19601f82011682018060405250810190610fb391906127f6565b8673ffffffffffffffffffffffffffffffffffffffff16634864d1406040518163ffffffff1660e01b815260040160206040518083038186803b158015610ff957600080fd5b505afa15801561100d573d6000803e3d6000fd5b505050506040513d601f19601f8201168201806040525081019061103191906127f6565b6109e9565b9050600061113f848673ffffffffffffffffffffffffffffffffffffffff166318160ddd6040518163ffffffff1660e01b815260040160206040518083038186803b15801561108457600080fd5b505afa158015611098573d6000803e3d6000fd5b505050506040513d601f19601f820116820180604052508101906110bc91906127f6565b8773ffffffffffffffffffffffffffffffffffffffff1663eec7faa16040518163ffffffff1660e01b815260040160206040518083038186803b15801561110257600080fd5b505afa158015611116573d6000803e3d6000fd5b505050506040513d601f19601f8201168201806040525081019061113a91906127f6565b6109e9565b9050600061114d86846115b2565b9050808261115b9190612ba8565b935050505092915050565b60008060008054906101000a900473ffffffffffffffffffffffffffffffffffffffff1673ffffffffffffffffffffffffffffffffffffffff168473ffffffffffffffffffffffffffffffffffffffff161415611242578273ffffffffffffffffffffffffffffffffffffffff16634864d1406040518163ffffffff1660e01b815260040160206040518083038186803b15801561120357600080fd5b505afa158015611217573d6000803e3d6000fd5b505050506040513d601f19601f8201168201806040525081019061123b91906127f6565b90506112c3565b8273ffffffffffffffffffffffffffffffffffffffff1663eec7faa16040518163ffffffff1660e01b815260040160206040518083038186803b15801561128857600080fd5b505afa15801561129c573d6000803e3d6000fd5b505050506040513d601f19601f820116820180604052508101906112c091906127f6565b90505b60008373ffffffffffffffffffffffffffffffffffffffff166318160ddd6040518163ffffffff1660e01b815260040160206040518083038186803b15801561130b57600080fd5b505afa15801561131f573d6000803e3d6000fd5b505050506040513d601f19601f8201168201806040525081019061134391906127f6565b90508086836113529190612c2f565b61135c9190612bfe565b925050509392505050565b6000808373ffffffffffffffffffffffffffffffffffffffff16634864d1406040518163ffffffff1660e01b815260040160206040518083038186803b1580156113b057600080fd5b505afa1580156113c4573d6000803e3d6000fd5b505050506040513d601f19601f820116820180604052508101906113e891906127f6565b905060008473ffffffffffffffffffffffffffffffffffffffff1663eec7faa16040518163ffffffff1660e01b815260040160206040518083038186803b15801561143257600080fd5b505afa158015611446573d6000803e3d6000fd5b505050506040513d601f19601f8201168201806040525081019061146a91906127f6565b90508181856114799190612c2f565b6114839190612bfe565b9250505092915050565b6000806114986125b8565b73ffffffffffffffffffffffffffffffffffffffff1663b99b0a0c6040518163ffffffff1660e01b815260040160206040518083038186803b1580156114dd57600080fd5b505afa1580156114f1573d6000803e3d6000fd5b505050506040513d601f19601f820116820180604052508101906115159190612768565b73ffffffffffffffffffffffffffffffffffffffff1663bbe4f6db856040518263ffffffff1660e01b815260040161154d9190612b25565b60206040518083038186803b15801561156557600080fd5b505afa158015611579573d6000803e3d6000fd5b505050506040513d601f19601f8201168201806040525081019061159d9190612768565b90506115a981846115b2565b91505092915050565b6000808373ffffffffffffffffffffffffffffffffffffffff16634864d1406040518163ffffffff1660e01b815260040160206040518083038186803b1580156115fb57600080fd5b505afa15801561160f573d6000803e3d6000fd5b505050506040513d601f19601f8201168201806040525081019061163391906127f6565b905060008473ffffffffffffffffffffffffffffffffffffffff1663eec7faa16040518163ffffffff1660e01b815260040160206040518083038186803b15801561167d57600080fd5b505afa158015611691573d6000803e3d6000fd5b505050506040513d601f19601f820116820180604052508101906116b591906127f6565b90506116c284838361178b565b9250505092915050565b60008083856116db9190612c2f565b9050600083876116eb9190612c2f565b90506000866002896116fd9190612c2f565b6117079190612ba8565b9050600085876117179190612ba8565b905060008385111561173657838561172f9190612c89565b9050611745565b84846117429190612c89565b90505b600082846117539190612c2f565b905080600154836117649190612c2f565b61176e9190612bfe565b60015461177b9190612c89565b9650505050505050949350505050565b600080828461179a9190612c2f565b856117a59190612c2f565b9050600084866117b59190612ba8565b85876117c19190612ba8565b6117cb9190612c2f565b905080826117d99190612bfe565b925050509392505050565b600061271083111561182b576040517f08c379a000000000000000000000000000000000000000000000000000000000815260040161182290612b40565b60405180910390fd5b61183883612710846109e9565b905092915050565b600080828561184f9190612c2f565b8561185a9190612c2f565b90506000848661186a9190612ba8565b85876118769190612ba8565b6118809190612c2f565b9050808261188e9190612bfe565b925050509392505050565b60006118a7838360646109e9565b905092915050565b60015481565b60008060008054906101000a900473ffffffffffffffffffffffffffffffffffffffff1673ffffffffffffffffffffffffffffffffffffffff168473ffffffffffffffffffffffffffffffffffffffff161415611991578273ffffffffffffffffffffffffffffffffffffffff16634864d1406040518163ffffffff1660e01b815260040160206040518083038186803b15801561195257600080fd5b505afa158015611966573d6000803e3d6000fd5b505050506040513d601f19601f8201168201806040525081019061198a91906127f6565b9050611a12565b8273ffffffffffffffffffffffffffffffffffffffff1663eec7faa16040518163ffffffff1660e01b815260040160206040518083038186803b1580156119d757600080fd5b505afa1580156119eb573d6000803e3d6000fd5b505050506040513d601f19601f82011682018060405250810190611a0f91906127f6565b90505b60008373ffffffffffffffffffffffffffffffffffffffff166318160ddd6040518163ffffffff1660e01b815260040160206040518083038186803b158015611a5a57600080fd5b505afa158015611a6e573d6000803e3d6000fd5b505050506040513d601f19601f82011682018060405250810190611a9291906127f6565b90506000600290508287611aa69190612ba8565b81611ab19190612c2f565b8783611abd9190612c2f565b611ac79190612bfe565b93505050509392505050565b600080611ade6125b8565b73ffffffffffffffffffffffffffffffffffffffff1663b99b0a0c6040518163ffffffff1660e01b815260040160206040518083038186803b158015611b2357600080fd5b505afa158015611b37573d6000803e3d6000fd5b505050506040513d601f19601f82011682018060405250810190611b5b9190612768565b73ffffffffffffffffffffffffffffffffffffffff1663f525cb686040518163ffffffff1660e01b815260040160206040518083038186803b158015611ba057600080fd5b505afa158015611bb4573d6000803e3d6000fd5b505050506040513d601f19601f82011682018060405250810190611bd891906127f6565b90506000805b82811015611d9d576000611bf06125b8565b73ffffffffffffffffffffffffffffffffffffffff1663b99b0a0c6040518163ffffffff1660e01b815260040160206040518083038186803b158015611c3557600080fd5b505afa158015611c49573d6000803e3d6000fd5b505050506040513d601f19601f82011682018060405250810190611c6d9190612768565b73ffffffffffffffffffffffffffffffffffffffff16638e8093d6836040518263ffffffff1660e01b8152600401611ca59190612b7c565b60206040518083038186803b158015611cbd57600080fd5b505afa158015611cd1573d6000803e3d6000fd5b505050506040513d601f19601f82011682018060405250810190611cf59190612768565b905060008173ffffffffffffffffffffffffffffffffffffffff16634864d1406040518163ffffffff1660e01b815260040160206040518083038186803b158015611d3f57600080fd5b505afa158015611d53573d6000803e3d6000fd5b505050506040513d601f19601f82011682018060405250810190611d7791906127f6565b905083811115611d88578093508195505b50508080611d9590612d0b565b915050611bde565b50505090565b600080611dae6125b8565b73ffffffffffffffffffffffffffffffffffffffff1663b99b0a0c6040518163ffffffff1660e01b815260040160206040518083038186803b158015611df357600080fd5b505afa158015611e07573d6000803e3d6000fd5b505050506040513d601f19601f82011682018060405250810190611e2b9190612768565b73ffffffffffffffffffffffffffffffffffffffff1663bbe4f6db856040518263ffffffff1660e01b8152600401611e639190612b25565b60206040518083038186803b158015611e7b57600080fd5b505afa158015611e8f573d6000803e3d6000fd5b505050506040513d601f19601f82011682018060405250810190611eb39190612768565b9050611ebf8184610cef565b91505092915050565b6000611ed26125b8565b73ffffffffffffffffffffffffffffffffffffffff1663b99b0a0c6040518163ffffffff1660e01b815260040160206040518083038186803b158015611f1757600080fd5b505afa158015611f2b573d6000803e3d6000fd5b505050506040513d601f19601f82011682018060405250810190611f4f9190612768565b73ffffffffffffffffffffffffffffffffffffffff1663bbe4f6db836040518263ffffffff1660e01b8152600401611f879190612b25565b60206040518083038186803b158015611f9f57600080fd5b505afa158015611fb3573d6000803e3d6000fd5b505050506040513d601f19601f82011682018060405250810190611fd79190612768565b9050919050565b600080611fe96125b8565b73ffffffffffffffffffffffffffffffffffffffff1663b99b0a0c6040518163ffffffff1660e01b815260040160206040518083038186803b15801561202e57600080fd5b505afa158015612042573d6000803e3d6000fd5b505050506040513d601f19601f820116820180604052508101906120669190612768565b73ffffffffffffffffffffffffffffffffffffffff1663bbe4f6db856040518263ffffffff1660e01b815260040161209e9190612b25565b60206040518083038186803b1580156120b657600080fd5b505afa1580156120ca573d6000803e3d6000fd5b505050506040513d601f19601f820116820180604052508101906120ee9190612768565b90506120fa8184610bc9565b91505092915050565b600080821415612115578590506121a8565b6000612123878787876116cc565b9050600086866121339190612c2f565b9050600088866121439190612c2f565b90506000600289886121559190612c2f565b61215f9190612c2f565b905060008183856121709190612ba8565b8861217b9190612c2f565b6121859190612bfe565b905060015485826121969190612c2f565b6121a09190612bfe565b955050505050505b95945050505050565b6000808273ffffffffffffffffffffffffffffffffffffffff1663484920316040518163ffffffff1660e01b815260040160206040518083038186803b1580156121fa57600080fd5b505afa15801561220e573d6000803e3d6000fd5b505050506040513d601f19601f820116820180604052508101906122329190612768565b9050600061223e6125b8565b73ffffffffffffffffffffffffffffffffffffffff1663b99b0a0c6040518163ffffffff1660e01b815260040160206040518083038186803b15801561228357600080fd5b505afa158015612297573d6000803e3d6000fd5b505050506040513d601f19601f820116820180604052508101906122bb9190612768565b73ffffffffffffffffffffffffffffffffffffffff1663bbe4f6db836040518263ffffffff1660e01b81526004016122f39190612b25565b60206040518083038186803b15801561230b57600080fd5b505afa15801561231f573d6000803e3d6000fd5b505050506040513d601f19601f820116820180604052508101906123439190612768565b905060008173ffffffffffffffffffffffffffffffffffffffff16634864d1406040518163ffffffff1660e01b815260040160206040518083038186803b15801561238d57600080fd5b505afa1580156123a1573d6000803e3d6000fd5b505050506040513d601f19601f820116820180604052508101906123c591906127f6565b905060008273ffffffffffffffffffffffffffffffffffffffff1663eec7faa16040518163ffffffff1660e01b815260040160206040518083038186803b15801561240f57600080fd5b505afa158015612423573d6000803e3d6000fd5b505050506040513d601f19601f8201168201806040525081019061244791906127f6565b90508060026124569190612c2f565b82886124629190612c2f565b61246c9190612bfe565b94505050505092915050565b60008061248484611ec8565b905061258b838273ffffffffffffffffffffffffffffffffffffffff166318160ddd6040518163ffffffff1660e01b815260040160206040518083038186803b1580156124d057600080fd5b505afa1580156124e4573d6000803e3d6000fd5b505050506040513d601f19601f8201168201806040525081019061250891906127f6565b8373ffffffffffffffffffffffffffffffffffffffff16634864d1406040518163ffffffff1660e01b815260040160206040518083038186803b15801561254e57600080fd5b505afa158015612562573d6000803e3d6000fd5b505050506040513d601f19601f8201168201806040525081019061258691906127f6565b6109e9565b91505092915050565b60008054906101000a900473ffffffffffffffffffffffffffffffffffffffff1681565b60008060009054906101000a900473ffffffffffffffffffffffffffffffffffffffff1673ffffffffffffffffffffffffffffffffffffffff166398fabd3a6040518163ffffffff1660e01b815260040160206040518083038186803b15801561262157600080fd5b505afa158015612635573d6000803e3d6000fd5b505050506040513d601f19601f8201168201806040525081019061265991906127cd565b905090565b604051806101200160405280600073ffffffffffffffffffffffffffffffffffffffff168152602001600073ffffffffffffffffffffffffffffffffffffffff168152602001600081526020016000815260200160008152602001600081526020016000815260200160008152602001600081525090565b6000813590506126e581612ddb565b92915050565b6000815190506126fa81612ddb565b92915050565b60008151905061270f81612df2565b92915050565b60008135905061272481612e09565b92915050565b60008151905061273981612e09565b92915050565b60006020828403121561275157600080fd5b600061275f848285016126d6565b91505092915050565b60006020828403121561277a57600080fd5b6000612788848285016126eb565b91505092915050565b600080604083850312156127a457600080fd5b60006127b2858286016126d6565b92505060206127c385828601612715565b9150509250929050565b6000602082840312156127df57600080fd5b60006127ed84828501612700565b91505092915050565b60006020828403121561280857600080fd5b60006128168482850161272a565b91505092915050565b6000806040838503121561283257600080fd5b600061284085828601612715565b9250506020612851858286016126d6565b9150509250929050565b60008060006060848603121561287057600080fd5b600061287e86828701612715565b935050602061288f868287016126d6565b92505060406128a0868287016126d6565b9150509250925092565b600080604083850312156128bd57600080fd5b60006128cb85828601612715565b92505060206128dc85828601612715565b9150509250929050565b6000806000606084860312156128fb57600080fd5b600061290986828701612715565b935050602061291a86828701612715565b925050604061292b86828701612715565b9150509250925092565b6000806000806080858703121561294b57600080fd5b600061295987828801612715565b945050602061296a87828801612715565b935050604061297b87828801612715565b925050606061298c87828801612715565b91505092959194509250565b600080600080600060a086880312156129b057600080fd5b60006129be88828901612715565b95505060206129cf88828901612715565b94505060406129e088828901612715565b93505060606129f188828901612715565b9250506080612a0288828901612715565b9150509295509295909350565b612a1881612cbd565b82525050565b612a2781612cbd565b82525050565b6000612a3a601283612b97565b9150612a4582612db2565b602082019050919050565b61012082016000820151612a676000850182612a0f565b506020820151612a7a6020850182612a0f565b506040820151612a8d6040850182612b07565b506060820151612aa06060850182612b07565b506080820151612ab36080850182612b07565b5060a0820151612ac660a0850182612b07565b5060c0820151612ad960c0850182612b07565b5060e0820151612aec60e0850182612b07565b50610100820151612b01610100850182612b07565b50505050565b612b1081612d01565b82525050565b612b1f81612d01565b82525050565b6000602082019050612b3a6000830184612a1e565b92915050565b60006020820190508181036000830152612b5981612a2d565b9050919050565b600061012082019050612b766000830184612a50565b92915050565b6000602082019050612b916000830184612b16565b92915050565b600082825260208201905092915050565b6000612bb382612d01565b9150612bbe83612d01565b9250827fffffffffffffffffffffffffffffffffffffffffffffffffffffffffffffffff03821115612bf357612bf2612d54565b5b828201905092915050565b6000612c0982612d01565b9150612c1483612d01565b925082612c2457612c23612d83565b5b828204905092915050565b6000612c3a82612d01565b9150612c4583612d01565b9250817fffffffffffffffffffffffffffffffffffffffffffffffffffffffffffffffff0483118215151615612c7e57612c7d612d54565b5b828202905092915050565b6000612c9482612d01565b9150612c9f83612d01565b925082821015612cb257612cb1612d54565b5b828203905092915050565b6000612cc882612ce1565b9050919050565b6000612cda82612cbd565b9050919050565b600073ffffffffffffffffffffffffffffffffffffffff82169050919050565b6000819050919050565b6000612d1682612d01565b91507fffffffffffffffffffffffffffffffffffffffffffffffffffffffffffffffff821415612d4957612d48612d54565b5b600182019050919050565b7f4e487b7100000000000000000000000000000000000000000000000000000000600052601160045260246000fd5b7f4e487b7100000000000000000000000000000000000000000000000000000000600052601260045260246000fd5b7f4d75737420626520636f72726563742042500000000000000000000000000000600082015250565b612de481612cbd565b8114612def57600080fd5b50565b612dfb81612ccf565b8114612e0657600080fd5b50565b612e1281612d01565b8114612e1d57600080fd5b5056fea264697066735822122065b9df99abe928c782cb70e2d75c9c7e0c35be65b985a97d5d607fc324683b2864736f6c63430008030033",
  "linkReferences": {},
  "deployedLinkReferences": {}
}