{
  "_format": "hh-sol-artifact-1",
  "contractName": "Synth",
  "sourceName": "contracts/Synth.sol",
  "abi": [
    {
      "inputs": [
        {
          "internalType": "address",
          "name": "_base",
          "type": "address"
        },
        {
          "internalType": "address",
          "name": "_token",
          "type": "address"
        }
      ],
      "stateMutability": "nonpayable",
      "type": "constructor"
    },
    {
      "anonymous": false,
      "inputs": [
        {
          "indexed": true,
          "internalType": "address",
          "name": "owner",
          "type": "address"
        },
        {
          "indexed": true,
          "internalType": "address",
          "name": "spender",
          "type": "address"
        },
        {
          "indexed": false,
          "internalType": "uint256",
          "name": "value",
          "type": "uint256"
        }
      ],
      "name": "Approval",
      "type": "event"
    },
    {
      "anonymous": false,
      "inputs": [
        {
          "indexed": true,
          "internalType": "address",
          "name": "from",
          "type": "address"
        },
        {
          "indexed": true,
          "internalType": "address",
          "name": "to",
          "type": "address"
        },
        {
          "indexed": false,
          "internalType": "uint256",
          "name": "value",
          "type": "uint256"
        }
      ],
      "name": "Transfer",
      "type": "event"
    },
    {
      "inputs": [],
      "name": "BASE",
      "outputs": [
        {
          "internalType": "address",
          "name": "",
          "type": "address"
        }
      ],
      "stateMutability": "view",
      "type": "function"
    },
    {
      "inputs": [],
      "name": "DEPLOYER",
      "outputs": [
        {
          "internalType": "address",
          "name": "",
          "type": "address"
        }
      ],
      "stateMutability": "view",
      "type": "function"
    },
    {
      "inputs": [],
      "name": "LayerONE",
      "outputs": [
        {
          "internalType": "address",
          "name": "",
          "type": "address"
        }
      ],
      "stateMutability": "view",
      "type": "function"
    },
    {
      "inputs": [
        {
          "internalType": "address",
          "name": "owner",
          "type": "address"
        },
        {
          "internalType": "address",
          "name": "spender",
          "type": "address"
        }
      ],
      "name": "allowance",
      "outputs": [
        {
          "internalType": "uint256",
          "name": "",
          "type": "uint256"
        }
      ],
      "stateMutability": "view",
      "type": "function"
    },
    {
      "inputs": [
        {
          "internalType": "address",
          "name": "spender",
          "type": "address"
        },
        {
          "internalType": "uint256",
          "name": "amount",
          "type": "uint256"
        }
      ],
      "name": "approve",
      "outputs": [
        {
          "internalType": "bool",
          "name": "",
          "type": "bool"
        }
      ],
      "stateMutability": "nonpayable",
      "type": "function"
    },
    {
      "inputs": [
        {
          "internalType": "address",
          "name": "recipient",
          "type": "address"
        },
        {
          "internalType": "uint256",
          "name": "amount",
          "type": "uint256"
        },
        {
          "internalType": "bytes",
          "name": "data",
          "type": "bytes"
        }
      ],
      "name": "approveAndCall",
      "outputs": [
        {
          "internalType": "bool",
          "name": "",
          "type": "bool"
        }
      ],
      "stateMutability": "nonpayable",
      "type": "function"
    },
    {
      "inputs": [
        {
          "internalType": "address",
          "name": "account",
          "type": "address"
        }
      ],
      "name": "balanceOf",
      "outputs": [
        {
          "internalType": "uint256",
          "name": "",
          "type": "uint256"
        }
      ],
      "stateMutability": "view",
      "type": "function"
    },
    {
      "inputs": [
        {
          "internalType": "uint256",
          "name": "amount",
          "type": "uint256"
        }
      ],
      "name": "burn",
      "outputs": [],
      "stateMutability": "nonpayable",
      "type": "function"
    },
    {
      "inputs": [
        {
          "internalType": "address",
          "name": "account",
          "type": "address"
        },
        {
          "internalType": "uint256",
          "name": "amount",
          "type": "uint256"
        }
      ],
      "name": "burnFrom",
      "outputs": [],
      "stateMutability": "nonpayable",
      "type": "function"
    },
    {
      "inputs": [],
      "name": "burnSynth",
      "outputs": [
        {
          "internalType": "bool",
          "name": "",
          "type": "bool"
        }
      ],
      "stateMutability": "nonpayable",
      "type": "function"
    },
    {
      "inputs": [],
      "name": "decimals",
      "outputs": [
        {
          "internalType": "uint8",
          "name": "",
          "type": "uint8"
        }
      ],
      "stateMutability": "view",
      "type": "function"
    },
    {
      "inputs": [
        {
          "internalType": "address",
          "name": "spender",
          "type": "address"
        },
        {
          "internalType": "uint256",
          "name": "subtractedValue",
          "type": "uint256"
        }
      ],
      "name": "decreaseAllowance",
      "outputs": [
        {
          "internalType": "bool",
          "name": "",
          "type": "bool"
        }
      ],
      "stateMutability": "nonpayable",
      "type": "function"
    },
    {
      "inputs": [],
      "name": "genesis",
      "outputs": [
        {
          "internalType": "uint256",
          "name": "",
          "type": "uint256"
        }
      ],
      "stateMutability": "view",
      "type": "function"
    },
    {
      "inputs": [
        {
          "internalType": "address",
          "name": "pool",
          "type": "address"
        }
      ],
      "name": "getmapAddress_LPBalance",
      "outputs": [
        {
          "internalType": "uint256",
          "name": "",
          "type": "uint256"
        }
      ],
      "stateMutability": "view",
      "type": "function"
    },
    {
      "inputs": [
        {
          "internalType": "address",
          "name": "pool",
          "type": "address"
        }
      ],
      "name": "getmapAddress_LPDebt",
      "outputs": [
        {
          "internalType": "uint256",
          "name": "",
          "type": "uint256"
        }
      ],
      "stateMutability": "view",
      "type": "function"
    },
    {
      "inputs": [
        {
          "internalType": "address",
          "name": "spender",
          "type": "address"
        },
        {
          "internalType": "uint256",
          "name": "addedValue",
          "type": "uint256"
        }
      ],
      "name": "increaseAllowance",
      "outputs": [
        {
          "internalType": "bool",
          "name": "",
          "type": "bool"
        }
      ],
      "stateMutability": "nonpayable",
      "type": "function"
    },
    {
      "inputs": [
        {
          "internalType": "address",
          "name": "",
          "type": "address"
        }
      ],
      "name": "mapSynth_LPBalance",
      "outputs": [
        {
          "internalType": "uint256",
          "name": "",
          "type": "uint256"
        }
      ],
      "stateMutability": "view",
      "type": "function"
    },
    {
      "inputs": [
        {
          "internalType": "address",
          "name": "",
          "type": "address"
        }
      ],
      "name": "mapSynth_LPDebt",
      "outputs": [
        {
          "internalType": "uint256",
          "name": "",
          "type": "uint256"
        }
      ],
      "stateMutability": "view",
      "type": "function"
    },
    {
      "inputs": [
        {
          "internalType": "address",
          "name": "member",
          "type": "address"
        },
        {
          "internalType": "uint256",
          "name": "amount",
          "type": "uint256"
        }
      ],
      "name": "mintSynth",
      "outputs": [
        {
          "internalType": "uint256",
          "name": "syntheticAmount",
          "type": "uint256"
        }
      ],
      "stateMutability": "nonpayable",
      "type": "function"
    },
    {
      "inputs": [],
      "name": "name",
      "outputs": [
        {
          "internalType": "string",
          "name": "",
          "type": "string"
        }
      ],
      "stateMutability": "view",
      "type": "function"
    },
    {
      "inputs": [
        {
          "internalType": "address",
          "name": "pool",
          "type": "address"
        }
      ],
      "name": "realise",
      "outputs": [],
      "stateMutability": "nonpayable",
      "type": "function"
    },
    {
      "inputs": [],
      "name": "symbol",
      "outputs": [
        {
          "internalType": "string",
          "name": "",
          "type": "string"
        }
      ],
      "stateMutability": "view",
      "type": "function"
    },
    {
      "inputs": [],
      "name": "totalSupply",
      "outputs": [
        {
          "internalType": "uint256",
          "name": "",
          "type": "uint256"
        }
      ],
      "stateMutability": "view",
      "type": "function"
    },
    {
      "inputs": [
        {
          "internalType": "address",
          "name": "recipient",
          "type": "address"
        },
        {
          "internalType": "uint256",
          "name": "amount",
          "type": "uint256"
        }
      ],
      "name": "transfer",
      "outputs": [
        {
          "internalType": "bool",
          "name": "",
          "type": "bool"
        }
      ],
      "stateMutability": "nonpayable",
      "type": "function"
    },
    {
      "inputs": [
        {
          "internalType": "address",
          "name": "recipient",
          "type": "address"
        },
        {
          "internalType": "uint256",
          "name": "amount",
          "type": "uint256"
        },
        {
          "internalType": "bytes",
          "name": "data",
          "type": "bytes"
        }
      ],
      "name": "transferAndCall",
      "outputs": [
        {
          "internalType": "bool",
          "name": "",
          "type": "bool"
        }
      ],
      "stateMutability": "nonpayable",
      "type": "function"
    },
    {
      "inputs": [
        {
          "internalType": "address",
          "name": "sender",
          "type": "address"
        },
        {
          "internalType": "address",
          "name": "recipient",
          "type": "address"
        },
        {
          "internalType": "uint256",
          "name": "amount",
          "type": "uint256"
        }
      ],
      "name": "transferFrom",
      "outputs": [
        {
          "internalType": "bool",
          "name": "",
          "type": "bool"
        }
      ],
      "stateMutability": "nonpayable",
      "type": "function"
    }
  ],
  "bytecode": "0x60806040523480156200001157600080fd5b506040516200322038038062003220833981810160405281019062000037919062000457565b816000806101000a81548173ffffffffffffffffffffffffffffffffffffffff021916908373ffffffffffffffffffffffffffffffffffffffff16021790555080600160006101000a81548173ffffffffffffffffffffffffffffffffffffffff021916908373ffffffffffffffffffffffffffffffffffffffff16021790555060006040518060400160405280601981526020017f2d5370617274616e50726f746f636f6c53796e74686574696300000000000000815250905060006040518060400160405280600481526020017f2d5350530000000000000000000000000000000000000000000000000000000081525090508273ffffffffffffffffffffffffffffffffffffffff166306fdde036040518163ffffffff1660e01b815260040160006040518083038186803b1580156200017357600080fd5b505afa15801562000188573d6000803e3d6000fd5b505050506040513d6000823e3d601f19601f82011682018060405250810190620001b3919062000498565b82604051602001620001c792919062000514565b60405160208183030381529060405260049080519060200190620001ed9291906200031e565b508273ffffffffffffffffffffffffffffffffffffffff166395d89b416040518163ffffffff1660e01b815260040160006040518083038186803b1580156200023557600080fd5b505afa1580156200024a573d6000803e3d6000fd5b505050506040513d6000823e3d601f19601f8201168201806040525081019062000275919062000498565b816040516020016200028992919062000514565b60405160208183030381529060405260059080519060200190620002af9291906200031e565b506012600660006101000a81548160ff021916908360ff16021790555033600360006101000a81548173ffffffffffffffffffffffffffffffffffffffff021916908373ffffffffffffffffffffffffffffffffffffffff160217905550426002819055505050505062000710565b8280546200032c906200061b565b90600052602060002090601f0160209004810192826200035057600085556200039c565b82601f106200036b57805160ff19168380011785556200039c565b828001600101855582156200039c579182015b828111156200039b5782518255916020019190600101906200037e565b5b509050620003ab9190620003af565b5090565b5b80821115620003ca576000816000905550600101620003b0565b5090565b6000620003e5620003df8462000565565b6200053c565b905082815260208101848484011115620003fe57600080fd5b6200040b848285620005e5565b509392505050565b6000815190506200042481620006f6565b92915050565b600082601f8301126200043c57600080fd5b81516200044e848260208601620003ce565b91505092915050565b600080604083850312156200046b57600080fd5b60006200047b8582860162000413565b92505060206200048e8582860162000413565b9150509250929050565b600060208284031215620004ab57600080fd5b600082015167ffffffffffffffff811115620004c657600080fd5b620004d4848285016200042a565b91505092915050565b6000620004ea826200059b565b620004f68185620005a6565b935062000508818560208601620005e5565b80840191505092915050565b6000620005228285620004dd565b9150620005308284620004dd565b91508190509392505050565b6000620005486200055b565b905062000556828262000651565b919050565b6000604051905090565b600067ffffffffffffffff821115620005835762000582620006b6565b5b6200058e82620006e5565b9050602081019050919050565b600081519050919050565b600081905092915050565b6000620005be82620005c5565b9050919050565b600073ffffffffffffffffffffffffffffffffffffffff82169050919050565b60005b8381101562000605578082015181840152602081019050620005e8565b8381111562000615576000848401525b50505050565b600060028204905060018216806200063457607f821691505b602082108114156200064b576200064a62000687565b5b50919050565b6200065c82620006e5565b810181811067ffffffffffffffff821117156200067e576200067d620006b6565b5b80604052505050565b7f4e487b7100000000000000000000000000000000000000000000000000000000600052602260045260246000fd5b7f4e487b7100000000000000000000000000000000000000000000000000000000600052604160045260246000fd5b6000601f19601f8301169050919050565b6200070181620005b1565b81146200070d57600080fd5b50565b612b0080620007206000396000f3fe608060405234801561001057600080fd5b506004361061018e5760003560e01c806379cc6790116100de578063cae9ca5111610097578063d9f22fba11610071578063d9f22fba146104e7578063dd62ed3e14610517578063ec342ad014610547578063ee46deee146105655761018e565b8063cae9ca511461047d578063d3e48814146104ad578063d950b6f3146104c95761018e565b806379cc6790146103a757806395d89b41146103c3578063a457c2d7146103e1578063a7f0b3de14610411578063a9059cbb1461042f578063c1b8411a1461045f5761018e565b8063395093511161014b578063484920311161012557806348492031146102f95780635d30ca1f1461031757806364dcd2161461034757806370a08231146103775761018e565b8063395093511461027d5780634000aea0146102ad57806342966c68146102dd5761018e565b806306fdde0314610193578063095ea7b3146101b157806318160ddd146101e157806323b872dd146101ff578063313ce5671461022f57806332f302e31461024d575b600080fd5b61019b610595565b6040516101a891906124fc565b60405180910390f35b6101cb60048036038101906101c69190612195565b610627565b6040516101d891906124e1565b60405180910390f35b6101e961063e565b6040516101f691906125fe565b60405180910390f35b61021960048036038101906102149190612146565b610644565b60405161022691906124e1565b60405180910390f35b6102376107dc565b6040516102449190612679565b60405180910390f35b61026760048036038101906102629190612195565b6107ef565b60405161027491906125fe565b60405180910390f35b61029760048036038101906102929190612195565b610a11565b6040516102a491906124e1565b60405180910390f35b6102c760048036038101906102c291906121d1565b610aaf565b6040516102d491906124e1565b60405180910390f35b6102f760048036038101906102f2919061228f565b610b3b565b005b610301610b48565b60405161030e9190612478565b60405180910390f35b610331600480360381019061032c91906120b8565b610b6e565b60405161033e91906125fe565b60405180910390f35b610361600480360381019061035c91906120b8565b610b86565b60405161036e91906125fe565b60405180910390f35b610391600480360381019061038c91906120b8565b610bcf565b60405161039e91906125fe565b60405180910390f35b6103c160048036038101906103bc9190612195565b610c18565b005b6103cb610c4b565b6040516103d891906124fc565b60405180910390f35b6103fb60048036038101906103f69190612195565b610cdd565b60405161040891906124e1565b60405180910390f35b610419610dc3565b60405161042691906125fe565b60405180910390f35b61044960048036038101906104449190612195565b610dc9565b60405161045691906124e1565b60405180910390f35b610467610de0565b6040516104749190612478565b60405180910390f35b610497600480360381019061049291906121d1565b610e06565b6040516104a491906124e1565b60405180910390f35b6104c760048036038101906104c291906120b8565b610eb2565b005b6104d161139f565b6040516104de91906124e1565b60405180910390f35b61050160048036038101906104fc91906120b8565b61157a565b60405161050e91906125fe565b60405180910390f35b610531600480360381019061052c919061210a565b6115c3565b60405161053e91906125fe565b60405180910390f35b61054f61164a565b60405161055c9190612478565b60405180910390f35b61057f600480360381019061057a91906120b8565b61166e565b60405161058c91906125fe565b60405180910390f35b6060600480546105a49061287f565b80601f01602080910402602001604051908101604052809291908181526020018280546105d09061287f565b801561061d5780601f106105f25761010080835404028352916020019161061d565b820191906000526020600020905b81548152906001019060200180831161060057829003601f168201915b5050505050905090565b6000610634338484611686565b6001905092915050565b60075481565b60006106518484846118f6565b7fffffffffffffffffffffffffffffffffffffffffffffffffffffffffffffffff600960008673ffffffffffffffffffffffffffffffffffffffff1673ffffffffffffffffffffffffffffffffffffffff16815260200190815260200160002060003373ffffffffffffffffffffffffffffffffffffffff1673ffffffffffffffffffffffffffffffffffffffff1681526020019081526020016000205410156107d1576000600960008673ffffffffffffffffffffffffffffffffffffffff1673ffffffffffffffffffffffffffffffffffffffff16815260200190815260200160002060003373ffffffffffffffffffffffffffffffffffffffff1673ffffffffffffffffffffffffffffffffffffffff168152602001908152602001600020549050828110156107b9576040517f08c379a00000000000000000000000000000000000000000000000000000000081526004016107b09061257e565b60405180910390fd5b6107cf853385846107ca91906127a2565b611686565b505b600190509392505050565b600660009054906101000a900460ff1681565b6000600115156107fd611b04565b73ffffffffffffffffffffffffffffffffffffffff1663b99b0a0c6040518163ffffffff1660e01b815260040160206040518083038186803b15801561084257600080fd5b505afa158015610856573d6000803e3d6000fd5b505050506040513d601f19601f8201168201806040525081019061087a91906120e1565b73ffffffffffffffffffffffffffffffffffffffff16638dcb4c93336040518263ffffffff1660e01b81526004016108b29190612478565b60206040518083038186803b1580156108ca57600080fd5b505afa1580156108de573d6000803e3d6000fd5b505050506040513d601f19601f82011682018060405250810190610902919061223d565b151514610944576040517f08c379a000000000000000000000000000000000000000000000000000000000815260040161093b9061253e565b60405180910390fd5b600061094f33611baa565b905082600b60003373ffffffffffffffffffffffffffffffffffffffff1673ffffffffffffffffffffffffffffffffffffffff16815260200190815260200160002060008282546109a091906126c1565b9250508190555080600a60003373ffffffffffffffffffffffffffffffffffffffff1673ffffffffffffffffffffffffffffffffffffffff16815260200190815260200160002060008282546109f691906126c1565b92505081905550610a078484611cdc565b8291505092915050565b6000610aa5338484600960003373ffffffffffffffffffffffffffffffffffffffff1673ffffffffffffffffffffffffffffffffffffffff16815260200190815260200160002060008873ffffffffffffffffffffffffffffffffffffffff1673ffffffffffffffffffffffffffffffffffffffff16815260200190815260200160002054610aa091906126c1565b611686565b6001905092915050565b6000610abc3386866118f6565b8473ffffffffffffffffffffffffffffffffffffffff1663cf4d253530863387876040518663ffffffff1660e01b8152600401610afd959493929190612493565b600060405180830381600087803b158015610b1757600080fd5b505af1158015610b2b573d6000803e3d6000fd5b5050505060019050949350505050565b610b453382611e25565b50565b600160009054906101000a900473ffffffffffffffffffffffffffffffffffffffff1681565b600a6020528060005260406000206000915090505481565b6000600a60008373ffffffffffffffffffffffffffffffffffffffff1673ffffffffffffffffffffffffffffffffffffffff168152602001908152602001600020549050919050565b6000600860008373ffffffffffffffffffffffffffffffffffffffff1673ffffffffffffffffffffffffffffffffffffffff168152602001908152602001600020549050919050565b600081610c2584336115c3565b610c2f91906127a2565b9050610c3c833383611686565b610c468383611e25565b505050565b606060058054610c5a9061287f565b80601f0160208091040260200160405190810160405280929190818152602001828054610c869061287f565b8015610cd35780601f10610ca857610100808354040283529160200191610cd3565b820191906000526020600020905b815481529060010190602001808311610cb657829003601f168201915b5050505050905090565b600080600960003373ffffffffffffffffffffffffffffffffffffffff1673ffffffffffffffffffffffffffffffffffffffff16815260200190815260200160002060008573ffffffffffffffffffffffffffffffffffffffff1673ffffffffffffffffffffffffffffffffffffffff16815260200190815260200160002054905082811015610da2576040517f08c379a0000000000000000000000000000000000000000000000000000000008152600401610d999061257e565b60405180910390fd5b610db833858584610db391906127a2565b611686565b600191505092915050565b60025481565b6000610dd63384846118f6565b6001905092915050565b600360009054906101000a900473ffffffffffffffffffffffffffffffffffffffff1681565b6000610e3333867fffffffffffffffffffffffffffffffffffffffffffffffffffffffffffffffff611686565b8473ffffffffffffffffffffffffffffffffffffffff16631ac562a730863387876040518663ffffffff1660e01b8152600401610e74959493929190612493565b600060405180830381600087803b158015610e8e57600080fd5b505af1158015610ea2573d6000803e3d6000fd5b5050505060019050949350505050565b6000610ebc611b04565b73ffffffffffffffffffffffffffffffffffffffff16637b0e5c456040518163ffffffff1660e01b815260040160206040518083038186803b158015610f0157600080fd5b505afa158015610f15573d6000803e3d6000fd5b505050506040513d601f19601f82011682018060405250810190610f3991906120e1565b73ffffffffffffffffffffffffffffffffffffffff16635a7b2ed3600a60008573ffffffffffffffffffffffffffffffffffffffff1673ffffffffffffffffffffffffffffffffffffffff1681526020019081526020016000205460008054906101000a900473ffffffffffffffffffffffffffffffffffffffff16856040518463ffffffff1660e01b8152600401610fd493929190612642565b60206040518083038186803b158015610fec57600080fd5b505afa158015611000573d6000803e3d6000fd5b505050506040513d601f19601f8201168201806040525081019061102491906122b8565b90506000611030611b04565b73ffffffffffffffffffffffffffffffffffffffff16637b0e5c456040518163ffffffff1660e01b815260040160206040518083038186803b15801561107557600080fd5b505afa158015611089573d6000803e3d6000fd5b505050506040513d601f19601f820116820180604052508101906110ad91906120e1565b73ffffffffffffffffffffffffffffffffffffffff1663c889a4df600b60008673ffffffffffffffffffffffffffffffffffffffff1673ffffffffffffffffffffffffffffffffffffffff16815260200190815260200160002054306040518363ffffffff1660e01b8152600401611126929190612619565b60206040518083038186803b15801561113e57600080fd5b505afa158015611152573d6000803e3d6000fd5b505050506040513d601f19601f8201168201806040525081019061117691906122b8565b90508082111561139a576000818361118e91906127a2565b9050670de0b6b3a76400008111156113985760006111aa611b04565b73ffffffffffffffffffffffffffffffffffffffff16637b0e5c456040518163ffffffff1660e01b815260040160206040518083038186803b1580156111ef57600080fd5b505afa158015611203573d6000803e3d6000fd5b505050506040513d601f19601f8201168201806040525081019061122791906120e1565b73ffffffffffffffffffffffffffffffffffffffff16639355ea4d8360008054906101000a900473ffffffffffffffffffffffffffffffffffffffff16886040518463ffffffff1660e01b815260040161128393929190612642565b60206040518083038186803b15801561129b57600080fd5b505afa1580156112af573d6000803e3d6000fd5b505050506040513d601f19601f820116820180604052508101906112d391906122b8565b905080600a60008773ffffffffffffffffffffffffffffffffffffffff1673ffffffffffffffffffffffffffffffffffffffff168152602001908152602001600020600082825461132491906127a2565b925050819055508473ffffffffffffffffffffffffffffffffffffffff166342966c68826040518263ffffffff1660e01b815260040161136491906125fe565b600060405180830381600087803b15801561137e57600080fd5b505af1158015611392573d6000803e3d6000fd5b50505050505b505b505050565b6000806113ab30610bcf565b90506000600b60003373ffffffffffffffffffffffffffffffffffffffff1673ffffffffffffffffffffffffffffffffffffffff16815260200190815260200160002054600a60003373ffffffffffffffffffffffffffffffffffffffff1673ffffffffffffffffffffffffffffffffffffffff168152602001908152602001600020548361143a9190612748565b6114449190612717565b905080600a60003373ffffffffffffffffffffffffffffffffffffffff1673ffffffffffffffffffffffffffffffffffffffff168152602001908152602001600020600082825461149591906127a2565b9250508190555081600b60003373ffffffffffffffffffffffffffffffffffffffff1673ffffffffffffffffffffffffffffffffffffffff16815260200190815260200160002060008282546114eb91906127a2565b925050819055506000811115611571576115053083611e25565b3373ffffffffffffffffffffffffffffffffffffffff166342966c68826040518263ffffffff1660e01b815260040161153e91906125fe565b600060405180830381600087803b15801561155857600080fd5b505af115801561156c573d6000803e3d6000fd5b505050505b60019250505090565b6000600b60008373ffffffffffffffffffffffffffffffffffffffff1673ffffffffffffffffffffffffffffffffffffffff168152602001908152602001600020549050919050565b6000600960008473ffffffffffffffffffffffffffffffffffffffff1673ffffffffffffffffffffffffffffffffffffffff16815260200190815260200160002060008373ffffffffffffffffffffffffffffffffffffffff1673ffffffffffffffffffffffffffffffffffffffff16815260200190815260200160002054905092915050565b60008054906101000a900473ffffffffffffffffffffffffffffffffffffffff1681565b600b6020528060005260406000206000915090505481565b600073ffffffffffffffffffffffffffffffffffffffff168373ffffffffffffffffffffffffffffffffffffffff1614156116f6576040517f08c379a00000000000000000000000000000000000000000000000000000000081526004016116ed9061255e565b60405180910390fd5b600073ffffffffffffffffffffffffffffffffffffffff168273ffffffffffffffffffffffffffffffffffffffff161415611766576040517f08c379a000000000000000000000000000000000000000000000000000000000815260040161175d906125be565b60405180910390fd5b7fffffffffffffffffffffffffffffffffffffffffffffffffffffffffffffffff600960008573ffffffffffffffffffffffffffffffffffffffff1673ffffffffffffffffffffffffffffffffffffffff16815260200190815260200160002060008473ffffffffffffffffffffffffffffffffffffffff1673ffffffffffffffffffffffffffffffffffffffff1681526020019081526020016000205410156118f15780600960008573ffffffffffffffffffffffffffffffffffffffff1673ffffffffffffffffffffffffffffffffffffffff16815260200190815260200160002060008473ffffffffffffffffffffffffffffffffffffffff1673ffffffffffffffffffffffffffffffffffffffff168152602001908152602001600020819055508173ffffffffffffffffffffffffffffffffffffffff168373ffffffffffffffffffffffffffffffffffffffff167f8c5be1e5ebec7d5bd14f71427d1e84f3dd0314c0f7b2291e5b200ac8c7c3b925836040516118e891906125fe565b60405180910390a35b505050565b600073ffffffffffffffffffffffffffffffffffffffff168373ffffffffffffffffffffffffffffffffffffffff161415611966576040517f08c379a000000000000000000000000000000000000000000000000000000000815260040161195d9061251e565b60405180910390fd5b6000600860008573ffffffffffffffffffffffffffffffffffffffff1673ffffffffffffffffffffffffffffffffffffffff168152602001908152602001600020549050818110156119ed576040517f08c379a00000000000000000000000000000000000000000000000000000000081526004016119e49061259e565b60405180910390fd5b81600860008673ffffffffffffffffffffffffffffffffffffffff1673ffffffffffffffffffffffffffffffffffffffff1681526020019081526020016000206000828254611a3c91906127a2565b9250508190555081600860008573ffffffffffffffffffffffffffffffffffffffff1673ffffffffffffffffffffffffffffffffffffffff1681526020019081526020016000206000828254611a9291906126c1565b925050819055508273ffffffffffffffffffffffffffffffffffffffff168473ffffffffffffffffffffffffffffffffffffffff167fddf252ad1be2c89b69c2b068fc378daa952ba7f163c4a11628f55a4df523b3ef84604051611af691906125fe565b60405180910390a350505050565b60008060009054906101000a900473ffffffffffffffffffffffffffffffffffffffff1673ffffffffffffffffffffffffffffffffffffffff166398fabd3a6040518163ffffffff1660e01b815260040160206040518083038186803b158015611b6d57600080fd5b505afa158015611b81573d6000803e3d6000fd5b505050506040513d601f19601f82011682018060405250810190611ba59190612266565b905090565b6000808273ffffffffffffffffffffffffffffffffffffffff166370a08231306040518263ffffffff1660e01b8152600401611be69190612478565b60206040518083038186803b158015611bfe57600080fd5b505afa158015611c12573d6000803e3d6000fd5b505050506040513d601f19601f82011682018060405250810190611c3691906122b8565b9050600a60008473ffffffffffffffffffffffffffffffffffffffff1673ffffffffffffffffffffffffffffffffffffffff16815260200190815260200160002054811115611cd157600a60008473ffffffffffffffffffffffffffffffffffffffff1673ffffffffffffffffffffffffffffffffffffffff1681526020019081526020016000205481611cca91906127a2565b9150611cd6565b600091505b50919050565b600073ffffffffffffffffffffffffffffffffffffffff168273ffffffffffffffffffffffffffffffffffffffff161415611d4c576040517f08c379a0000000000000000000000000000000000000000000000000000000008152600401611d43906125de565b60405180910390fd5b8060076000828254611d5e91906126c1565b9250508190555080600860008473ffffffffffffffffffffffffffffffffffffffff1673ffffffffffffffffffffffffffffffffffffffff1681526020019081526020016000206000828254611db491906126c1565b925050819055508173ffffffffffffffffffffffffffffffffffffffff16600073ffffffffffffffffffffffffffffffffffffffff167fddf252ad1be2c89b69c2b068fc378daa952ba7f163c4a11628f55a4df523b3ef83604051611e1991906125fe565b60405180910390a35050565b600073ffffffffffffffffffffffffffffffffffffffff168273ffffffffffffffffffffffffffffffffffffffff161415611e95576040517f08c379a0000000000000000000000000000000000000000000000000000000008152600401611e8c906125de565b60405180910390fd5b80600860008473ffffffffffffffffffffffffffffffffffffffff1673ffffffffffffffffffffffffffffffffffffffff168152602001908152602001600020541015611f17576040517f08c379a0000000000000000000000000000000000000000000000000000000008152600401611f0e9061259e565b60405180910390fd5b80600860008473ffffffffffffffffffffffffffffffffffffffff1673ffffffffffffffffffffffffffffffffffffffff1681526020019081526020016000206000828254611f6691906127a2565b925050819055508060076000828254611f7f91906127a2565b92505081905550600073ffffffffffffffffffffffffffffffffffffffff168273ffffffffffffffffffffffffffffffffffffffff167fddf252ad1be2c89b69c2b068fc378daa952ba7f163c4a11628f55a4df523b3ef83604051611fe491906125fe565b60405180910390a35050565b600081359050611fff81612a6e565b92915050565b60008151905061201481612a6e565b92915050565b60008151905061202981612a85565b92915050565b60008083601f84011261204157600080fd5b8235905067ffffffffffffffff81111561205a57600080fd5b60208301915083600182028301111561207257600080fd5b9250929050565b60008151905061208881612a9c565b92915050565b60008135905061209d81612ab3565b92915050565b6000815190506120b281612ab3565b92915050565b6000602082840312156120ca57600080fd5b60006120d884828501611ff0565b91505092915050565b6000602082840312156120f357600080fd5b600061210184828501612005565b91505092915050565b6000806040838503121561211d57600080fd5b600061212b85828601611ff0565b925050602061213c85828601611ff0565b9150509250929050565b60008060006060848603121561215b57600080fd5b600061216986828701611ff0565b935050602061217a86828701611ff0565b925050604061218b8682870161208e565b9150509250925092565b600080604083850312156121a857600080fd5b60006121b685828601611ff0565b92505060206121c78582860161208e565b9150509250929050565b600080600080606085870312156121e757600080fd5b60006121f587828801611ff0565b94505060206122068782880161208e565b935050604085013567ffffffffffffffff81111561222357600080fd5b61222f8782880161202f565b925092505092959194509250565b60006020828403121561224f57600080fd5b600061225d8482850161201a565b91505092915050565b60006020828403121561227857600080fd5b600061228684828501612079565b91505092915050565b6000602082840312156122a157600080fd5b60006122af8482850161208e565b91505092915050565b6000602082840312156122ca57600080fd5b60006122d8848285016120a3565b91505092915050565b6122ea816127d6565b82525050565b6122f9816127e8565b82525050565b600061230b838561269f565b935061231883858461283d565b6123218361293e565b840190509392505050565b600061233782612694565b61234181856126b0565b935061235181856020860161284c565b61235a8161293e565b840191505092915050565b6000612372600c836126b0565b915061237d8261294f565b602082019050919050565b60006123956005836126b0565b91506123a082612978565b602082019050919050565b60006123b86006836126b0565b91506123c3826129a1565b602082019050919050565b60006123db600d836126b0565b91506123e6826129ca565b602082019050919050565b60006123fe600b836126b0565b9150612409826129f3565b602082019050919050565b60006124216007836126b0565b915061242c82612a1c565b602082019050919050565b6000612444600b836126b0565b915061244f82612a45565b602082019050919050565b61246381612826565b82525050565b61247281612830565b82525050565b600060208201905061248d60008301846122e1565b92915050565b60006080820190506124a860008301886122e1565b6124b5602083018761245a565b6124c260408301866122e1565b81810360608301526124d58184866122ff565b90509695505050505050565b60006020820190506124f660008301846122f0565b92915050565b60006020820190508181036000830152612516818461232c565b905092915050565b6000602082019050818103600083015261253781612365565b9050919050565b6000602082019050818103600083015261255781612388565b9050919050565b60006020820190508181036000830152612577816123ab565b9050919050565b60006020820190508181036000830152612597816123ce565b9050919050565b600060208201905081810360008301526125b7816123f1565b9050919050565b600060208201905081810360008301526125d781612414565b9050919050565b600060208201905081810360008301526125f781612437565b9050919050565b6000602082019050612613600083018461245a565b92915050565b600060408201905061262e600083018561245a565b61263b60208301846122e1565b9392505050565b6000606082019050612657600083018661245a565b61266460208301856122e1565b61267160408301846122e1565b949350505050565b600060208201905061268e6000830184612469565b92915050565b600081519050919050565b600082825260208201905092915050565b600082825260208201905092915050565b60006126cc82612826565b91506126d783612826565b9250827fffffffffffffffffffffffffffffffffffffffffffffffffffffffffffffffff0382111561270c5761270b6128b1565b5b828201905092915050565b600061272282612826565b915061272d83612826565b92508261273d5761273c6128e0565b5b828204905092915050565b600061275382612826565b915061275e83612826565b9250817fffffffffffffffffffffffffffffffffffffffffffffffffffffffffffffffff0483118215151615612797576127966128b1565b5b828202905092915050565b60006127ad82612826565b91506127b883612826565b9250828210156127cb576127ca6128b1565b5b828203905092915050565b60006127e182612806565b9050919050565b60008115159050919050565b60006127ff826127d6565b9050919050565b600073ffffffffffffffffffffffffffffffffffffffff82169050919050565b6000819050919050565b600060ff82169050919050565b82818337600083830152505050565b60005b8381101561286a57808201518184015260208101905061284f565b83811115612879576000848401525b50505050565b6000600282049050600182168061289757607f821691505b602082108114156128ab576128aa61290f565b5b50919050565b7f4e487b7100000000000000000000000000000000000000000000000000000000600052601160045260246000fd5b7f4e487b7100000000000000000000000000000000000000000000000000000000600052601260045260246000fd5b7f4e487b7100000000000000000000000000000000000000000000000000000000600052602260045260246000fd5b6000601f19601f8301169050919050565b7f7472616e73666572206572720000000000000000000000000000000000000000600082015250565b7f21504f4f4c000000000000000000000000000000000000000000000000000000600082015250565b7f73656e6465720000000000000000000000000000000000000000000000000000600082015250565b7f616c6c6f77616e63652065727200000000000000000000000000000000000000600082015250565b7f62616c616e636520657272000000000000000000000000000000000000000000600082015250565b7f7370656e64657200000000000000000000000000000000000000000000000000600082015250565b7f6164647265737320657272000000000000000000000000000000000000000000600082015250565b612a77816127d6565b8114612a8257600080fd5b50565b612a8e816127e8565b8114612a9957600080fd5b50565b612aa5816127f4565b8114612ab057600080fd5b50565b612abc81612826565b8114612ac757600080fd5b5056fea2646970667358221220eea26cd57248e7426ce0437767db8428e6d64c8bcfed18dff18cb928c1df1fd464736f6c63430008030033",
  "linkReferences": {},
  "deployedLinkReferences": {}
}